{
  "_format": "hh-sol-artifact-1",
  "contractName": "TrustfulRiskModule",
  "sourceName": "contracts/TrustfulRiskModule.sol",
  "abi": [
    {
      "inputs": [
        {
          "internalType": "contract IPolicyPool",
          "name": "policyPool_",
          "type": "address"
        },
        {
          "internalType": "contract IPremiumsAccount",
          "name": "premiumsAccount_",
          "type": "address"
        }
      ],
      "stateMutability": "nonpayable",
      "type": "constructor"
    },
    {
      "anonymous": false,
      "inputs": [
        {
          "indexed": false,
          "internalType": "address",
          "name": "previousAdmin",
          "type": "address"
        },
        {
          "indexed": false,
          "internalType": "address",
          "name": "newAdmin",
          "type": "address"
        }
      ],
      "name": "AdminChanged",
      "type": "event"
    },
    {
      "anonymous": false,
      "inputs": [
        {
          "indexed": true,
          "internalType": "address",
          "name": "beacon",
          "type": "address"
        }
      ],
      "name": "BeaconUpgraded",
      "type": "event"
    },
    {
      "anonymous": false,
      "inputs": [
        {
          "indexed": true,
          "internalType": "enum IAccessManager.GovernanceActions",
          "name": "action",
          "type": "uint8"
        },
        {
          "indexed": false,
          "internalType": "address",
          "name": "value",
          "type": "address"
        }
      ],
      "name": "ComponentChanged",
      "type": "event"
    },
    {
      "anonymous": false,
      "inputs": [
        {
          "indexed": true,
          "internalType": "enum IAccessManager.GovernanceActions",
          "name": "action",
          "type": "uint8"
        },
        {
          "indexed": false,
          "internalType": "uint256",
          "name": "value",
          "type": "uint256"
        }
      ],
      "name": "GovernanceAction",
      "type": "event"
    },
    {
      "anonymous": false,
      "inputs": [
        {
          "indexed": false,
          "internalType": "uint8",
          "name": "version",
          "type": "uint8"
        }
      ],
      "name": "Initialized",
      "type": "event"
    },
    {
      "anonymous": false,
      "inputs": [
        {
          "indexed": false,
          "internalType": "address",
          "name": "account",
          "type": "address"
        }
      ],
      "name": "Paused",
      "type": "event"
    },
    {
      "anonymous": false,
      "inputs": [
        {
          "indexed": false,
          "internalType": "address",
          "name": "account",
          "type": "address"
        }
      ],
      "name": "Unpaused",
      "type": "event"
    },
    {
      "anonymous": false,
      "inputs": [
        {
          "indexed": true,
          "internalType": "address",
          "name": "implementation",
          "type": "address"
        }
      ],
      "name": "Upgraded",
      "type": "event"
    },
    {
      "inputs": [],
      "name": "GUARDIAN_ROLE",
      "outputs": [
        {
          "internalType": "bytes32",
          "name": "",
          "type": "bytes32"
        }
      ],
      "stateMutability": "view",
      "type": "function"
    },
    {
      "inputs": [],
      "name": "LEVEL1_ROLE",
      "outputs": [
        {
          "internalType": "bytes32",
          "name": "",
          "type": "bytes32"
        }
      ],
      "stateMutability": "view",
      "type": "function"
    },
    {
      "inputs": [],
      "name": "LEVEL2_ROLE",
      "outputs": [
        {
          "internalType": "bytes32",
          "name": "",
          "type": "bytes32"
        }
      ],
      "stateMutability": "view",
      "type": "function"
    },
    {
      "inputs": [],
      "name": "LEVEL3_ROLE",
      "outputs": [
        {
          "internalType": "bytes32",
          "name": "",
          "type": "bytes32"
        }
      ],
      "stateMutability": "view",
      "type": "function"
    },
    {
      "inputs": [],
      "name": "PRICER_ROLE",
      "outputs": [
        {
          "internalType": "bytes32",
          "name": "",
          "type": "bytes32"
        }
      ],
      "stateMutability": "view",
      "type": "function"
    },
    {
      "inputs": [],
      "name": "RESOLVER_ROLE",
      "outputs": [
        {
          "internalType": "bytes32",
          "name": "",
          "type": "bytes32"
        }
      ],
      "stateMutability": "view",
      "type": "function"
    },
    {
      "inputs": [],
      "name": "RM_PROVIDER_ROLE",
      "outputs": [
        {
          "internalType": "bytes32",
          "name": "",
          "type": "bytes32"
        }
      ],
      "stateMutability": "view",
      "type": "function"
    },
    {
      "inputs": [],
      "name": "TWEAK_EXPIRATION",
      "outputs": [
        {
          "internalType": "uint40",
          "name": "",
          "type": "uint40"
        }
      ],
      "stateMutability": "view",
      "type": "function"
    },
    {
      "inputs": [],
      "name": "activeExposure",
      "outputs": [
        {
          "internalType": "uint256",
          "name": "",
          "type": "uint256"
        }
      ],
      "stateMutability": "view",
      "type": "function"
    },
    {
      "inputs": [],
      "name": "currency",
      "outputs": [
        {
          "internalType": "contract IERC20Metadata",
          "name": "",
          "type": "address"
        }
      ],
      "stateMutability": "view",
      "type": "function"
    },
    {
      "inputs": [],
      "name": "exposureLimit",
      "outputs": [
        {
          "internalType": "uint256",
          "name": "",
          "type": "uint256"
        }
      ],
      "stateMutability": "view",
      "type": "function"
    },
    {
      "inputs": [
        {
          "internalType": "uint256",
          "name": "payout",
          "type": "uint256"
        },
        {
          "internalType": "uint256",
          "name": "lossProb",
          "type": "uint256"
        },
        {
          "internalType": "uint40",
          "name": "expiration",
          "type": "uint40"
        }
      ],
      "name": "getMinimumPremium",
      "outputs": [
        {
          "internalType": "uint256",
          "name": "",
          "type": "uint256"
        }
      ],
      "stateMutability": "view",
      "type": "function"
    },
    {
      "inputs": [
        {
          "internalType": "string",
          "name": "name_",
          "type": "string"
        },
        {
          "internalType": "uint256",
          "name": "collRatio_",
          "type": "uint256"
        },
        {
          "internalType": "uint256",
          "name": "ensuroPpFee_",
          "type": "uint256"
        },
        {
          "internalType": "uint256",
          "name": "srRoc_",
          "type": "uint256"
        },
        {
          "internalType": "uint256",
          "name": "maxPayoutPerPolicy_",
          "type": "uint256"
        },
        {
          "internalType": "uint256",
          "name": "exposureLimit_",
          "type": "uint256"
        },
        {
          "internalType": "address",
          "name": "wallet_",
          "type": "address"
        }
      ],
      "name": "initialize",
      "outputs": [],
      "stateMutability": "nonpayable",
      "type": "function"
    },
    {
      "inputs": [],
      "name": "lastTweak",
      "outputs": [
        {
          "internalType": "uint40",
          "name": "",
          "type": "uint40"
        },
        {
          "internalType": "uint56",
          "name": "",
          "type": "uint56"
        }
      ],
      "stateMutability": "view",
      "type": "function"
    },
    {
      "inputs": [],
      "name": "maxDuration",
      "outputs": [
        {
          "internalType": "uint256",
          "name": "",
          "type": "uint256"
        }
      ],
      "stateMutability": "view",
      "type": "function"
    },
    {
      "inputs": [],
      "name": "maxPayoutPerPolicy",
      "outputs": [
        {
          "internalType": "uint256",
          "name": "",
          "type": "uint256"
        }
      ],
      "stateMutability": "view",
      "type": "function"
    },
    {
      "inputs": [],
      "name": "name",
      "outputs": [
        {
          "internalType": "string",
          "name": "",
          "type": "string"
        }
      ],
      "stateMutability": "view",
      "type": "function"
    },
    {
      "inputs": [
        {
          "internalType": "uint256",
          "name": "payout",
          "type": "uint256"
        },
        {
          "internalType": "uint256",
          "name": "premium",
          "type": "uint256"
        },
        {
          "internalType": "uint256",
          "name": "lossProb",
          "type": "uint256"
        },
        {
          "internalType": "uint40",
          "name": "expiration",
          "type": "uint40"
        },
        {
          "internalType": "address",
          "name": "onBehalfOf",
          "type": "address"
        },
        {
          "internalType": "uint96",
          "name": "internalId",
          "type": "uint96"
        }
      ],
      "name": "newPolicy",
      "outputs": [
        {
          "internalType": "uint256",
          "name": "",
          "type": "uint256"
        }
      ],
      "stateMutability": "nonpayable",
      "type": "function"
    },
    {
      "inputs": [
        {
          "internalType": "uint256",
          "name": "payout",
          "type": "uint256"
        },
        {
          "internalType": "uint256",
          "name": "premium",
          "type": "uint256"
        },
        {
          "internalType": "uint256",
          "name": "lossProb",
          "type": "uint256"
        },
        {
          "internalType": "uint40",
          "name": "expiration",
          "type": "uint40"
        },
        {
          "internalType": "address",
          "name": "onBehalfOf",
          "type": "address"
        },
        {
          "internalType": "uint96",
          "name": "internalId",
          "type": "uint96"
        }
      ],
      "name": "newPolicyFull",
      "outputs": [
        {
          "components": [
            {
              "internalType": "uint256",
              "name": "id",
              "type": "uint256"
            },
            {
              "internalType": "uint256",
              "name": "payout",
              "type": "uint256"
            },
            {
              "internalType": "uint256",
              "name": "premium",
              "type": "uint256"
            },
            {
              "internalType": "uint256",
              "name": "jrScr",
              "type": "uint256"
            },
            {
              "internalType": "uint256",
              "name": "srScr",
              "type": "uint256"
            },
            {
              "internalType": "uint256",
              "name": "lossProb",
              "type": "uint256"
            },
            {
              "internalType": "uint256",
              "name": "purePremium",
              "type": "uint256"
            },
            {
              "internalType": "uint256",
              "name": "ensuroCommission",
              "type": "uint256"
            },
            {
              "internalType": "uint256",
              "name": "partnerCommission",
              "type": "uint256"
            },
            {
              "internalType": "uint256",
              "name": "jrCoc",
              "type": "uint256"
            },
            {
              "internalType": "uint256",
              "name": "srCoc",
              "type": "uint256"
            },
            {
              "internalType": "contract IRiskModule",
              "name": "riskModule",
              "type": "address"
            },
            {
              "internalType": "uint40",
              "name": "start",
              "type": "uint40"
            },
            {
              "internalType": "uint40",
              "name": "expiration",
              "type": "uint40"
            }
          ],
          "internalType": "struct Policy.PolicyData",
          "name": "createdPolicy",
          "type": "tuple"
        }
      ],
      "stateMutability": "nonpayable",
      "type": "function"
    },
    {
      "inputs": [],
      "name": "params",
      "outputs": [
        {
          "components": [
            {
              "internalType": "uint256",
              "name": "moc",
              "type": "uint256"
            },
            {
              "internalType": "uint256",
              "name": "jrCollRatio",
              "type": "uint256"
            },
            {
              "internalType": "uint256",
              "name": "collRatio",
              "type": "uint256"
            },
            {
              "internalType": "uint256",
              "name": "ensuroPpFee",
              "type": "uint256"
            },
            {
              "internalType": "uint256",
              "name": "ensuroCocFee",
              "type": "uint256"
            },
            {
              "internalType": "uint256",
              "name": "jrRoc",
              "type": "uint256"
            },
            {
              "internalType": "uint256",
              "name": "srRoc",
              "type": "uint256"
            }
          ],
          "internalType": "struct IRiskModule.Params",
          "name": "ret",
          "type": "tuple"
        }
      ],
      "stateMutability": "view",
      "type": "function"
    },
    {
      "inputs": [],
      "name": "pause",
      "outputs": [],
      "stateMutability": "nonpayable",
      "type": "function"
    },
    {
      "inputs": [],
      "name": "paused",
      "outputs": [
        {
          "internalType": "bool",
          "name": "",
          "type": "bool"
        }
      ],
      "stateMutability": "view",
      "type": "function"
    },
    {
      "inputs": [],
      "name": "policyPool",
      "outputs": [
        {
          "internalType": "contract IPolicyPool",
          "name": "",
          "type": "address"
        }
      ],
      "stateMutability": "view",
      "type": "function"
    },
    {
      "inputs": [],
      "name": "premiumsAccount",
      "outputs": [
        {
          "internalType": "contract IPremiumsAccount",
          "name": "",
          "type": "address"
        }
      ],
      "stateMutability": "view",
      "type": "function"
    },
    {
      "inputs": [],
      "name": "proxiableUUID",
      "outputs": [
        {
          "internalType": "bytes32",
          "name": "",
          "type": "bytes32"
        }
      ],
      "stateMutability": "view",
      "type": "function"
    },
    {
      "inputs": [
        {
          "internalType": "uint256",
          "name": "payout",
          "type": "uint256"
        }
      ],
      "name": "releaseExposure",
      "outputs": [],
      "stateMutability": "nonpayable",
      "type": "function"
    },
    {
      "inputs": [
        {
          "components": [
            {
              "internalType": "uint256",
              "name": "id",
              "type": "uint256"
            },
            {
              "internalType": "uint256",
              "name": "payout",
              "type": "uint256"
            },
            {
              "internalType": "uint256",
              "name": "premium",
              "type": "uint256"
            },
            {
              "internalType": "uint256",
              "name": "jrScr",
              "type": "uint256"
            },
            {
              "internalType": "uint256",
              "name": "srScr",
              "type": "uint256"
            },
            {
              "internalType": "uint256",
              "name": "lossProb",
              "type": "uint256"
            },
            {
              "internalType": "uint256",
              "name": "purePremium",
              "type": "uint256"
            },
            {
              "internalType": "uint256",
              "name": "ensuroCommission",
              "type": "uint256"
            },
            {
              "internalType": "uint256",
              "name": "partnerCommission",
              "type": "uint256"
            },
            {
              "internalType": "uint256",
              "name": "jrCoc",
              "type": "uint256"
            },
            {
              "internalType": "uint256",
              "name": "srCoc",
              "type": "uint256"
            },
            {
              "internalType": "contract IRiskModule",
              "name": "riskModule",
              "type": "address"
            },
            {
              "internalType": "uint40",
              "name": "start",
              "type": "uint40"
            },
            {
              "internalType": "uint40",
              "name": "expiration",
              "type": "uint40"
            }
          ],
          "internalType": "struct Policy.PolicyData",
          "name": "policy",
          "type": "tuple"
        },
        {
          "internalType": "uint256",
          "name": "payout",
          "type": "uint256"
        }
      ],
      "name": "resolvePolicy",
      "outputs": [],
      "stateMutability": "nonpayable",
      "type": "function"
    },
    {
      "inputs": [
        {
          "components": [
            {
              "internalType": "uint256",
              "name": "id",
              "type": "uint256"
            },
            {
              "internalType": "uint256",
              "name": "payout",
              "type": "uint256"
            },
            {
              "internalType": "uint256",
              "name": "premium",
              "type": "uint256"
            },
            {
              "internalType": "uint256",
              "name": "jrScr",
              "type": "uint256"
            },
            {
              "internalType": "uint256",
              "name": "srScr",
              "type": "uint256"
            },
            {
              "internalType": "uint256",
              "name": "lossProb",
              "type": "uint256"
            },
            {
              "internalType": "uint256",
              "name": "purePremium",
              "type": "uint256"
            },
            {
              "internalType": "uint256",
              "name": "ensuroCommission",
              "type": "uint256"
            },
            {
              "internalType": "uint256",
              "name": "partnerCommission",
              "type": "uint256"
            },
            {
              "internalType": "uint256",
              "name": "jrCoc",
              "type": "uint256"
            },
            {
              "internalType": "uint256",
              "name": "srCoc",
              "type": "uint256"
            },
            {
              "internalType": "contract IRiskModule",
              "name": "riskModule",
              "type": "address"
            },
            {
              "internalType": "uint40",
              "name": "start",
              "type": "uint40"
            },
            {
              "internalType": "uint40",
              "name": "expiration",
              "type": "uint40"
            }
          ],
          "internalType": "struct Policy.PolicyData",
          "name": "policy",
          "type": "tuple"
        },
        {
          "internalType": "bool",
          "name": "customerWon",
          "type": "bool"
        }
      ],
      "name": "resolvePolicyFullPayout",
      "outputs": [],
      "stateMutability": "nonpayable",
      "type": "function"
    },
    {
      "inputs": [
        {
          "internalType": "enum IRiskModule.Parameter",
          "name": "param",
          "type": "uint8"
        },
        {
          "internalType": "uint256",
          "name": "newValue",
          "type": "uint256"
        }
      ],
      "name": "setParam",
      "outputs": [],
      "stateMutability": "nonpayable",
      "type": "function"
    },
    {
      "inputs": [
        {
          "internalType": "address",
          "name": "wallet_",
          "type": "address"
        }
      ],
      "name": "setWallet",
      "outputs": [],
      "stateMutability": "nonpayable",
      "type": "function"
    },
    {
      "inputs": [
        {
          "internalType": "bytes4",
          "name": "interfaceId",
          "type": "bytes4"
        }
      ],
      "name": "supportsInterface",
      "outputs": [
        {
          "internalType": "bool",
          "name": "",
          "type": "bool"
        }
      ],
      "stateMutability": "view",
      "type": "function"
    },
    {
      "inputs": [],
      "name": "unpause",
      "outputs": [],
      "stateMutability": "nonpayable",
      "type": "function"
    },
    {
      "inputs": [
        {
          "internalType": "address",
          "name": "newImplementation",
          "type": "address"
        }
      ],
      "name": "upgradeTo",
      "outputs": [],
      "stateMutability": "nonpayable",
      "type": "function"
    },
    {
      "inputs": [
        {
          "internalType": "address",
          "name": "newImplementation",
          "type": "address"
        },
        {
          "internalType": "bytes",
          "name": "data",
          "type": "bytes"
        }
      ],
      "name": "upgradeToAndCall",
      "outputs": [],
      "stateMutability": "payable",
      "type": "function"
    },
    {
      "inputs": [],
      "name": "wallet",
      "outputs": [
        {
          "internalType": "address",
          "name": "",
          "type": "address"
        }
      ],
      "stateMutability": "view",
      "type": "function"
    }
  ],
  "bytecode": "0x60e0604052306080523480156200001557600080fd5b50604051620051ff380380620051ff8339810160408190526200003891620002ac565b8181816001600160a01b038116620000bd5760405162461bcd60e51b815260206004820152603660248201527f506f6c696379506f6f6c436f6d706f6e656e743a20706f6c696379506f6f6c2060448201527f63616e6e6f74206265207a65726f20616464726573730000000000000000000060648201526084015b60405180910390fd5b620000c7620001d4565b806001600160a01b031660a0816001600160a01b03168152505050816001600160a01b0316816001600160a01b0316634d15eb036040518163ffffffff1660e01b8152600401602060405180830381865afa1580156200012b573d6000803e3d6000fd5b505050506040513d601f19601f82011682018060405250810190620001519190620002eb565b6001600160a01b031614620001be5760405162461bcd60e51b815260206004820152602c60248201527f546865205072656d69756d734163636f756e74206d757374206265207061727460448201526b081bd9881d1a1948141bdbdb60a21b6064820152608401620000b4565b6001600160a01b031660c0525062000312915050565b600054610100900460ff16156200023e5760405162461bcd60e51b815260206004820152602760248201527f496e697469616c697a61626c653a20636f6e747261637420697320696e697469604482015266616c697a696e6760c81b6064820152608401620000b4565b60005460ff908116101562000291576000805460ff191660ff9081179091556040519081527f7f26b83ff96e1f2b6a682f133852f6798a09c465da95921460cefb38474024989060200160405180910390a15b565b6001600160a01b0381168114620002a957600080fd5b50565b60008060408385031215620002c057600080fd5b8251620002cd8162000293565b6020840151909250620002e08162000293565b809150509250929050565b600060208284031215620002fe57600080fd5b81516200030b8162000293565b9392505050565b60805160a05160c051614e07620003f8600039600081816104ca01526133b40152600081816103910152818161083601528181610a4401528181610b5901528181610ddb01528181610fb6015281816110b7015281816111360152818161142d0152818161152a01528181611dfa01528181611f790152818161201c01528181612120015281816121a501528181612455015281816124f4015281816125e20152818161286e0152818161291c01528181612d920152613ec80152600081816109460152818161098f01528181610c6301528181610ca30152610d320152614e076000f3fe6080604052600436106102045760003560e01c80636f0dbe6f11610118578063a9a24f27116100a0578063deaa59df1161006f578063deaa59df146106a2578063e5a6b10f146106c2578063f67b2bad146106d7578063fbb81279146106f9578063ffa600e31461072d57600080fd5b8063a9a24f27146105ce578063c1cca2b314610602578063cfd4c60614610622578063cff0ab961461063757600080fd5b80637ed5acfa116100e75780637ed5acfa146105425780637ff8bf251461056f5780638456cb591461058457806385272a6e146105995780638bac3a24146105ae57600080fd5b80636f0dbe6f1461049b57806373a952e8146104bb57806378fab260146104ee5780637a702b3c1461052257600080fd5b80634a47a3e01161019b57806352d1902d1161016a57806352d1902d146103fa5780635b494dd51461040f5780635c975abb146104435780636a448ef11461045b5780636db5c8fd1461047b57600080fd5b80634a47a3e01461034e5780634d15eb03146103825780634f1ef286146103c9578063521eb273146103dc57600080fd5b80633659cfe6116101d75780633659cfe6146102bd5780633f4ba83a146102df578063406f7f6f146102f4578063468a8c9f1461031457600080fd5b806301ffc9a71461020957806306fdde031461023e5780631d177dc41461026057806324ea54f41461028d575b600080fd5b34801561021557600080fd5b50610229610224366004614233565b61074d565b60405190151581526020015b60405180910390f35b34801561024a57600080fd5b50610253610779565b6040516102359190614281565b34801561026c57600080fd5b5061028061027b3660046142e3565b61080b565b6040516102359190614411565b34801561029957600080fd5b506102af600080516020614db283398151915281565b604051908152602001610235565b3480156102c957600080fd5b506102dd6102d8366004614420565b61093c565b005b3480156102eb57600080fd5b506102dd610a24565b34801561030057600080fd5b506102af61030f3660046142e3565b610b34565b34801561032057600080fd5b5060c9546040805164ffffffffff83168152600160281b90920466ffffffffffffff16602083015201610235565b34801561035a57600080fd5b506102af7fa82e22387fca439f316d78ca566f383218ab8ae1b3e830178c9c82cbd16749c081565b34801561038e57600080fd5b507f00000000000000000000000000000000000000000000000000000000000000005b6040516001600160a01b039091168152602001610235565b6102dd6103d73660046144c9565b610c59565b3480156103e857600080fd5b5060fe546001600160a01b03166103b1565b34801561040657600080fd5b506102af610d25565b34801561041b57600080fd5b506102af7f5ec196419322369c6bac572d883f4d990ae5ec82f7d93cdf89b85dbb05b63c2781565b34801561044f57600080fd5b5060975460ff16610229565b34801561046757600080fd5b506102dd61047636600461452d565b610dd8565b34801561048757600080fd5b5060fc54600160b01b900461ffff166102af565b3480156104a757600080fd5b506102dd6104b6366004614546565b610e74565b3480156104c757600080fd5b507f00000000000000000000000000000000000000000000000000000000000000006103b1565b3480156104fa57600080fd5b506102af7f92a19c77d2ea87c7f81d50c74403cb2f401780f3ad919571121efe2bdb427eb181565b34801561052e57600080fd5b506102dd61053d3660046145f5565b610f93565b34801561054e57600080fd5b506105596201518081565b60405164ffffffffff9091168152602001610235565b34801561057b57600080fd5b5060fd546102af565b34801561059057600080fd5b506102dd611125565b3480156105a557600080fd5b506102af611220565b3480156105ba57600080fd5b506102af6105c9366004614622565b611243565b3480156105da57600080fd5b506102af7f0df0a8869cf58168a14cd7ac426ff1b8c6ff5d5c800c6f44803f3431dcb3bad181565b34801561060e57600080fd5b506102dd61061d366004614657565b6113d8565b34801561062e57600080fd5b506102af611c9b565b34801561064357600080fd5b5061064c611cba565b6040516102359190600060e082019050825182526020830151602083015260408301516040830152606083015160608301526080830151608083015260a083015160a083015260c083015160c083015292915050565b3480156106ae57600080fd5b506102dd6106bd366004614420565b611dd7565b3480156106ce57600080fd5b506103b1611f75565b3480156106e357600080fd5b506102af600080516020614d6b83398151915281565b34801561070557600080fd5b506102af7fc6823861ee2bb2198ce6b1fd6faf4c8f44f745bc804aca4a762f67e0d507fd8a81565b34801561073957600080fd5b506102dd610748366004614695565b611ff9565b600061075882612157565b8061077357506001600160e01b0319821663da40804f60e01b145b92915050565b606060fb8054610788906146cf565b80601f01602080910402602001604051908101604052809291908181526020018280546107b4906146cf565b80156108015780601f106107d657610100808354040283529160200191610801565b820191906000526020600020905b8154815290600101906020018083116107e457829003601f168201915b5050505050905090565b6108136141ad565b7fc6823861ee2bb2198ce6b1fd6faf4c8f44f745bc804aca4a762f67e0d507fd8a7f00000000000000000000000000000000000000000000000000000000000000006001600160a01b03166371907f176040518163ffffffff1660e01b8152600401602060405180830381865afa158015610892573d6000803e3d6000fd5b505050506040513d601f19601f820116820180604052508101906108b69190614703565b6001600160a01b0316635ff57d2030833360006040518563ffffffff1660e01b81526004016108e89493929190614720565b60006040518083038186803b15801561090057600080fd5b505afa158015610914573d6000803e3d6000fd5b5050505061093088888888610929898d61218d565b89896122b3565b98975050505050505050565b6001600160a01b037f000000000000000000000000000000000000000000000000000000000000000016300361098d5760405162461bcd60e51b81526004016109849061474a565b60405180910390fd5b7f00000000000000000000000000000000000000000000000000000000000000006001600160a01b03166109d6600080516020614d4b833981519152546001600160a01b031690565b6001600160a01b0316146109fc5760405162461bcd60e51b815260040161098490614796565b610a05816128fc565b60408051600080825260208201909252610a2191839190612a0e565b50565b600080516020614db2833981519152600080516020614d6b8339815191527f00000000000000000000000000000000000000000000000000000000000000006001600160a01b03166371907f176040518163ffffffff1660e01b8152600401602060405180830381865afa158015610aa0573d6000803e3d6000fd5b505050506040513d601f19601f82011682018060405250810190610ac49190614703565b6001600160a01b0316632b1cff1f3084843360016040518663ffffffff1660e01b8152600401610af89594939291906147e2565b60006040518083038186803b158015610b1057600080fd5b505afa158015610b24573d6000803e3d6000fd5b50505050610b30612b79565b5050565b60007fc6823861ee2bb2198ce6b1fd6faf4c8f44f745bc804aca4a762f67e0d507fd8a7f00000000000000000000000000000000000000000000000000000000000000006001600160a01b03166371907f176040518163ffffffff1660e01b8152600401602060405180830381865afa158015610bb5573d6000803e3d6000fd5b505050506040513d601f19601f82011682018060405250810190610bd99190614703565b6001600160a01b0316635ff57d2030833360006040518563ffffffff1660e01b8152600401610c0b9493929190614720565b60006040518083038186803b158015610c2357600080fd5b505afa158015610c37573d6000803e3d6000fd5b50505050610c4c88888888610929898d61218d565b5198975050505050505050565b6001600160a01b037f0000000000000000000000000000000000000000000000000000000000000000163003610ca15760405162461bcd60e51b81526004016109849061474a565b7f00000000000000000000000000000000000000000000000000000000000000006001600160a01b0316610cea600080516020614d4b833981519152546001600160a01b031690565b6001600160a01b031614610d105760405162461bcd60e51b815260040161098490614796565b610d19826128fc565b610b3082826001612a0e565b6000306001600160a01b037f00000000000000000000000000000000000000000000000000000000000000001614610dc55760405162461bcd60e51b815260206004820152603860248201527f555550535570677261646561626c653a206d757374206e6f742062652063616c60448201527f6c6564207468726f7567682064656c656761746563616c6c00000000000000006064820152608401610984565b50600080516020614d4b83398151915290565b337f00000000000000000000000000000000000000000000000000000000000000006001600160a01b031614610e5a5760405162461bcd60e51b815260206004820152602160248201527f5468652063616c6c6572206d7573742062652074686520506f6c696379506f6f6044820152601b60fa1b6064820152608401610984565b8060fd6000828254610e6c919061482b565b909155505050565b600054610100900460ff1615808015610e945750600054600160ff909116105b80610eae5750303b158015610eae575060005460ff166001145b610f115760405162461bcd60e51b815260206004820152602e60248201527f496e697469616c697a61626c653a20636f6e747261637420697320616c72656160448201526d191e481a5b9a5d1a585b1a5e995960921b6064820152608401610984565b6000805460ff191660011790558015610f34576000805461ff0019166101001790555b610f4388888888888888612bcb565b8015610f89576000805461ff0019169055604051600181527f7f26b83ff96e1f2b6a682f133852f6798a09c465da95921460cefb38474024989060200160405180910390a15b5050505050505050565b7f92a19c77d2ea87c7f81d50c74403cb2f401780f3ad919571121efe2bdb427eb17f00000000000000000000000000000000000000000000000000000000000000006001600160a01b03166371907f176040518163ffffffff1660e01b8152600401602060405180830381865afa158015611012573d6000803e3d6000fd5b505050506040513d601f19601f820116820180604052508101906110369190614703565b6001600160a01b0316635ff57d2030833360006040518563ffffffff1660e01b81526004016110689493929190614720565b60006040518083038186803b15801561108057600080fd5b505afa158015611094573d6000803e3d6000fd5b505050506110a0612c09565b604051631e9c0acf60e21b81526001600160a01b037f00000000000000000000000000000000000000000000000000000000000000001690637a702b3c906110ee908690869060040161490a565b600060405180830381600087803b15801561110857600080fd5b505af115801561111c573d6000803e3d6000fd5b50505050505050565b600080516020614db28339815191527f00000000000000000000000000000000000000000000000000000000000000006001600160a01b03166371907f176040518163ffffffff1660e01b8152600401602060405180830381865afa158015611192573d6000803e3d6000fd5b505050506040513d601f19601f820116820180604052508101906111b69190614703565b6001600160a01b0316635ff57d2030833360016040518563ffffffff1660e01b81526004016111e89493929190614720565b60006040518083038186803b15801561120057600080fd5b505afa158015611214573d6000803e3d6000fd5b50505050610a21612c51565b60fc5460009061123e908290600160901b900463ffffffff16612c8e565b905090565b60008061124e611cba565b9050600061127361126c836000015187612d1f90919063ffffffff16565b8790612d1f565b9050600061128e836020015188612d1f90919063ffffffff16565b9050818111156112a9576112a2828261482b565b90506112ad565b5060005b60006112c6846040015189612d1f90919063ffffffff16565b90506112d28284614927565b8111156112f4576112e38284614927565b6112ed908261482b565b90506112f8565b5060005b60006113396113326a1a1601fc4ea7109e00000061131d4264ffffffffff8c1661482b565b8860a0015161132c919061493a565b90612d57565b8490612d1f565b9050600061136f6113326a1a1601fc4ea7109e0000006113604264ffffffffff8d1661482b565b8960c0015161132c919061493a565b9050600061138d876080015183856113879190614927565b90612d1f565b606088015161139d908890612d1f565b6113a79190614927565b90506113b38284614927565b6113bd8288614927565b6113c79190614927565b9750505050505050505b9392505050565b600080516020614d6b8339815191527fa82e22387fca439f316d78ca566f383218ab8ae1b3e830178c9c82cbd16749c07f5ec196419322369c6bac572d883f4d990ae5ec82f7d93cdf89b85dbb05b63c2760007f00000000000000000000000000000000000000000000000000000000000000006001600160a01b03166371907f176040518163ffffffff1660e01b8152600401602060405180830381865afa158015611489573d6000803e3d6000fd5b505050506040513d601f19601f820116820180604052508101906114ad9190614703565b6040516359f7e5e960e11b81529091506001600160a01b0382169063b3efcbd2906114e390309088903390600190600401614720565b602060405180830381865afa158015611500573d6000803e3d6000fd5b505050506040513d601f19601f820116820180604052508101906115249190614959565b61160f577f00000000000000000000000000000000000000000000000000000000000000006001600160a01b03166371907f176040518163ffffffff1660e01b8152600401602060405180830381865afa158015611586573d6000803e3d6000fd5b505050506040513d601f19601f820116820180604052508101906115aa9190614703565b6001600160a01b0316632b1cff1f3085853360016040518663ffffffff1660e01b81526004016115de9594939291906147e2565b60006040518083038186803b1580156115f657600080fd5b505afa15801561160a573d6000803e3d6000fd5b505050505b600061163a7fa82e22387fca439f316d78ca566f383218ab8ae1b3e830178c9c82cbd16749c0612d8e565b15801561165b5750611659600080516020614d6b833981519152612d8e565b155b9050600087600981111561167157611671614976565b036116e1578015806116a1575060fc546116a1906116929061ffff16612e85565b8767016345785d8a0000612e9b565b6116bd5760405162461bcd60e51b81526004016109849061498c565b6116c686612f22565b60fc805461ffff191661ffff92909216919091179055611c63565b60018760098111156116f5576116f5614976565b036117655780158061171c575060fc5461171c906116929062010000900461ffff16612e85565b6117385760405162461bcd60e51b81526004016109849061498c565b61174186612f22565b60fc805461ffff92909216620100000263ffff000019909216919091179055611c63565b600287600981111561177957611779614976565b036117ed578015806117a1575060fc546117a19061169290600160201b900461ffff16612e85565b6117bd5760405162461bcd60e51b81526004016109849061498c565b6117c686612f22565b60fc805461ffff92909216600160201b0265ffff0000000019909216919091179055611c63565b600387600981111561180157611801614976565b0361187757801580611829575060fc546118299061169290600160301b900461ffff16612e85565b6118455760405162461bcd60e51b81526004016109849061498c565b61184e86612f22565b60fc805461ffff92909216600160301b0267ffff00000000000019909216919091179055611c63565b600487600981111561188b5761188b614976565b03611903578015806118b3575060fc546118b39061169290600160401b900461ffff16612e85565b6118cf5760405162461bcd60e51b81526004016109849061498c565b6118d886612f22565b60fc805461ffff92909216600160401b0269ffff000000000000000019909216919091179055611c63565b600587600981111561191757611917614976565b0361198a5780158061193f575060fc5461193f9061169290600160501b900461ffff16612e85565b61195b5760405162461bcd60e51b81526004016109849061498c565b61196486612f22565b60fc805461ffff92909216600160501b0261ffff60501b19909216919091179055611c63565b600687600981111561199e5761199e614976565b03611a11578015806119c6575060fc546119c69061169290600160601b900461ffff16612e85565b6119e25760405162461bcd60e51b81526004016109849061498c565b6119eb86612f22565b60fc805461ffff92909216600160601b0261ffff60601b19909216919091179055611c63565b6007876009811115611a2557611a25614976565b03611a8e57801580611a3d5750611a3d611692611c9b565b611a595760405162461bcd60e51b81526004016109849061498c565b611a64600287612f3c565b60fc805463ffffffff92909216600160701b0263ffffffff60701b19909216919091179055611c63565b6008876009811115611aa257611aa2614976565b03611c015760fd54861015611b135760405162461bcd60e51b815260206004820152603160248201527f43616e277420736574206578706f737572654c696d6974206c657373207468616044820152706e20616374697665206578706f7375726560781b6064820152608401610984565b801580611b265750611b26611692611220565b611b425760405162461bcd60e51b81526004016109849061498c565b611b4a611220565b86111580611b6a5750611b6a600080516020614d6b833981519152612d8e565b611bcc5760405162461bcd60e51b815260206004820152602d60248201527f547765616b2065786365656465643a20496e637265617365207265717569726560448201526c73204c4556454c315f524f4c4560981b6064820152608401610984565b611bd7600087612f3c565b60fc805463ffffffff92909216600160901b0263ffffffff60901b19909216919091179055611c63565b6009876009811115611c1557611c15614976565b03611c63578015611c385760405162461bcd60e51b81526004016109849061498c565b611c4186612fcf565b60fc805461ffff92909216600160b01b0261ffff60b01b199092169190911790555b61111c876009811115611c7857611c78614976565b611c83906008614927565b602d811115611c9457611c94614976565b8783613036565b60fc5460009061123e90600290600160701b900463ffffffff16612c8e565b611cfa6040518060e00160405280600081526020016000815260200160008152602001600081526020016000815260200160008152602001600081525090565b6040805160e0810190915260fc548190611d179061ffff16612e85565b815260fc54602090910190611d359062010000900461ffff16612e85565b815260fc54602090910190611d5490600160201b900461ffff16612e85565b815260fc54602090910190611d7390600160301b900461ffff16612e85565b815260fc54602090910190611d9290600160401b900461ffff16612e85565b815260fc54602090910190611db190600160501b900461ffff16612e85565b815260fc54602090910190611dd090600160601b900461ffff16612e85565b9052919050565b7f0df0a8869cf58168a14cd7ac426ff1b8c6ff5d5c800c6f44803f3431dcb3bad17f00000000000000000000000000000000000000000000000000000000000000006001600160a01b03166371907f176040518163ffffffff1660e01b8152600401602060405180830381865afa158015611e56573d6000803e3d6000fd5b505050506040513d601f19601f82011682018060405250810190611e7a9190614703565b6001600160a01b0316635ff57d2030833360006040518563ffffffff1660e01b8152600401611eac9493929190614720565b60006040518083038186803b158015611ec457600080fd5b505afa158015611ed8573d6000803e3d6000fd5b5050506001600160a01b0383169050611f495760405162461bcd60e51b815260206004820152602d60248201527f5269736b4d6f64756c653a2077616c6c65742063616e6e6f742062652074686560448201526c207a65726f206164647265737360981b6064820152608401610984565b60fe80546001600160a01b0319166001600160a01b038416908117909155610b30906012906000613036565b60007f00000000000000000000000000000000000000000000000000000000000000006001600160a01b031663e5a6b10f6040518163ffffffff1660e01b8152600401602060405180830381865afa158015611fd5573d6000803e3d6000fd5b505050506040513d601f19601f8201168201806040525081019061123e9190614703565b7f92a19c77d2ea87c7f81d50c74403cb2f401780f3ad919571121efe2bdb427eb17f00000000000000000000000000000000000000000000000000000000000000006001600160a01b03166371907f176040518163ffffffff1660e01b8152600401602060405180830381865afa158015612078573d6000803e3d6000fd5b505050506040513d601f19601f8201168201806040525081019061209c9190614703565b6001600160a01b0316635ff57d2030833360006040518563ffffffff1660e01b81526004016120ce9493929190614720565b60006040518083038186803b1580156120e657600080fd5b505afa1580156120fa573d6000803e3d6000fd5b50505050612106612c09565b60405160016259ff1d60e01b031981526001600160a01b037f0000000000000000000000000000000000000000000000000000000000000000169063ffa600e3906110ee90869086906004016149b4565b60006001600160e01b031982166301ffc9a760e01b148061077357506001600160e01b03198216634d15eb0360e01b1492915050565b816001600160a01b03811633148015906122a65750817f00000000000000000000000000000000000000000000000000000000000000006001600160a01b031663e5a6b10f6040518163ffffffff1660e01b8152600401602060405180830381865afa158015612201573d6000803e3d6000fd5b505050506040513d601f19601f820116820180604052508101906122259190614703565b6001600160a01b031663dd62ed3e83336040516001600160e01b031960e085901b1681526001600160a01b03928316600482015291166024820152604401602060405180830381865afa158015612280573d6000803e3d6000fd5b505050506040513d601f19601f820116820180604052508101906122a491906149d3565b105b1561077357339392505050565b6122bb6141ad565b6122c3612c09565b60001987036122da576122d7888787611243565b96505b8787106123295760405162461bcd60e51b815260206004820181905260248201527f5072656d69756d206d757374206265206c657373207468616e207061796f75746044820152606401610984565b4264ffffffffff808216908716116123835760405162461bcd60e51b815260206004820181905260248201527f45787069726174696f6e206d75737420626520696e20746865206675747572656044820152606401610984565b60fc54600160b01b900461ffff16610e1061239e83896149ec565b6123a89190614a27565b64ffffffffff16106123fc5760405162461bcd60e51b815260206004820152601b60248201527f506f6c6963792065786365656473206d6178206475726174696f6e00000000006044820152606401610984565b6001600160a01b0384166124525760405162461bcd60e51b815260206004820152601e60248201527f437573746f6d65722063616e2774206265207a65726f206164647265737300006044820152606401610984565b877f00000000000000000000000000000000000000000000000000000000000000006001600160a01b031663e5a6b10f6040518163ffffffff1660e01b8152600401602060405180830381865afa1580156124b1573d6000803e3d6000fd5b505050506040513d601f19601f820116820180604052508101906124d59190614703565b604051636eb1769f60e11b81526001600160a01b0388811660048301527f000000000000000000000000000000000000000000000000000000000000000081166024830152919091169063dd62ed3e90604401602060405180830381865afa158015612545573d6000803e3d6000fd5b505050506040513d601f19601f8201168201806040525081019061256991906149d3565b10156125cd5760405162461bcd60e51b815260206004820152602d60248201527f596f75206d75737420616c6c6f7720454e5355524f20746f207472616e73666560448201526c7220746865207072656d69756d60981b6064820152608401610984565b6001600160a01b0385163314806126e45750877f00000000000000000000000000000000000000000000000000000000000000006001600160a01b031663e5a6b10f6040518163ffffffff1660e01b8152600401602060405180830381865afa15801561263e573d6000803e3d6000fd5b505050506040513d601f19601f820116820180604052508101906126629190614703565b6001600160a01b031663dd62ed3e87336040516001600160e01b031960e085901b1681526001600160a01b03928316600482015291166024820152604401602060405180830381865afa1580156126bd573d6000803e3d6000fd5b505050506040513d601f19601f820116820180604052508101906126e191906149d3565b10155b6127485760405162461bcd60e51b815260206004820152602f60248201527f5061796572206d75737420616c6c6f772063616c6c657220746f207472616e7360448201526e66657220746865207072656d69756d60881b6064820152608401610984565b612750611c9b565b8911156127ba5760405162461bcd60e51b815260206004820152603260248201527f5269736b4d6f64756c653a205061796f7574206973206d6f7265207468616e206044820152716d6178696d756d2070657220706f6c69637960701b6064820152608401610984565b60006127d1306127c8611cba565b8b8d8c8c613097565b9050806020015160fd60008282546127e99190614927565b909155506127f79050611220565b60fd5411156128545760405162461bcd60e51b815260206004820152602360248201527f5269736b4d6f64756c653a204578706f73757265206c696d697420657863656560448201526219195960ea1b6064820152608401610984565b604051636769a76f60e01b81526000906001600160a01b037f00000000000000000000000000000000000000000000000000000000000000001690636769a76f906128a99085908b908b908b90600401614a4b565b6020604051808303816000875af11580156128c8573d6000803e3d6000fd5b505050506040513d601f19601f820116820180604052508101906128ec91906149d3565b8252509998505050505050505050565b600080516020614db2833981519152600080516020614d6b8339815191527f00000000000000000000000000000000000000000000000000000000000000006001600160a01b03166371907f176040518163ffffffff1660e01b8152600401602060405180830381865afa158015612978573d6000803e3d6000fd5b505050506040513d601f19601f8201168201806040525081019061299c9190614703565b6001600160a01b0316632b1cff1f3084843360016040518663ffffffff1660e01b81526004016129d09594939291906147e2565b60006040518083038186803b1580156129e857600080fd5b505afa1580156129fc573d6000803e3d6000fd5b50505050612a09836133a4565b505050565b7f4910fdfa16fed3260ed0e7147f7cc6da11a60208b5b9406d12a635614ffd91435460ff1615612a4157612a09836134a7565b826001600160a01b03166352d1902d6040518163ffffffff1660e01b8152600401602060405180830381865afa925050508015612a9b575060408051601f3d908101601f19168201909252612a98918101906149d3565b60015b612afe5760405162461bcd60e51b815260206004820152602e60248201527f45524331393637557067726164653a206e657720696d706c656d656e7461746960448201526d6f6e206973206e6f74205555505360901b6064820152608401610984565b600080516020614d4b8339815191528114612b6d5760405162461bcd60e51b815260206004820152602960248201527f45524331393637557067726164653a20756e737570706f727465642070726f786044820152681a58589b195555525160ba1b6064820152608401610984565b50612a09838383613543565b612b8161356e565b6097805460ff191690557f5db9ee0a495bf2e6ff9c91a7834c1ba4fdd244a5e8aa4e537bd38aeae4b073aa335b6040516001600160a01b03909116815260200160405180910390a1565b600054610100900460ff16612bf25760405162461bcd60e51b815260040161098490614a92565b612bfa6135b7565b61111c878787878787876135ee565b60975460ff1615612c4f5760405162461bcd60e51b815260206004820152601060248201526f14185d5cd8589b194e881c185d5cd95960821b6044820152606401610984565b565b612c59612c09565b6097805460ff191660011790557f62e78cea01bee320cd4e420270b5ea74000d11b0c9f74754ebdbfc544b05a258612bae3390565b600082612c99611f75565b6001600160a01b031663313ce5676040518163ffffffff1660e01b8152600401602060405180830381865afa158015612cd6573d6000803e3d6000fd5b505050506040513d601f19601f82011682018060405250810190612cfa9190614add565b612d049190614b00565b612d0f90600a614bfd565b6113d19063ffffffff841661493a565b600081156706f05b59d3b200001983900484111517612d3d57600080fd5b50670de0b6b3a764000091026706f05b59d3b20000010490565b60008115670de0b6b3a764000060028404190484111715612d7757600080fd5b50670de0b6b3a76400009190910260028204010490565b60007f00000000000000000000000000000000000000000000000000000000000000006001600160a01b03166371907f176040518163ffffffff1660e01b8152600401602060405180830381865afa158015612dee573d6000803e3d6000fd5b505050506040513d601f19601f82011682018060405250810190612e129190614703565b6001600160a01b031663b3efcbd230843360016040518563ffffffff1660e01b8152600401612e449493929190614720565b602060405180830381865afa158015612e61573d6000803e3d6000fd5b505050506040513d601f19601f820116820180604052508101906107739190614959565b6000610773655af3107a400061ffff841661493a565b6000828403612eac575060016113d1565b83600003612ec65750670de0b6b3a76400008110156113d1565b82600003612ed6575060006113d1565b82841015612f055781670de0b6b3a7640000612ef28587612d57565b612efc919061482b565b111590506113d1565b81612f108486612d57565b612efc90670de0b6b3a764000061482b565b6000610773612f37655af3107a400084614c0c565b612fcf565b60006113d183612f4a611f75565b6001600160a01b031663313ce5676040518163ffffffff1660e01b8152600401602060405180830381865afa158015612f87573d6000803e3d6000fd5b505050506040513d601f19601f82011682018060405250810190612fab9190614add565b612fb59190614b00565b612fc090600a614bfd565b612fca9084614c0c565b6137fc565b600061ffff8211156130325760405162461bcd60e51b815260206004820152602660248201527f53616665436173743a2076616c756520646f65736e27742066697420696e203160448201526536206269747360d01b6064820152608401610984565b5090565b61303e613861565b801561304d5761304d83613d5a565b82602d81111561305f5761305f614976565b6040518381527f7bc647fe5043209e2019aa3503b79c1b0dd83eb61c56013d373a7584ff6bfb139060200160405180910390a2505050565b61309f6141ad565b838511156130fa5760405162461bcd60e51b815260206004820152602260248201527f5072656d69756d2063616e6e6f74206265206d6f7265207468616e207061796f6044820152611d5d60f21b6064820152608401610984565b6131026141ad565b6001600160a01b038816610160820152604081018690526020810185905260a0810184905264ffffffffff42811661018083015283166101a082015286516131569061314f908690612d1f565b8690612d1f565b60c0820152602087015161316b908690612d1f565b6060820181905260c0820151101561319b578060c0015181606001818151613193919061482b565b9052506131a3565b600060608201525b60408701516131b3908690612d1f565b6080820152606081015160c08201516131cc9190614927565b816080015111156132045780606001518160c001516131eb9190614927565b816080018181516131fc919061482b565b90525061320c565b600060808201525b6132556301e13380826101800151836101a0015161322a91906149ec565b64ffffffffff168960a00151613240919061493a565b61324a9190614c0c565b606083015190612d1f565b6101208201526101808101516101a08201516132a6916301e133809161327b91906149ec565b64ffffffffff168960c00151613291919061493a565b61329b9190614c0c565b608083015190612d1f565b61014082018190526101208201516000916132c091614927565b90506132d9886080015182612d1f90919063ffffffff16565b606089015160c08401516132ec91612d1f565b6132f69190614927565b60e0830181905260c0830151889183916133109190614927565b61331a9190614927565b11156133685760405162461bcd60e51b815260206004820152601960248201527f5072656d69756d206c657373207468616e206d696e696d756d000000000000006044820152606401610984565b8160e00151818360c001518961337e919061482b565b613388919061482b565b613392919061482b565b61010083015250979650505050505050565b6133ad81613ec6565b60008190507f00000000000000000000000000000000000000000000000000000000000000006001600160a01b0316816001600160a01b03166373a952e86040518163ffffffff1660e01b8152600401602060405180830381865afa15801561341a573d6000803e3d6000fd5b505050506040513d601f19601f8201168201806040525081019061343e9190614703565b6001600160a01b031614610b305760405162461bcd60e51b815260206004820152602a60248201527f43616e27742075706772616465206368616e67696e6720746865205072656d696044820152691d5b5cd058d8dbdd5b9d60b21b6064820152608401610984565b6001600160a01b0381163b6135145760405162461bcd60e51b815260206004820152602d60248201527f455243313936373a206e657720696d706c656d656e746174696f6e206973206e60448201526c1bdd08184818dbdb9d1c9858dd609a1b6064820152608401610984565b600080516020614d4b83398151915280546001600160a01b0319166001600160a01b0392909216919091179055565b61354c83613fb7565b6000825111806135595750805b15612a09576135688383613ff7565b50505050565b60975460ff16612c4f5760405162461bcd60e51b815260206004820152601460248201527314185d5cd8589b194e881b9bdd081c185d5cd95960621b6044820152606401610984565b600054610100900460ff166135de5760405162461bcd60e51b815260040161098490614a92565b6135e66140eb565b612c4f614112565b600054610100900460ff166136155760405162461bcd60e51b815260040161098490614a92565b60fb6136218882614c6e565b50604080516101408101825261271081526000602082015290810161364588612f22565b61ffff16815260200161365787612f22565b61ffff168152600060208201819052604082015260600161367786612f22565b61ffff16815260200161368b600286612f3c565b63ffffffff1681526020016136a1600085612f3c565b63ffffffff9081168252612238602092830152825160fc80549385015160408601516060870151608088015160a089015160c08a015160e08b01516101008c0151610120909c015161ffff998a1663ffffffff19909c169b909b1762010000978a16979097029690961767ffffffff000000001916600160201b9589169590950267ffff000000000000191694909417600160301b93881693909302929092176bffffffff00000000000000001916600160401b9187169190910261ffff60501b191617600160501b918616919091021765ffffffffffff60601b1916600160601b9185169190910263ffffffff60701b191617600160701b918516919091021765ffffffffffff60901b1916600160901b959093169490940261ffff60b01b191691909117600160b01b9190921602179055600060fd5560fe80546001600160a01b0319166001600160a01b03831617905561111c613861565b600063ffffffff8211156130325760405162461bcd60e51b815260206004820152602660248201527f53616665436173743a2076616c756520646f65736e27742066697420696e203360448201526532206269747360d01b6064820152608401610984565b60fc546127106201000090910461ffff1611156138cc5760405162461bcd60e51b815260206004820152602360248201527f56616c69646174696f6e3a206a72436f6c6c526174696f206d757374206265206044820152623c3d3160e81b6064820152608401610984565b60fc54612710600160201b90910461ffff16118015906138f8575060fc54600160201b900461ffff1615155b61394e5760405162461bcd60e51b815260206004820152602160248201527f56616c69646174696f6e3a20636f6c6c526174696f206d757374206265203c3d6044820152603160f81b6064820152608401610984565b60fc5461ffff6201000082048116600160201b9092041610156139bf5760405162461bcd60e51b8152602060048201526024808201527f56616c69646174696f6e3a20636f6c6c526174696f203e3d206a72436f6c6c526044820152636174696f60e01b6064820152608401610984565b60fc54619c4061ffff909116118015906139e3575060fc5461138861ffff90911610155b613a2f5760405162461bcd60e51b815260206004820181905260248201527f56616c69646174696f6e3a206d6f63206d757374206265205b302e352c20345d6044820152606401610984565b60fc54612710600160301b90910461ffff161115613a9b5760405162461bcd60e51b8152602060048201526024808201527f56616c69646174696f6e3a20656e7375726f5070466565206d757374206265206044820152633c3d203160e01b6064820152608401610984565b60fc54612710600160401b90910461ffff161115613b095760405162461bcd60e51b815260206004820152602560248201527f56616c69646174696f6e3a20656e7375726f436f63466565206d757374206265604482015264203c3d203160d81b6064820152608401610984565b60fc54612710600160601b90910461ffff161115613b775760405162461bcd60e51b815260206004820152602560248201527f56616c69646174696f6e3a207372526f63206d757374206265203c3d20312028604482015264313030252960d81b6064820152608401610984565b60fc54612710600160501b90910461ffff161115613be55760405162461bcd60e51b815260206004820152602560248201527f56616c69646174696f6e3a206a72526f63206d757374206265203c3d20312028604482015264313030252960d81b6064820152608401610984565b60fd54613bf0611220565b1015613c6f5760405162461bcd60e51b815260206004820152604260248201527f56616c69646174696f6e3a206578706f737572654c696d69742063616e27742060448201527f6265206c657373207468616e2061637475616c206163746976654578706f7375606482015261726560f01b608482015260a401610984565b60fc54600160901b900463ffffffff1615801590613c9b575060fc54600160701b900463ffffffff1615155b613cf15760405162461bcd60e51b815260206004820152602160248201527f4578706f7375726520616e64204d61785061796f7574206d757374206265203e6044820152600360fc1b6064820152608401610984565b60fe546001600160a01b0316612c4f5760405162461bcd60e51b815260206004820152602860248201527f56616c69646174696f6e3a2057616c6c65742063616e2774206265207a65726f604482015267206164647265737360c01b6064820152608401610984565b6000600182602d811115613d7057613d70614976565b613d7a9190614b00565b60c954600160ff929092169190911b91506201518090613da19064ffffffffff16426149ec565b64ffffffffff161115613de35760c9805466ffffffffffffff8316600160281b026bffffffffffffffffffffffff1990911664ffffffffff4216171790555050565b60c954600160281b9004811666ffffffffffffff16600003613e485760c9805464ffffffffff421664ffffffffff1966ffffffffffffff808616600160281b808604929092161702166bffffffffffffffffffffffff19909216919091171790555050565b60405162461bcd60e51b815260206004820152604760248201527f596f7520616c726561647920747765616b6564207468697320706172616d657460448201527f657220726563656e746c792e2057616974206265666f726520747765616b696e606482015266339030b3b0b4b760c91b608482015260a401610984565b7f00000000000000000000000000000000000000000000000000000000000000006001600160a01b0316816001600160a01b0316634d15eb036040518163ffffffff1660e01b8152600401602060405180830381865afa158015613f2e573d6000803e3d6000fd5b505050506040513d601f19601f82011682018060405250810190613f529190614703565b6001600160a01b031614610a215760405162461bcd60e51b815260206004820152602660248201527f43616e27742075706772616465206368616e67696e672074686520506f6c696360448201526579506f6f6c2160d01b6064820152608401610984565b613fc0816134a7565b6040516001600160a01b038216907fbc7cd75a20ee27fd9adebab32041f755214dbc6bffa90cc0225b39da2e5c2d3b90600090a250565b60606001600160a01b0383163b61405f5760405162461bcd60e51b815260206004820152602660248201527f416464726573733a2064656c65676174652063616c6c20746f206e6f6e2d636f6044820152651b9d1c9858dd60d21b6064820152608401610984565b600080846001600160a01b03168460405161407a9190614d2e565b600060405180830381855af49150503d80600081146140b5576040519150601f19603f3d011682016040523d82523d6000602084013e6140ba565b606091505b50915091506140e28282604051806060016040528060278152602001614d8b60279139614141565b95945050505050565b600054610100900460ff16612c4f5760405162461bcd60e51b815260040161098490614a92565b600054610100900460ff166141395760405162461bcd60e51b815260040161098490614a92565b612c4f61417a565b606083156141505750816113d1565b8251156141605782518084602001fd5b8160405162461bcd60e51b81526004016109849190614281565b600054610100900460ff166141a15760405162461bcd60e51b815260040161098490614a92565b6097805460ff19169055565b604051806101c00160405280600081526020016000815260200160008152602001600081526020016000815260200160008152602001600081526020016000815260200160008152602001600081526020016000815260200160006001600160a01b03168152602001600064ffffffffff168152602001600064ffffffffff1681525090565b60006020828403121561424557600080fd5b81356001600160e01b0319811681146113d157600080fd5b60005b83811015614278578181015183820152602001614260565b50506000910152565b60208152600082518060208401526142a081604085016020870161425d565b601f01601f19169190910160400192915050565b803564ffffffffff811681146142c957600080fd5b919050565b6001600160a01b0381168114610a2157600080fd5b60008060008060008060c087890312156142fc57600080fd5b86359550602087013594506040870135935061431a606088016142b4565b9250608087013561432a816142ce565b915060a08701356bffffffffffffffffffffffff8116811461434b57600080fd5b809150509295509295509295565b805182526020810151602083015260408101516040830152606081015160608301526080810151608083015260a081015160a083015260c081015160c083015260e081015160e0830152610100808201518184015250610120808201518184015250610140808201518184015250610160808201516143e2828501826001600160a01b03169052565b50506101808181015164ffffffffff81168483015250506101a08181015164ffffffffff811684830152613568565b6101c081016107738284614359565b60006020828403121561443257600080fd5b81356113d1816142ce565b634e487b7160e01b600052604160045260246000fd5b600067ffffffffffffffff8084111561446e5761446e61443d565b604051601f8501601f19908116603f011681019082821181831017156144965761449661443d565b816040528093508581528686860111156144af57600080fd5b858560208301376000602087830101525050509392505050565b600080604083850312156144dc57600080fd5b82356144e7816142ce565b9150602083013567ffffffffffffffff81111561450357600080fd5b8301601f8101851361451457600080fd5b61452385823560208401614453565b9150509250929050565b60006020828403121561453f57600080fd5b5035919050565b600080600080600080600060e0888a03121561456157600080fd5b873567ffffffffffffffff81111561457857600080fd5b8801601f81018a1361458957600080fd5b6145988a823560208401614453565b9750506020880135955060408801359450606088013593506080880135925060a0880135915060c08801356145cc816142ce565b8091505092959891949750929550565b60006101c082840312156145ef57600080fd5b50919050565b6000806101e0838503121561460957600080fd5b61461384846145dc565b946101c0939093013593505050565b60008060006060848603121561463757600080fd5b833592506020840135915061464e604085016142b4565b90509250925092565b6000806040838503121561466a57600080fd5b8235600a811061467957600080fd5b946020939093013593505050565b8015158114610a2157600080fd5b6000806101e083850312156146a957600080fd5b6146b384846145dc565b91506101c08301356146c481614687565b809150509250929050565b600181811c908216806146e357607f821691505b6020821081036145ef57634e487b7160e01b600052602260045260246000fd5b60006020828403121561471557600080fd5b81516113d1816142ce565b6001600160a01b039485168152602081019390935292166040820152901515606082015260800190565b6020808252602c908201527f46756e6374696f6e206d7573742062652063616c6c6564207468726f7567682060408201526b19195b1959d85d1958d85b1b60a21b606082015260800190565b6020808252602c908201527f46756e6374696f6e206d7573742062652063616c6c6564207468726f7567682060408201526b6163746976652070726f787960a01b606082015260800190565b6001600160a01b039586168152602081019490945260408401929092529092166060820152901515608082015260a00190565b634e487b7160e01b600052601160045260246000fd5b8181038181111561077357610773614815565b80356142c9816142ce565b803582526020810135602083015260408101356040830152606081013560608301526080810135608083015260a081013560a083015260c081013560c083015260e081013560e08301526101008082013581840152506101208082013581840152506101408082013581840152506101606148c581830161483e565b6001600160a01b0316908301526101806148e08282016142b4565b64ffffffffff16908301526101a06148f98282016142b4565b64ffffffffff811684830152613568565b6101e081016149198285614849565b826101c08301529392505050565b8082018082111561077357610773614815565b600081600019048311821515161561495457614954614815565b500290565b60006020828403121561496b57600080fd5b81516113d181614687565b634e487b7160e01b600052602160045260246000fd5b6020808252600e908201526d151dd9585ac8195e18d95959195960921b604082015260600190565b6101e081016149c38285614849565b8215156101c08301529392505050565b6000602082840312156149e557600080fd5b5051919050565b64ffffffffff828116828216039080821115614a0a57614a0a614815565b5092915050565b634e487b7160e01b600052601260045260246000fd5b600064ffffffffff80841680614a3f57614a3f614a11565b92169190910492915050565b6102208101614a5a8287614359565b6001600160a01b039485166101c0830152929093166101e08401526bffffffffffffffffffffffff1661020090920191909152919050565b6020808252602b908201527f496e697469616c697a61626c653a20636f6e7472616374206973206e6f74206960408201526a6e697469616c697a696e6760a81b606082015260800190565b600060208284031215614aef57600080fd5b815160ff811681146113d157600080fd5b60ff828116828216039081111561077357610773614815565b600181815b80851115614b54578160001904821115614b3a57614b3a614815565b80851615614b4757918102915b93841c9390800290614b1e565b509250929050565b600082614b6b57506001610773565b81614b7857506000610773565b8160018114614b8e5760028114614b9857614bb4565b6001915050610773565b60ff841115614ba957614ba9614815565b50506001821b610773565b5060208310610133831016604e8410600b8410161715614bd7575081810a610773565b614be18383614b19565b8060001904821115614bf557614bf5614815565b029392505050565b60006113d160ff841683614b5c565b600082614c1b57614c1b614a11565b500490565b601f821115612a0957600081815260208120601f850160051c81016020861015614c475750805b601f850160051c820191505b81811015614c6657828155600101614c53565b505050505050565b815167ffffffffffffffff811115614c8857614c8861443d565b614c9c81614c9684546146cf565b84614c20565b602080601f831160018114614cd15760008415614cb95750858301515b600019600386901b1c1916600185901b178555614c66565b600085815260208120601f198616915b82811015614d0057888601518255948401946001909101908401614ce1565b5085821015614d1e5787850151600019600388901b60f8161c191681555b5050505050600190811b01905550565b60008251614d4081846020870161425d565b919091019291505056fe360894a13ba1a3210667c828492db98dca3e2076cc3735a920a3ca505d382bbcbf372ca3ebecfe59ac256f17697941bbe63302aced610e8b0e3646f743c7beb2416464726573733a206c6f772d6c6576656c2064656c65676174652063616c6c206661696c656455435dd261a4b9b3364963f7738a7a662ad9c84396d64be3365284bb7f0a5041a2646970667358221220f1658b0f95a055ae25140dbfa76d58956ced744933c5d768f4383ef218c16d1c64736f6c63430008100033",
  "linkReferences": {},
  "deployedLinkReferences": {}
}