{
  "_format": "hh-sol-artifact-1",
  "contractName": "AccessManager",
  "sourceName": "contracts/AccessManager.sol",
  "abi": [
    {
      "inputs": [],
      "stateMutability": "nonpayable",
      "type": "constructor"
    },
    {
      "anonymous": false,
      "inputs": [
        {
          "indexed": false,
          "internalType": "address",
          "name": "previousAdmin",
          "type": "address"
        },
        {
          "indexed": false,
          "internalType": "address",
          "name": "newAdmin",
          "type": "address"
        }
      ],
      "name": "AdminChanged",
      "type": "event"
    },
    {
      "anonymous": false,
      "inputs": [
        {
          "indexed": true,
          "internalType": "address",
          "name": "beacon",
          "type": "address"
        }
      ],
      "name": "BeaconUpgraded",
      "type": "event"
    },
    {
      "anonymous": false,
      "inputs": [
        {
          "indexed": false,
          "internalType": "uint8",
          "name": "version",
          "type": "uint8"
        }
      ],
      "name": "Initialized",
      "type": "event"
    },
    {
      "anonymous": false,
      "inputs": [
        {
          "indexed": true,
          "internalType": "bytes32",
          "name": "role",
          "type": "bytes32"
        },
        {
          "indexed": true,
          "internalType": "bytes32",
          "name": "previousAdminRole",
          "type": "bytes32"
        },
        {
          "indexed": true,
          "internalType": "bytes32",
          "name": "newAdminRole",
          "type": "bytes32"
        }
      ],
      "name": "RoleAdminChanged",
      "type": "event"
    },
    {
      "anonymous": false,
      "inputs": [
        {
          "indexed": true,
          "internalType": "bytes32",
          "name": "role",
          "type": "bytes32"
        },
        {
          "indexed": true,
          "internalType": "address",
          "name": "account",
          "type": "address"
        },
        {
          "indexed": true,
          "internalType": "address",
          "name": "sender",
          "type": "address"
        }
      ],
      "name": "RoleGranted",
      "type": "event"
    },
    {
      "anonymous": false,
      "inputs": [
        {
          "indexed": true,
          "internalType": "bytes32",
          "name": "role",
          "type": "bytes32"
        },
        {
          "indexed": true,
          "internalType": "address",
          "name": "account",
          "type": "address"
        },
        {
          "indexed": true,
          "internalType": "address",
          "name": "sender",
          "type": "address"
        }
      ],
      "name": "RoleRevoked",
      "type": "event"
    },
    {
      "anonymous": false,
      "inputs": [
        {
          "indexed": true,
          "internalType": "address",
          "name": "implementation",
          "type": "address"
        }
      ],
      "name": "Upgraded",
      "type": "event"
    },
    {
      "inputs": [],
      "name": "DEFAULT_ADMIN_ROLE",
      "outputs": [
        {
          "internalType": "bytes32",
          "name": "",
          "type": "bytes32"
        }
      ],
      "stateMutability": "view",
      "type": "function"
    },
    {
      "inputs": [],
      "name": "GUARDIAN_ROLE",
      "outputs": [
        {
          "internalType": "bytes32",
          "name": "",
          "type": "bytes32"
        }
      ],
      "stateMutability": "view",
      "type": "function"
    },
    {
      "inputs": [],
      "name": "LEVEL1_ROLE",
      "outputs": [
        {
          "internalType": "bytes32",
          "name": "",
          "type": "bytes32"
        }
      ],
      "stateMutability": "view",
      "type": "function"
    },
    {
      "inputs": [],
      "name": "LEVEL2_ROLE",
      "outputs": [
        {
          "internalType": "bytes32",
          "name": "",
          "type": "bytes32"
        }
      ],
      "stateMutability": "view",
      "type": "function"
    },
    {
      "inputs": [],
      "name": "LEVEL3_ROLE",
      "outputs": [
        {
          "internalType": "bytes32",
          "name": "",
          "type": "bytes32"
        }
      ],
      "stateMutability": "view",
      "type": "function"
    },
    {
      "inputs": [
        {
          "internalType": "address",
          "name": "component",
          "type": "address"
        },
        {
          "internalType": "bytes32",
          "name": "role",
          "type": "bytes32"
        },
        {
          "internalType": "address",
          "name": "account",
          "type": "address"
        },
        {
          "internalType": "bool",
          "name": "alsoGlobal",
          "type": "bool"
        }
      ],
      "name": "checkComponentRole",
      "outputs": [],
      "stateMutability": "view",
      "type": "function"
    },
    {
      "inputs": [
        {
          "internalType": "address",
          "name": "component",
          "type": "address"
        },
        {
          "internalType": "bytes32",
          "name": "role1",
          "type": "bytes32"
        },
        {
          "internalType": "bytes32",
          "name": "role2",
          "type": "bytes32"
        },
        {
          "internalType": "address",
          "name": "account",
          "type": "address"
        },
        {
          "internalType": "bool",
          "name": "alsoGlobal",
          "type": "bool"
        }
      ],
      "name": "checkComponentRole2",
      "outputs": [],
      "stateMutability": "view",
      "type": "function"
    },
    {
      "inputs": [
        {
          "internalType": "bytes32",
          "name": "role",
          "type": "bytes32"
        },
        {
          "internalType": "address",
          "name": "account",
          "type": "address"
        }
      ],
      "name": "checkRole",
      "outputs": [],
      "stateMutability": "view",
      "type": "function"
    },
    {
      "inputs": [
        {
          "internalType": "bytes32",
          "name": "role1",
          "type": "bytes32"
        },
        {
          "internalType": "bytes32",
          "name": "role2",
          "type": "bytes32"
        },
        {
          "internalType": "address",
          "name": "account",
          "type": "address"
        }
      ],
      "name": "checkRole2",
      "outputs": [],
      "stateMutability": "view",
      "type": "function"
    },
    {
      "inputs": [
        {
          "internalType": "address",
          "name": "component",
          "type": "address"
        },
        {
          "internalType": "bytes32",
          "name": "role",
          "type": "bytes32"
        }
      ],
      "name": "getComponentRole",
      "outputs": [
        {
          "internalType": "bytes32",
          "name": "",
          "type": "bytes32"
        }
      ],
      "stateMutability": "pure",
      "type": "function"
    },
    {
      "inputs": [
        {
          "internalType": "bytes32",
          "name": "role",
          "type": "bytes32"
        }
      ],
      "name": "getRoleAdmin",
      "outputs": [
        {
          "internalType": "bytes32",
          "name": "",
          "type": "bytes32"
        }
      ],
      "stateMutability": "view",
      "type": "function"
    },
    {
      "inputs": [
        {
          "internalType": "address",
          "name": "component",
          "type": "address"
        },
        {
          "internalType": "bytes32",
          "name": "role",
          "type": "bytes32"
        },
        {
          "internalType": "address",
          "name": "account",
          "type": "address"
        }
      ],
      "name": "grantComponentRole",
      "outputs": [],
      "stateMutability": "nonpayable",
      "type": "function"
    },
    {
      "inputs": [
        {
          "internalType": "bytes32",
          "name": "role",
          "type": "bytes32"
        },
        {
          "internalType": "address",
          "name": "account",
          "type": "address"
        }
      ],
      "name": "grantRole",
      "outputs": [],
      "stateMutability": "nonpayable",
      "type": "function"
    },
    {
      "inputs": [
        {
          "internalType": "address",
          "name": "component",
          "type": "address"
        },
        {
          "internalType": "bytes32",
          "name": "role",
          "type": "bytes32"
        },
        {
          "internalType": "address",
          "name": "account",
          "type": "address"
        },
        {
          "internalType": "bool",
          "name": "alsoGlobal",
          "type": "bool"
        }
      ],
      "name": "hasComponentRole",
      "outputs": [
        {
          "internalType": "bool",
          "name": "",
          "type": "bool"
        }
      ],
      "stateMutability": "view",
      "type": "function"
    },
    {
      "inputs": [
        {
          "internalType": "bytes32",
          "name": "role",
          "type": "bytes32"
        },
        {
          "internalType": "address",
          "name": "account",
          "type": "address"
        }
      ],
      "name": "hasRole",
      "outputs": [
        {
          "internalType": "bool",
          "name": "",
          "type": "bool"
        }
      ],
      "stateMutability": "view",
      "type": "function"
    },
    {
      "inputs": [],
      "name": "initialize",
      "outputs": [],
      "stateMutability": "nonpayable",
      "type": "function"
    },
    {
      "inputs": [],
      "name": "proxiableUUID",
      "outputs": [
        {
          "internalType": "bytes32",
          "name": "",
          "type": "bytes32"
        }
      ],
      "stateMutability": "view",
      "type": "function"
    },
    {
      "inputs": [
        {
          "internalType": "bytes32",
          "name": "role",
          "type": "bytes32"
        },
        {
          "internalType": "address",
          "name": "account",
          "type": "address"
        }
      ],
      "name": "renounceRole",
      "outputs": [],
      "stateMutability": "nonpayable",
      "type": "function"
    },
    {
      "inputs": [
        {
          "internalType": "bytes32",
          "name": "role",
          "type": "bytes32"
        },
        {
          "internalType": "address",
          "name": "account",
          "type": "address"
        }
      ],
      "name": "revokeRole",
      "outputs": [],
      "stateMutability": "nonpayable",
      "type": "function"
    },
    {
      "inputs": [
        {
          "internalType": "bytes4",
          "name": "interfaceId",
          "type": "bytes4"
        }
      ],
      "name": "supportsInterface",
      "outputs": [
        {
          "internalType": "bool",
          "name": "",
          "type": "bool"
        }
      ],
      "stateMutability": "view",
      "type": "function"
    },
    {
      "inputs": [
        {
          "internalType": "address",
          "name": "newImplementation",
          "type": "address"
        }
      ],
      "name": "upgradeTo",
      "outputs": [],
      "stateMutability": "nonpayable",
      "type": "function"
    },
    {
      "inputs": [
        {
          "internalType": "address",
          "name": "newImplementation",
          "type": "address"
        },
        {
          "internalType": "bytes",
          "name": "data",
          "type": "bytes"
        }
      ],
      "name": "upgradeToAndCall",
      "outputs": [],
      "stateMutability": "payable",
      "type": "function"
    }
  ],
  "bytecode": "0x60a06040523060805234801561001457600080fd5b5061001d610022565b6100e2565b600054610100900460ff161561008e5760405162461bcd60e51b815260206004820152602760248201527f496e697469616c697a61626c653a20636f6e747261637420697320696e697469604482015266616c697a696e6760c81b606482015260840160405180910390fd5b60005460ff90811610156100e0576000805460ff191660ff9081179091556040519081527f7f26b83ff96e1f2b6a682f133852f6798a09c465da95921460cefb38474024989060200160405180910390a15b565b6080516117326101196000396000818161059b015281816105db01528181610693015281816106d3015261076201526117326000f3fe6080604052600436106101355760003560e01c806352d1902d116100ab578063a217fddf1161006f578063a217fddf14610388578063b3efcbd21461039d578063c5b8f5cf146103bd578063d547741f146103dd578063f67b2bad146103fd578063f6a421fc1461043157600080fd5b806352d1902d146102ea5780635b494dd5146102ff5780635ff57d20146103335780638129fc1c1461035357806391d148541461036857600080fd5b80632f2ff15d116100fd5780632f2ff15d1461022357806336568abe146102435780633659cfe614610263578063374c96c8146102835780634a47a3e0146102a35780634f1ef286146102d757600080fd5b806301ffc9a71461013a57806312d9a6ad1461016f578063248a9ca31461019157806324ea54f4146101cf5780632b1cff1f14610203575b600080fd5b34801561014657600080fd5b5061015a610155366004611198565b610451565b60405190151581526020015b60405180910390f35b34801561017b57600080fd5b5061018f61018a3660046111de565b61047d565b005b34801561019d57600080fd5b506101c16101ac36600461120a565b60009081526065602052604090206001015490565b604051908152602001610166565b3480156101db57600080fd5b506101c17f55435dd261a4b9b3364963f7738a7a662ad9c84396d64be3365284bb7f0a504181565b34801561020f57600080fd5b5061018f61021e366004611233565b61048b565b34801561022f57600080fd5b5061018f61023e3660046111de565b6104e8565b34801561024f57600080fd5b5061018f61025e3660046111de565b610512565b34801561026f57600080fd5b5061018f61027e36600461128a565b610591565b34801561028f57600080fd5b506101c161029e3660046112a5565b610670565b3480156102af57600080fd5b506101c17fa82e22387fca439f316d78ca566f383218ab8ae1b3e830178c9c82cbd16749c081565b61018f6102e53660046112e5565b610689565b3480156102f657600080fd5b506101c1610755565b34801561030b57600080fd5b506101c17f5ec196419322369c6bac572d883f4d990ae5ec82f7d93cdf89b85dbb05b63c2781565b34801561033f57600080fd5b5061018f61034e3660046113a7565b610808565b34801561035f57600080fd5b5061018f610834565b34801561037457600080fd5b5061015a6103833660046111de565b610954565b34801561039457600080fd5b506101c1600081565b3480156103a957600080fd5b5061015a6103b83660046113a7565b61097f565b3480156103c957600080fd5b5061018f6103d83660046113f4565b6109b5565b3480156103e957600080fd5b5061018f6103f83660046111de565b6109cd565b34801561040957600080fd5b506101c17fbf372ca3ebecfe59ac256f17697941bbe63302aced610e8b0e3646f743c7beb281565b34801561043d57600080fd5b5061018f61044c366004611429565b6109f2565b600061045c82610a1b565b8061047757506001600160e01b0319821663272b8c4760e01b145b92915050565b6104878282610a50565b5050565b80801561049d575061049d8483610954565b6104e1576104b46104ae8686610670565b83610954565b6104e1578080156104ca57506104ca8383610954565b6104e1576104e16104db8685610670565b83610a50565b5050505050565b60008281526065602052604090206001015461050381610ab4565b61050d8383610abe565b505050565b6001600160a01b03811633146105875760405162461bcd60e51b815260206004820152602f60248201527f416363657373436f6e74726f6c3a2063616e206f6e6c792072656e6f756e636560448201526e103937b632b9903337b91039b2b63360891b60648201526084015b60405180910390fd5b6104878282610b44565b6001600160a01b037f00000000000000000000000000000000000000000000000000000000000000001630036105d95760405162461bcd60e51b815260040161057e9061145c565b7f00000000000000000000000000000000000000000000000000000000000000006001600160a01b03166106226000805160206116b6833981519152546001600160a01b031690565b6001600160a01b0316146106485760405162461bcd60e51b815260040161057e906114a8565b61065181610bab565b6040805160008082526020820190925261066d91839190610c05565b50565b60609190911b6bffffffffffffffffffffffff19161890565b6001600160a01b037f00000000000000000000000000000000000000000000000000000000000000001630036106d15760405162461bcd60e51b815260040161057e9061145c565b7f00000000000000000000000000000000000000000000000000000000000000006001600160a01b031661071a6000805160206116b6833981519152546001600160a01b031690565b6001600160a01b0316146107405760405162461bcd60e51b815260040161057e906114a8565b61074982610bab565b61048782826001610c05565b6000306001600160a01b037f000000000000000000000000000000000000000000000000000000000000000016146107f55760405162461bcd60e51b815260206004820152603860248201527f555550535570677261646561626c653a206d757374206e6f742062652063616c60448201527f6c6564207468726f7567682064656c656761746563616c6c0000000000000000606482015260840161057e565b506000805160206116b683398151915290565b80158061081c575061081a8383610954565b155b1561082e5761082e6104db8585610670565b50505050565b600054610100900460ff16158080156108545750600054600160ff909116105b8061086e5750303b15801561086e575060005460ff166001145b6108d15760405162461bcd60e51b815260206004820152602e60248201527f496e697469616c697a61626c653a20636f6e747261637420697320616c72656160448201526d191e481a5b9a5d1a585b1a5e995960921b606482015260840161057e565b6000805460ff1916600117905580156108f4576000805461ff0019166101001790555b6108fc610d70565b610904610d70565b61090c610d99565b801561066d576000805461ff0019169055604051600181527f7f26b83ff96e1f2b6a682f133852f6798a09c465da95921460cefb38474024989060200160405180910390a150565b60009182526065602090815260408084206001600160a01b0393909316845291905290205460ff1690565b600081801561099357506109938484610954565b806109ac57506109ac6109a68686610670565b84610954565b95945050505050565b6109bf8382610954565b61050d5761050d8282610a50565b6000828152606560205260409020600101546109e881610ab4565b61050d8383610b44565b6109ff6101ac8484610670565b610a0881610ab4565b61082e610a158585610670565b83610abe565b60006001600160e01b03198216637965db0b60e01b148061047757506301ffc9a760e01b6001600160e01b0319831614610477565b610a5a8282610954565b61048757610a72816001600160a01b03166014610dcb565b610a7d836020610dcb565b604051602001610a8e929190611518565b60408051601f198184030181529082905262461bcd60e51b825261057e9160040161158d565b61066d8133610a50565b610ac88282610954565b6104875760008281526065602090815260408083206001600160a01b03851684529091529020805460ff19166001179055610b003390565b6001600160a01b0316816001600160a01b0316837f2f8788117e7eff1d82e926ec794901d17c78024a50270940304540a733656f0d60405160405180910390a45050565b610b4e8282610954565b156104875760008281526065602090815260408083206001600160a01b0385168085529252808320805460ff1916905551339285917ff6391f5c32d9c69d2a47ea670b442974b53935d1edc7fd64eb21e047a839171b9190a45050565b7f55435dd261a4b9b3364963f7738a7a662ad9c84396d64be3365284bb7f0a50417fbf372ca3ebecfe59ac256f17697941bbe63302aced610e8b0e3646f743c7beb2610bf78233610954565b61050d5761050d8133610a50565b7f4910fdfa16fed3260ed0e7147f7cc6da11a60208b5b9406d12a635614ffd91435460ff1615610c385761050d83610f6e565b826001600160a01b03166352d1902d6040518163ffffffff1660e01b8152600401602060405180830381865afa925050508015610c92575060408051601f3d908101601f19168201909252610c8f918101906115c0565b60015b610cf55760405162461bcd60e51b815260206004820152602e60248201527f45524331393637557067726164653a206e657720696d706c656d656e7461746960448201526d6f6e206973206e6f74205555505360901b606482015260840161057e565b6000805160206116b68339815191528114610d645760405162461bcd60e51b815260206004820152602960248201527f45524331393637557067726164653a20756e737570706f727465642070726f786044820152681a58589b195555525160ba1b606482015260840161057e565b5061050d83838361100a565b600054610100900460ff16610d975760405162461bcd60e51b815260040161057e906115d9565b565b600054610100900460ff16610dc05760405162461bcd60e51b815260040161057e906115d9565b610d9760003361102f565b60606000610dda83600261163a565b610de5906002611659565b67ffffffffffffffff811115610dfd57610dfd6112cf565b6040519080825280601f01601f191660200182016040528015610e27576020820181803683370190505b509050600360fc1b81600081518110610e4257610e4261166c565b60200101906001600160f81b031916908160001a905350600f60fb1b81600181518110610e7157610e7161166c565b60200101906001600160f81b031916908160001a9053506000610e9584600261163a565b610ea0906001611659565b90505b6001811115610f18576f181899199a1a9b1b9c1cb0b131b232b360811b85600f1660108110610ed457610ed461166c565b1a60f81b828281518110610eea57610eea61166c565b60200101906001600160f81b031916908160001a90535060049490941c93610f1181611682565b9050610ea3565b508315610f675760405162461bcd60e51b815260206004820181905260248201527f537472696e67733a20686578206c656e67746820696e73756666696369656e74604482015260640161057e565b9392505050565b6001600160a01b0381163b610fdb5760405162461bcd60e51b815260206004820152602d60248201527f455243313936373a206e657720696d706c656d656e746174696f6e206973206e60448201526c1bdd08184818dbdb9d1c9858dd609a1b606482015260840161057e565b6000805160206116b683398151915280546001600160a01b0319166001600160a01b0392909216919091179055565b61101383611039565b6000825111806110205750805b1561050d5761082e8383611079565b6104878282610abe565b61104281610f6e565b6040516001600160a01b038216907fbc7cd75a20ee27fd9adebab32041f755214dbc6bffa90cc0225b39da2e5c2d3b90600090a250565b60606001600160a01b0383163b6110e15760405162461bcd60e51b815260206004820152602660248201527f416464726573733a2064656c65676174652063616c6c20746f206e6f6e2d636f6044820152651b9d1c9858dd60d21b606482015260840161057e565b600080846001600160a01b0316846040516110fc9190611699565b600060405180830381855af49150503d8060008114611137576040519150601f19603f3d011682016040523d82523d6000602084013e61113c565b606091505b50915091506109ac82826040518060600160405280602781526020016116d6602791396060831561116e575081610f67565b82511561117e5782518084602001fd5b8160405162461bcd60e51b815260040161057e919061158d565b6000602082840312156111aa57600080fd5b81356001600160e01b031981168114610f6757600080fd5b80356001600160a01b03811681146111d957600080fd5b919050565b600080604083850312156111f157600080fd5b82359150611201602084016111c2565b90509250929050565b60006020828403121561121c57600080fd5b5035919050565b803580151581146111d957600080fd5b600080600080600060a0868803121561124b57600080fd5b611254866111c2565b94506020860135935060408601359250611270606087016111c2565b915061127e60808701611223565b90509295509295909350565b60006020828403121561129c57600080fd5b610f67826111c2565b600080604083850312156112b857600080fd5b6112c1836111c2565b946020939093013593505050565b634e487b7160e01b600052604160045260246000fd5b600080604083850312156112f857600080fd5b611301836111c2565b9150602083013567ffffffffffffffff8082111561131e57600080fd5b818501915085601f83011261133257600080fd5b813581811115611344576113446112cf565b604051601f8201601f19908116603f0116810190838211818310171561136c5761136c6112cf565b8160405282815288602084870101111561138557600080fd5b8260208601602083013760006020848301015280955050505050509250929050565b600080600080608085870312156113bd57600080fd5b6113c6856111c2565b9350602085013592506113db604086016111c2565b91506113e960608601611223565b905092959194509250565b60008060006060848603121561140957600080fd5b8335925060208401359150611420604085016111c2565b90509250925092565b60008060006060848603121561143e57600080fd5b611447846111c2565b925060208401359150611420604085016111c2565b6020808252602c908201527f46756e6374696f6e206d7573742062652063616c6c6564207468726f7567682060408201526b19195b1959d85d1958d85b1b60a21b606082015260800190565b6020808252602c908201527f46756e6374696f6e206d7573742062652063616c6c6564207468726f7567682060408201526b6163746976652070726f787960a01b606082015260800190565b60005b8381101561150f5781810151838201526020016114f7565b50506000910152565b7f416363657373436f6e74726f6c3a206163636f756e74200000000000000000008152600083516115508160178501602088016114f4565b7001034b99036b4b9b9b4b733903937b6329607d1b60179184019182015283516115818160288401602088016114f4565b01602801949350505050565b60208152600082518060208401526115ac8160408501602087016114f4565b601f01601f19169190910160400192915050565b6000602082840312156115d257600080fd5b5051919050565b6020808252602b908201527f496e697469616c697a61626c653a20636f6e7472616374206973206e6f74206960408201526a6e697469616c697a696e6760a81b606082015260800190565b634e487b7160e01b600052601160045260246000fd5b600081600019048311821515161561165457611654611624565b500290565b8082018082111561047757610477611624565b634e487b7160e01b600052603260045260246000fd5b60008161169157611691611624565b506000190190565b600082516116ab8184602087016114f4565b919091019291505056fe360894a13ba1a3210667c828492db98dca3e2076cc3735a920a3ca505d382bbc416464726573733a206c6f772d6c6576656c2064656c65676174652063616c6c206661696c6564a2646970667358221220c167e430c58b0626c60d4746d98b746844ce5c075b8a4cd29c4c3704905760d964736f6c63430008100033",
  "linkReferences": {},
  "deployedLinkReferences": {}
}