{
  "_format": "hh-sol-artifact-1",
  "contractName": "PolicyPool",
  "sourceName": "contracts/PolicyPool.sol",
  "abi": [
    {
      "inputs": [
        {
          "internalType": "contract IAccessManager",
          "name": "access_",
          "type": "address"
        },
        {
          "internalType": "contract IERC20Metadata",
          "name": "currency_",
          "type": "address"
        }
      ],
      "stateMutability": "nonpayable",
      "type": "constructor"
    },
    {
      "anonymous": false,
      "inputs": [
        {
          "indexed": false,
          "internalType": "address",
          "name": "previousAdmin",
          "type": "address"
        },
        {
          "indexed": false,
          "internalType": "address",
          "name": "newAdmin",
          "type": "address"
        }
      ],
      "name": "AdminChanged",
      "type": "event"
    },
    {
      "anonymous": false,
      "inputs": [
        {
          "indexed": true,
          "internalType": "address",
          "name": "owner",
          "type": "address"
        },
        {
          "indexed": true,
          "internalType": "address",
          "name": "approved",
          "type": "address"
        },
        {
          "indexed": true,
          "internalType": "uint256",
          "name": "tokenId",
          "type": "uint256"
        }
      ],
      "name": "Approval",
      "type": "event"
    },
    {
      "anonymous": false,
      "inputs": [
        {
          "indexed": true,
          "internalType": "address",
          "name": "owner",
          "type": "address"
        },
        {
          "indexed": true,
          "internalType": "address",
          "name": "operator",
          "type": "address"
        },
        {
          "indexed": false,
          "internalType": "bool",
          "name": "approved",
          "type": "bool"
        }
      ],
      "name": "ApprovalForAll",
      "type": "event"
    },
    {
      "anonymous": false,
      "inputs": [
        {
          "indexed": true,
          "internalType": "address",
          "name": "beacon",
          "type": "address"
        }
      ],
      "name": "BeaconUpgraded",
      "type": "event"
    },
    {
      "anonymous": false,
      "inputs": [
        {
          "indexed": true,
          "internalType": "enum IAccessManager.GovernanceActions",
          "name": "action",
          "type": "uint8"
        },
        {
          "indexed": false,
          "internalType": "address",
          "name": "value",
          "type": "address"
        }
      ],
      "name": "ComponentChanged",
      "type": "event"
    },
    {
      "anonymous": false,
      "inputs": [
        {
          "indexed": true,
          "internalType": "contract IPolicyPoolComponent",
          "name": "component",
          "type": "address"
        },
        {
          "indexed": false,
          "internalType": "enum PolicyPool.ComponentKind",
          "name": "kind",
          "type": "uint8"
        },
        {
          "indexed": false,
          "internalType": "enum PolicyPool.ComponentStatus",
          "name": "newStatus",
          "type": "uint8"
        }
      ],
      "name": "ComponentStatusChanged",
      "type": "event"
    },
    {
      "anonymous": false,
      "inputs": [
        {
          "indexed": false,
          "internalType": "uint8",
          "name": "version",
          "type": "uint8"
        }
      ],
      "name": "Initialized",
      "type": "event"
    },
    {
      "anonymous": false,
      "inputs": [
        {
          "indexed": true,
          "internalType": "contract IRiskModule",
          "name": "riskModule",
          "type": "address"
        },
        {
          "components": [
            {
              "internalType": "uint256",
              "name": "id",
              "type": "uint256"
            },
            {
              "internalType": "uint256",
              "name": "payout",
              "type": "uint256"
            },
            {
              "internalType": "uint256",
              "name": "premium",
              "type": "uint256"
            },
            {
              "internalType": "uint256",
              "name": "jrScr",
              "type": "uint256"
            },
            {
              "internalType": "uint256",
              "name": "srScr",
              "type": "uint256"
            },
            {
              "internalType": "uint256",
              "name": "lossProb",
              "type": "uint256"
            },
            {
              "internalType": "uint256",
              "name": "purePremium",
              "type": "uint256"
            },
            {
              "internalType": "uint256",
              "name": "ensuroCommission",
              "type": "uint256"
            },
            {
              "internalType": "uint256",
              "name": "partnerCommission",
              "type": "uint256"
            },
            {
              "internalType": "uint256",
              "name": "jrCoc",
              "type": "uint256"
            },
            {
              "internalType": "uint256",
              "name": "srCoc",
              "type": "uint256"
            },
            {
              "internalType": "contract IRiskModule",
              "name": "riskModule",
              "type": "address"
            },
            {
              "internalType": "uint40",
              "name": "start",
              "type": "uint40"
            },
            {
              "internalType": "uint40",
              "name": "expiration",
              "type": "uint40"
            }
          ],
          "indexed": false,
          "internalType": "struct Policy.PolicyData",
          "name": "policy",
          "type": "tuple"
        }
      ],
      "name": "NewPolicy",
      "type": "event"
    },
    {
      "anonymous": false,
      "inputs": [
        {
          "indexed": false,
          "internalType": "address",
          "name": "account",
          "type": "address"
        }
      ],
      "name": "Paused",
      "type": "event"
    },
    {
      "anonymous": false,
      "inputs": [
        {
          "indexed": true,
          "internalType": "contract IRiskModule",
          "name": "riskModule",
          "type": "address"
        },
        {
          "indexed": true,
          "internalType": "uint256",
          "name": "policyId",
          "type": "uint256"
        },
        {
          "indexed": false,
          "internalType": "uint256",
          "name": "payout",
          "type": "uint256"
        }
      ],
      "name": "PolicyResolved",
      "type": "event"
    },
    {
      "anonymous": false,
      "inputs": [
        {
          "indexed": true,
          "internalType": "address",
          "name": "from",
          "type": "address"
        },
        {
          "indexed": true,
          "internalType": "address",
          "name": "to",
          "type": "address"
        },
        {
          "indexed": true,
          "internalType": "uint256",
          "name": "tokenId",
          "type": "uint256"
        }
      ],
      "name": "Transfer",
      "type": "event"
    },
    {
      "anonymous": false,
      "inputs": [
        {
          "indexed": false,
          "internalType": "address",
          "name": "account",
          "type": "address"
        }
      ],
      "name": "Unpaused",
      "type": "event"
    },
    {
      "anonymous": false,
      "inputs": [
        {
          "indexed": true,
          "internalType": "address",
          "name": "implementation",
          "type": "address"
        }
      ],
      "name": "Upgraded",
      "type": "event"
    },
    {
      "inputs": [],
      "name": "GUARDIAN_ROLE",
      "outputs": [
        {
          "internalType": "bytes32",
          "name": "",
          "type": "bytes32"
        }
      ],
      "stateMutability": "view",
      "type": "function"
    },
    {
      "inputs": [],
      "name": "LEVEL1_ROLE",
      "outputs": [
        {
          "internalType": "bytes32",
          "name": "",
          "type": "bytes32"
        }
      ],
      "stateMutability": "view",
      "type": "function"
    },
    {
      "inputs": [],
      "name": "LEVEL2_ROLE",
      "outputs": [
        {
          "internalType": "bytes32",
          "name": "",
          "type": "bytes32"
        }
      ],
      "stateMutability": "view",
      "type": "function"
    },
    {
      "inputs": [],
      "name": "LEVEL3_ROLE",
      "outputs": [
        {
          "internalType": "bytes32",
          "name": "",
          "type": "bytes32"
        }
      ],
      "stateMutability": "view",
      "type": "function"
    },
    {
      "inputs": [],
      "name": "access",
      "outputs": [
        {
          "internalType": "contract IAccessManager",
          "name": "",
          "type": "address"
        }
      ],
      "stateMutability": "view",
      "type": "function"
    },
    {
      "inputs": [
        {
          "internalType": "contract IPolicyPoolComponent",
          "name": "component",
          "type": "address"
        },
        {
          "internalType": "enum PolicyPool.ComponentKind",
          "name": "kind",
          "type": "uint8"
        }
      ],
      "name": "addComponent",
      "outputs": [],
      "stateMutability": "nonpayable",
      "type": "function"
    },
    {
      "inputs": [
        {
          "internalType": "address",
          "name": "to",
          "type": "address"
        },
        {
          "internalType": "uint256",
          "name": "tokenId",
          "type": "uint256"
        }
      ],
      "name": "approve",
      "outputs": [],
      "stateMutability": "nonpayable",
      "type": "function"
    },
    {
      "inputs": [
        {
          "internalType": "address",
          "name": "owner",
          "type": "address"
        }
      ],
      "name": "balanceOf",
      "outputs": [
        {
          "internalType": "uint256",
          "name": "",
          "type": "uint256"
        }
      ],
      "stateMutability": "view",
      "type": "function"
    },
    {
      "inputs": [
        {
          "internalType": "contract IPolicyPoolComponent",
          "name": "component",
          "type": "address"
        },
        {
          "internalType": "enum PolicyPool.ComponentStatus",
          "name": "newStatus",
          "type": "uint8"
        }
      ],
      "name": "changeComponentStatus",
      "outputs": [],
      "stateMutability": "nonpayable",
      "type": "function"
    },
    {
      "inputs": [],
      "name": "currency",
      "outputs": [
        {
          "internalType": "contract IERC20Metadata",
          "name": "",
          "type": "address"
        }
      ],
      "stateMutability": "view",
      "type": "function"
    },
    {
      "inputs": [
        {
          "internalType": "contract IEToken",
          "name": "eToken",
          "type": "address"
        },
        {
          "internalType": "uint256",
          "name": "amount",
          "type": "uint256"
        }
      ],
      "name": "deposit",
      "outputs": [],
      "stateMutability": "nonpayable",
      "type": "function"
    },
    {
      "inputs": [
        {
          "components": [
            {
              "internalType": "uint256",
              "name": "id",
              "type": "uint256"
            },
            {
              "internalType": "uint256",
              "name": "payout",
              "type": "uint256"
            },
            {
              "internalType": "uint256",
              "name": "premium",
              "type": "uint256"
            },
            {
              "internalType": "uint256",
              "name": "jrScr",
              "type": "uint256"
            },
            {
              "internalType": "uint256",
              "name": "srScr",
              "type": "uint256"
            },
            {
              "internalType": "uint256",
              "name": "lossProb",
              "type": "uint256"
            },
            {
              "internalType": "uint256",
              "name": "purePremium",
              "type": "uint256"
            },
            {
              "internalType": "uint256",
              "name": "ensuroCommission",
              "type": "uint256"
            },
            {
              "internalType": "uint256",
              "name": "partnerCommission",
              "type": "uint256"
            },
            {
              "internalType": "uint256",
              "name": "jrCoc",
              "type": "uint256"
            },
            {
              "internalType": "uint256",
              "name": "srCoc",
              "type": "uint256"
            },
            {
              "internalType": "contract IRiskModule",
              "name": "riskModule",
              "type": "address"
            },
            {
              "internalType": "uint40",
              "name": "start",
              "type": "uint40"
            },
            {
              "internalType": "uint40",
              "name": "expiration",
              "type": "uint40"
            }
          ],
          "internalType": "struct Policy.PolicyData",
          "name": "policy",
          "type": "tuple"
        }
      ],
      "name": "expirePolicy",
      "outputs": [],
      "stateMutability": "nonpayable",
      "type": "function"
    },
    {
      "inputs": [
        {
          "internalType": "uint256",
          "name": "tokenId",
          "type": "uint256"
        }
      ],
      "name": "getApproved",
      "outputs": [
        {
          "internalType": "address",
          "name": "",
          "type": "address"
        }
      ],
      "stateMutability": "view",
      "type": "function"
    },
    {
      "inputs": [
        {
          "internalType": "contract IPolicyPoolComponent",
          "name": "component",
          "type": "address"
        }
      ],
      "name": "getComponentStatus",
      "outputs": [
        {
          "internalType": "enum PolicyPool.ComponentStatus",
          "name": "",
          "type": "uint8"
        }
      ],
      "stateMutability": "view",
      "type": "function"
    },
    {
      "inputs": [
        {
          "internalType": "uint256",
          "name": "policyId",
          "type": "uint256"
        }
      ],
      "name": "getPolicyHash",
      "outputs": [
        {
          "internalType": "bytes32",
          "name": "",
          "type": "bytes32"
        }
      ],
      "stateMutability": "view",
      "type": "function"
    },
    {
      "inputs": [
        {
          "internalType": "string",
          "name": "name_",
          "type": "string"
        },
        {
          "internalType": "string",
          "name": "symbol_",
          "type": "string"
        },
        {
          "internalType": "address",
          "name": "treasury_",
          "type": "address"
        }
      ],
      "name": "initialize",
      "outputs": [],
      "stateMutability": "nonpayable",
      "type": "function"
    },
    {
      "inputs": [
        {
          "internalType": "uint256",
          "name": "policyId",
          "type": "uint256"
        }
      ],
      "name": "isActive",
      "outputs": [
        {
          "internalType": "bool",
          "name": "",
          "type": "bool"
        }
      ],
      "stateMutability": "view",
      "type": "function"
    },
    {
      "inputs": [
        {
          "internalType": "address",
          "name": "owner",
          "type": "address"
        },
        {
          "internalType": "address",
          "name": "operator",
          "type": "address"
        }
      ],
      "name": "isApprovedForAll",
      "outputs": [
        {
          "internalType": "bool",
          "name": "",
          "type": "bool"
        }
      ],
      "stateMutability": "view",
      "type": "function"
    },
    {
      "inputs": [],
      "name": "name",
      "outputs": [
        {
          "internalType": "string",
          "name": "",
          "type": "string"
        }
      ],
      "stateMutability": "view",
      "type": "function"
    },
    {
      "inputs": [
        {
          "components": [
            {
              "internalType": "uint256",
              "name": "id",
              "type": "uint256"
            },
            {
              "internalType": "uint256",
              "name": "payout",
              "type": "uint256"
            },
            {
              "internalType": "uint256",
              "name": "premium",
              "type": "uint256"
            },
            {
              "internalType": "uint256",
              "name": "jrScr",
              "type": "uint256"
            },
            {
              "internalType": "uint256",
              "name": "srScr",
              "type": "uint256"
            },
            {
              "internalType": "uint256",
              "name": "lossProb",
              "type": "uint256"
            },
            {
              "internalType": "uint256",
              "name": "purePremium",
              "type": "uint256"
            },
            {
              "internalType": "uint256",
              "name": "ensuroCommission",
              "type": "uint256"
            },
            {
              "internalType": "uint256",
              "name": "partnerCommission",
              "type": "uint256"
            },
            {
              "internalType": "uint256",
              "name": "jrCoc",
              "type": "uint256"
            },
            {
              "internalType": "uint256",
              "name": "srCoc",
              "type": "uint256"
            },
            {
              "internalType": "contract IRiskModule",
              "name": "riskModule",
              "type": "address"
            },
            {
              "internalType": "uint40",
              "name": "start",
              "type": "uint40"
            },
            {
              "internalType": "uint40",
              "name": "expiration",
              "type": "uint40"
            }
          ],
          "internalType": "struct Policy.PolicyData",
          "name": "policy",
          "type": "tuple"
        },
        {
          "internalType": "address",
          "name": "payer",
          "type": "address"
        },
        {
          "internalType": "address",
          "name": "policyHolder",
          "type": "address"
        },
        {
          "internalType": "uint96",
          "name": "internalId",
          "type": "uint96"
        }
      ],
      "name": "newPolicy",
      "outputs": [
        {
          "internalType": "uint256",
          "name": "",
          "type": "uint256"
        }
      ],
      "stateMutability": "nonpayable",
      "type": "function"
    },
    {
      "inputs": [
        {
          "internalType": "uint256",
          "name": "tokenId",
          "type": "uint256"
        }
      ],
      "name": "ownerOf",
      "outputs": [
        {
          "internalType": "address",
          "name": "",
          "type": "address"
        }
      ],
      "stateMutability": "view",
      "type": "function"
    },
    {
      "inputs": [],
      "name": "pause",
      "outputs": [],
      "stateMutability": "nonpayable",
      "type": "function"
    },
    {
      "inputs": [],
      "name": "paused",
      "outputs": [
        {
          "internalType": "bool",
          "name": "",
          "type": "bool"
        }
      ],
      "stateMutability": "view",
      "type": "function"
    },
    {
      "inputs": [],
      "name": "proxiableUUID",
      "outputs": [
        {
          "internalType": "bytes32",
          "name": "",
          "type": "bytes32"
        }
      ],
      "stateMutability": "view",
      "type": "function"
    },
    {
      "inputs": [
        {
          "internalType": "contract IPolicyPoolComponent",
          "name": "component",
          "type": "address"
        }
      ],
      "name": "removeComponent",
      "outputs": [],
      "stateMutability": "nonpayable",
      "type": "function"
    },
    {
      "inputs": [
        {
          "components": [
            {
              "internalType": "uint256",
              "name": "id",
              "type": "uint256"
            },
            {
              "internalType": "uint256",
              "name": "payout",
              "type": "uint256"
            },
            {
              "internalType": "uint256",
              "name": "premium",
              "type": "uint256"
            },
            {
              "internalType": "uint256",
              "name": "jrScr",
              "type": "uint256"
            },
            {
              "internalType": "uint256",
              "name": "srScr",
              "type": "uint256"
            },
            {
              "internalType": "uint256",
              "name": "lossProb",
              "type": "uint256"
            },
            {
              "internalType": "uint256",
              "name": "purePremium",
              "type": "uint256"
            },
            {
              "internalType": "uint256",
              "name": "ensuroCommission",
              "type": "uint256"
            },
            {
              "internalType": "uint256",
              "name": "partnerCommission",
              "type": "uint256"
            },
            {
              "internalType": "uint256",
              "name": "jrCoc",
              "type": "uint256"
            },
            {
              "internalType": "uint256",
              "name": "srCoc",
              "type": "uint256"
            },
            {
              "internalType": "contract IRiskModule",
              "name": "riskModule",
              "type": "address"
            },
            {
              "internalType": "uint40",
              "name": "start",
              "type": "uint40"
            },
            {
              "internalType": "uint40",
              "name": "expiration",
              "type": "uint40"
            }
          ],
          "internalType": "struct Policy.PolicyData",
          "name": "policy",
          "type": "tuple"
        },
        {
          "internalType": "uint256",
          "name": "payout",
          "type": "uint256"
        }
      ],
      "name": "resolvePolicy",
      "outputs": [],
      "stateMutability": "nonpayable",
      "type": "function"
    },
    {
      "inputs": [
        {
          "components": [
            {
              "internalType": "uint256",
              "name": "id",
              "type": "uint256"
            },
            {
              "internalType": "uint256",
              "name": "payout",
              "type": "uint256"
            },
            {
              "internalType": "uint256",
              "name": "premium",
              "type": "uint256"
            },
            {
              "internalType": "uint256",
              "name": "jrScr",
              "type": "uint256"
            },
            {
              "internalType": "uint256",
              "name": "srScr",
              "type": "uint256"
            },
            {
              "internalType": "uint256",
              "name": "lossProb",
              "type": "uint256"
            },
            {
              "internalType": "uint256",
              "name": "purePremium",
              "type": "uint256"
            },
            {
              "internalType": "uint256",
              "name": "ensuroCommission",
              "type": "uint256"
            },
            {
              "internalType": "uint256",
              "name": "partnerCommission",
              "type": "uint256"
            },
            {
              "internalType": "uint256",
              "name": "jrCoc",
              "type": "uint256"
            },
            {
              "internalType": "uint256",
              "name": "srCoc",
              "type": "uint256"
            },
            {
              "internalType": "contract IRiskModule",
              "name": "riskModule",
              "type": "address"
            },
            {
              "internalType": "uint40",
              "name": "start",
              "type": "uint40"
            },
            {
              "internalType": "uint40",
              "name": "expiration",
              "type": "uint40"
            }
          ],
          "internalType": "struct Policy.PolicyData",
          "name": "policy",
          "type": "tuple"
        },
        {
          "internalType": "bool",
          "name": "customerWon",
          "type": "bool"
        }
      ],
      "name": "resolvePolicyFullPayout",
      "outputs": [],
      "stateMutability": "nonpayable",
      "type": "function"
    },
    {
      "inputs": [
        {
          "internalType": "address",
          "name": "from",
          "type": "address"
        },
        {
          "internalType": "address",
          "name": "to",
          "type": "address"
        },
        {
          "internalType": "uint256",
          "name": "tokenId",
          "type": "uint256"
        }
      ],
      "name": "safeTransferFrom",
      "outputs": [],
      "stateMutability": "nonpayable",
      "type": "function"
    },
    {
      "inputs": [
        {
          "internalType": "address",
          "name": "from",
          "type": "address"
        },
        {
          "internalType": "address",
          "name": "to",
          "type": "address"
        },
        {
          "internalType": "uint256",
          "name": "tokenId",
          "type": "uint256"
        },
        {
          "internalType": "bytes",
          "name": "data",
          "type": "bytes"
        }
      ],
      "name": "safeTransferFrom",
      "outputs": [],
      "stateMutability": "nonpayable",
      "type": "function"
    },
    {
      "inputs": [
        {
          "internalType": "address",
          "name": "operator",
          "type": "address"
        },
        {
          "internalType": "bool",
          "name": "approved",
          "type": "bool"
        }
      ],
      "name": "setApprovalForAll",
      "outputs": [],
      "stateMutability": "nonpayable",
      "type": "function"
    },
    {
      "inputs": [
        {
          "internalType": "address",
          "name": "treasury_",
          "type": "address"
        }
      ],
      "name": "setTreasury",
      "outputs": [],
      "stateMutability": "nonpayable",
      "type": "function"
    },
    {
      "inputs": [
        {
          "internalType": "bytes4",
          "name": "interfaceId",
          "type": "bytes4"
        }
      ],
      "name": "supportsInterface",
      "outputs": [
        {
          "internalType": "bool",
          "name": "",
          "type": "bool"
        }
      ],
      "stateMutability": "view",
      "type": "function"
    },
    {
      "inputs": [],
      "name": "symbol",
      "outputs": [
        {
          "internalType": "string",
          "name": "",
          "type": "string"
        }
      ],
      "stateMutability": "view",
      "type": "function"
    },
    {
      "inputs": [
        {
          "internalType": "uint256",
          "name": "tokenId",
          "type": "uint256"
        }
      ],
      "name": "tokenURI",
      "outputs": [
        {
          "internalType": "string",
          "name": "",
          "type": "string"
        }
      ],
      "stateMutability": "view",
      "type": "function"
    },
    {
      "inputs": [
        {
          "internalType": "address",
          "name": "from",
          "type": "address"
        },
        {
          "internalType": "address",
          "name": "to",
          "type": "address"
        },
        {
          "internalType": "uint256",
          "name": "tokenId",
          "type": "uint256"
        }
      ],
      "name": "transferFrom",
      "outputs": [],
      "stateMutability": "nonpayable",
      "type": "function"
    },
    {
      "inputs": [],
      "name": "treasury",
      "outputs": [
        {
          "internalType": "address",
          "name": "",
          "type": "address"
        }
      ],
      "stateMutability": "view",
      "type": "function"
    },
    {
      "inputs": [],
      "name": "unpause",
      "outputs": [],
      "stateMutability": "nonpayable",
      "type": "function"
    },
    {
      "inputs": [
        {
          "internalType": "address",
          "name": "newImplementation",
          "type": "address"
        }
      ],
      "name": "upgradeTo",
      "outputs": [],
      "stateMutability": "nonpayable",
      "type": "function"
    },
    {
      "inputs": [
        {
          "internalType": "address",
          "name": "newImplementation",
          "type": "address"
        },
        {
          "internalType": "bytes",
          "name": "data",
          "type": "bytes"
        }
      ],
      "name": "upgradeToAndCall",
      "outputs": [],
      "stateMutability": "payable",
      "type": "function"
    },
    {
      "inputs": [
        {
          "internalType": "contract IEToken",
          "name": "eToken",
          "type": "address"
        },
        {
          "internalType": "uint256",
          "name": "amount",
          "type": "uint256"
        }
      ],
      "name": "withdraw",
      "outputs": [
        {
          "internalType": "uint256",
          "name": "",
          "type": "uint256"
        }
      ],
      "stateMutability": "nonpayable",
      "type": "function"
    }
  ],
  "bytecode": "0x60e0604052306080523480156200001557600080fd5b50604051620059993803806200599983398101604081905262000038916200020c565b6001600160a01b038216620000a65760405162461bcd60e51b815260206004820152602960248201527f506f6c696379506f6f6c3a206163636573732063616e6e6f74206265207a65726044820152686f206164647265737360b81b60648201526084015b60405180910390fd5b6001600160a01b038116620001125760405162461bcd60e51b815260206004820152602b60248201527f506f6c696379506f6f6c3a2063757272656e63792063616e6e6f74206265207a60448201526a65726f206164647265737360a81b60648201526084016200009d565b6200011c62000134565b6001600160a01b0391821660a0521660c0526200024b565b600054610100900460ff16156200019e5760405162461bcd60e51b815260206004820152602760248201527f496e697469616c697a61626c653a20636f6e747261637420697320696e697469604482015266616c697a696e6760c81b60648201526084016200009d565b60005460ff9081161015620001f1576000805460ff191660ff9081179091556040519081527f7f26b83ff96e1f2b6a682f133852f6798a09c465da95921460cefb38474024989060200160405180910390a15b565b6001600160a01b03811681146200020957600080fd5b50565b600080604083850312156200022057600080fd5b82516200022d81620001f3565b60208401519092506200024081620001f3565b809150509250929050565b60805160a05160c051615676620003236000396000818161070e01528181610e2501528181610e9901528181610efa01528181611910015281816119bb01528181611a6401528181611aa301528181611bd401526132ba0152600081816105d301528181610ce701528181611187015281816112ad0152818161137c0152818161144b01528181611d0701528181612324015281816129b201528181612b460152818161313201526131c6015260008181610bea01528181610c2a01528181610fea0152818161102a01526110b901526156766000f3fe60806040526004361061023b5760003560e01c80636769a76f1161012e57806395d89b41116100ab578063e985e9c51161006f578063e985e9c514610732578063f0f4426014610752578063f3fef3a314610772578063f67b2bad14610792578063ffa600e3146107b457600080fd5b806395d89b411461068a578063a22cb4651461069f578063b88d4fde146106bf578063c87b56dd146106df578063e5a6b10f146106ff57600080fd5b806371907f17116100f257806371907f17146105c4578063792da09e146105f75780637a702b3c1461062557806382afd23b146106455780638456cb591461067557600080fd5b80636769a76f146105245780636af6f1ef146105445780636b8734e7146105645780636f86c8971461058457806370a08231146105a457600080fd5b806342842e0e116101bc5780635b494dd5116101805780635b494dd5146104795780635c975abb146104ad5780635fcbf445146104c557806361d027b3146104e55780636352211e1461050457600080fd5b806342842e0e146103dd57806347e7ef24146103fd5780634a47a3e01461041d5780634f1ef2861461045157806352d1902d1461046457600080fd5b806323b872dd1161020357806323b872dd1461031157806324ea54f41461033157806333d6157a146103615780633659cfe6146103a85780633f4ba83a146103c857600080fd5b806301ffc9a71461024057806306fdde0314610275578063077f224a14610297578063081812fc146102b9578063095ea7b3146102f1575b600080fd5b34801561024c57600080fd5b5061026061025b3660046149e8565b6107d4565b60405190151581526020015b60405180910390f35b34801561028157600080fd5b5061028a610800565b60405161026c9190614a55565b3480156102a357600080fd5b506102b76102b2366004614b4a565b610892565b005b3480156102c557600080fd5b506102d96102d4366004614bc2565b610a73565b6040516001600160a01b03909116815260200161026c565b3480156102fd57600080fd5b506102b761030c366004614bdb565b610a9a565b34801561031d57600080fd5b506102b761032c366004614c07565b610baf565b34801561033d57600080fd5b5061035360008051602061562183398151915281565b60405190815260200161026c565b34801561036d57600080fd5b5061039b61037c366004614c48565b6001600160a01b0316600090815261012e602052604090205460ff1690565b60405161026c9190614c99565b3480156103b457600080fd5b506102b76103c3366004614c48565b610be0565b3480156103d457600080fd5b506102b7610cbf565b3480156103e957600080fd5b506102b76103f8366004614c07565b610d80565b34801561040957600080fd5b506102b7610418366004614bdb565b610d9b565b34801561042957600080fd5b506103537fa82e22387fca439f316d78ca566f383218ab8ae1b3e830178c9c82cbd16749c081565b6102b761045f366004614cac565b610fe0565b34801561047057600080fd5b506103536110ac565b34801561048557600080fd5b506103537f5ec196419322369c6bac572d883f4d990ae5ec82f7d93cdf89b85dbb05b63c2781565b3480156104b957600080fd5b5060335460ff16610260565b3480156104d157600080fd5b506102b76104e0366004614d09565b61115f565b3480156104f157600080fd5b5061012d546001600160a01b03166102d9565b34801561051057600080fd5b506102d961051f366004614bc2565b6115d8565b34801561053057600080fd5b5061035361053f366004614e29565b611638565b34801561055057600080fd5b506102b761055f366004614eb2565b611c6a565b34801561057057600080fd5b506102b761057f366004614d09565b611cee565b34801561059057600080fd5b506102b761059f366004614c48565b61230b565b3480156105b057600080fd5b506103536105bf366004614c48565b6128f1565b3480156105d057600080fd5b507f00000000000000000000000000000000000000000000000000000000000000006102d9565b34801561060357600080fd5b50610353610612366004614bc2565b600090815261012f602052604090205490565b34801561063157600080fd5b506102b7610640366004614ecf565b612977565b34801561065157600080fd5b50610260610660366004614bc2565b600090815261012f6020526040902054151590565b34801561068157600080fd5b506102b7612999565b34801561069657600080fd5b5061028a612a3e565b3480156106ab57600080fd5b506102b76106ba366004614f0a565b612a4d565b3480156106cb57600080fd5b506102b76106da366004614f38565b612a58565b3480156106eb57600080fd5b5061028a6106fa366004614bc2565b612a8a565b34801561070b57600080fd5b507f00000000000000000000000000000000000000000000000000000000000000006102d9565b34801561073e57600080fd5b5061026061074d366004614fa4565b612afe565b34801561075e57600080fd5b506102b761076d366004614c48565b612b2d565b34801561077e57600080fd5b5061035361078d366004614bdb565b612bd3565b34801561079e57600080fd5b506103536000805160206155da83398151915281565b3480156107c057600080fd5b506102b76107cf366004614fd2565b612cfc565b60006107df82612d2f565b806107fa57506001600160e01b0319821663191a7d6b60e11b145b92915050565b606060fb805461080f90615001565b80601f016020809104026020016040519081016040528092919081815260200182805461083b90615001565b80156108885780601f1061085d57610100808354040283529160200191610888565b820191906000526020600020905b81548152906001019060200180831161086b57829003601f168201915b5050505050905090565b600054610100900460ff16158080156108b25750600054600160ff909116105b806108cc5750303b1580156108cc575060005460ff166001145b6109345760405162461bcd60e51b815260206004820152602e60248201527f496e697469616c697a61626c653a20636f6e747261637420697320616c72656160448201526d191e481a5b9a5d1a585b1a5e995960921b60648201526084015b60405180910390fd5b6000805460ff191660011790558015610957576000805461ff0019166101001790555b60008451116109a85760405162461bcd60e51b815260206004820181905260248201527f506f6c696379506f6f6c3a206e616d652063616e6e6f7420626520656d707479604482015260640161092b565b6000835111610a045760405162461bcd60e51b815260206004820152602260248201527f506f6c696379506f6f6c3a2073796d626f6c2063616e6e6f7420626520656d70604482015261747960f01b606482015260840161092b565b610a0c612d7f565b610a168484612da8565b610a1e612dd9565b610a2782612e08565b8015610a6d576000805461ff0019169055604051600181527f7f26b83ff96e1f2b6a682f133852f6798a09c465da95921460cefb38474024989060200160405180910390a15b50505050565b6000610a7e82612e38565b50600090815260ff60205260409020546001600160a01b031690565b6000610aa5826115d8565b9050806001600160a01b0316836001600160a01b031603610b125760405162461bcd60e51b815260206004820152602160248201527f4552433732313a20617070726f76616c20746f2063757272656e74206f776e656044820152603960f91b606482015260840161092b565b336001600160a01b0382161480610b2e5750610b2e8133612afe565b610ba05760405162461bcd60e51b815260206004820152603e60248201527f4552433732313a20617070726f76652063616c6c6572206973206e6f7420746f60448201527f6b656e206f776e6572206e6f7220617070726f76656420666f7220616c6c0000606482015260840161092b565b610baa8383612e97565b505050565b610bb93382612f05565b610bd55760405162461bcd60e51b815260040161092b90615035565b610baa838383612f63565b6001600160a01b037f0000000000000000000000000000000000000000000000000000000000000000163003610c285760405162461bcd60e51b815260040161092b90615083565b7f00000000000000000000000000000000000000000000000000000000000000006001600160a01b0316610c716000805160206155ba833981519152546001600160a01b031690565b6001600160a01b031614610c975760405162461bcd60e51b815260040161092b906150cf565b610ca08161310a565b60408051600080825260208201909252610cbc918391906133a6565b50565b6000805160206156218339815191526000805160206155da8339815191526001600160a01b037f00000000000000000000000000000000000000000000000000000000000000001663c5b8f5cf8383336040516001600160e01b031960e086901b168152600481019390935260248301919091526001600160a01b0316604482015260640160006040518083038186803b158015610d5c57600080fd5b505afa158015610d70573d6000803e3d6000fd5b50505050610d7c613511565b5050565b610baa83838360405180602001604052806000815250612a58565b610da3613563565b6001610dae836135a9565b6003811115610dbf57610dbf614c65565b14610e035760405162461bcd60e51b815260206004820152601460248201527365546f6b656e206973206e6f742061637469766560601b604482015260640161092b565b6040516370a0823160e01b81526001600160a01b0383811660048301526000917f0000000000000000000000000000000000000000000000000000000000000000909116906370a0823190602401602060405180830381865afa158015610e6e573d6000803e3d6000fd5b505050506040513d601f19601f82011682018060405250810190610e92919061511b565b9050610ec97f00000000000000000000000000000000000000000000000000000000000000006001600160a01b0316338585613636565b6001600160a01b0383166347e7ef24336040516370a0823160e01b81526001600160a01b03878116600483015285917f0000000000000000000000000000000000000000000000000000000000000000909116906370a0823190602401602060405180830381865afa158015610f43573d6000803e3d6000fd5b505050506040513d601f19601f82011682018060405250810190610f67919061511b565b610f71919061514a565b6040516001600160e01b031960e085901b1681526001600160a01b03909216600483015260248201526044016020604051808303816000875af1158015610fbc573d6000803e3d6000fd5b505050506040513d601f19601f82011682018060405250810190610a6d919061511b565b6001600160a01b037f00000000000000000000000000000000000000000000000000000000000000001630036110285760405162461bcd60e51b815260040161092b90615083565b7f00000000000000000000000000000000000000000000000000000000000000006001600160a01b03166110716000805160206155ba833981519152546001600160a01b031690565b6001600160a01b0316146110975760405162461bcd60e51b815260040161092b906150cf565b6110a08261310a565b610d7c828260016133a6565b6000306001600160a01b037f0000000000000000000000000000000000000000000000000000000000000000161461114c5760405162461bcd60e51b815260206004820152603860248201527f555550535570677261646561626c653a206d757374206e6f742062652063616c60448201527f6c6564207468726f7567682064656c656761746563616c6c0000000000000000606482015260840161092b565b506000805160206155ba83398151915290565b6000805160206156218339815191526000805160206155da8339815191526001600160a01b037f00000000000000000000000000000000000000000000000000000000000000001663c5b8f5cf8383336040516001600160e01b031960e086901b168152600481019390935260248301919091526001600160a01b0316604482015260640160006040518083038186803b1580156111fc57600080fd5b505afa158015611210573d6000803e3d6000fd5b5050506001600160a01b038516600090815261012e602052604081209150815460ff16600381111561124457611244614c65565b036112875760405162461bcd60e51b815260206004820152601360248201527210dbdb5c1bdb995b9d081b9bdd08199bdd5b99606a1b604482015260640161092b565b600184600381111561129b5761129b614c65565b14801561135057506001600160a01b037f0000000000000000000000000000000000000000000000000000000000000000166391d148546000805160206155da833981519152336040516001600160e01b031960e085901b16815260048101929092526001600160a01b03166024820152604401602060405180830381865afa15801561132c573d6000803e3d6000fd5b505050506040513d601f19601f82011682018060405250810190611350919061515d565b8061141f5750600384600381111561136a5761136a614c65565b14801561141f57506001600160a01b037f0000000000000000000000000000000000000000000000000000000000000000166391d14854600080516020615621833981519152336040516001600160e01b031960e085901b16815260048101929092526001600160a01b03166024820152604401602060405180830381865afa1580156113fb573d6000803e3d6000fd5b505050506040513d601f19601f8201168201806040525081019061141f919061515d565b806114ee5750600284600381111561143957611439614c65565b1480156114ee57506001600160a01b037f0000000000000000000000000000000000000000000000000000000000000000166391d148546000805160206155da833981519152336040516001600160e01b031960e085901b16815260048101929092526001600160a01b03166024820152604401602060405180830381865afa1580156114ca573d6000803e3d6000fd5b505050506040513d601f19601f820116820180604052508101906114ee919061515d565b6115605760405162461bcd60e51b815260206004820152603e60248201527f4f6e6c7920475541524449414e2063616e2073757370656e64202f204f6e6c7960448201527f204c4556454c312063616e2061637469766174652f6465707265636174650000606482015260840161092b565b80548490829060ff1916600183600381111561157e5761157e614c65565b021790555080546040516001600160a01b038716917ffe4c6998a06520b63340a48710b374432cb395da90e4e5360e1ec7aeefebecef916115c991610100900460ff1690889061517a565b60405180910390a25050505050565b600081815260fd60205260408120546001600160a01b0316806107fa5760405162461bcd60e51b8152602060048201526018602482015277115490cdcc8c4e881a5b9d985b1a59081d1bdad95b88125160421b604482015260640161092b565b6000611642613563565b6101608501516001600160a01b03811633146116ac5760405162461bcd60e51b815260206004820152602360248201527f4f6e6c792074686520524d2063616e20637265617465206e657720706f6c696360448201526269657360e81b606482015260840161092b565b60016116b782613690565b60038111156116c8576116c8614c65565b1461171f5760405162461bcd60e51b815260206004820152602160248201527f524d206d6f64756c65206e6f7420666f756e64206f72206e6f742061637469766044820152606560f81b606482015260840161092b565b6000816001600160a01b03166373a952e86040518163ffffffff1660e01b8152600401602060405180830381865afa15801561175f573d6000803e3d6000fd5b505050506040513d601f19601f8201168201806040525081019061178391906151a0565b9050600161179082613713565b60038111156117a1576117a1614c65565b146117fe5760405162461bcd60e51b815260206004820152602760248201527f5072656d69756d734163636f756e74206e6f7420666f756e64206f72206e6f746044820152662061637469766560c81b606482015260840161092b565b6118296bffffffffffffffffffffffff85166bffffffffffffffffffffffff19606085901b166151bd565b808852600090815261012f6020526040902054156118815760405162461bcd60e51b8152602060048201526015602482015274506f6c69637920616c72656164792065786973747360581b604482015260640161092b565b61188a876137a1565b8751600090815261012f602052604090819020919091555163e3638ea360e01b81526001600160a01b0382169063e3638ea3906118cb908a90600401615288565b600060405180830381600087803b1580156118e557600080fd5b505af11580156118f9573d6000803e3d6000fd5b50505060c088015161193a91506001600160a01b037f0000000000000000000000000000000000000000000000000000000000000000169088908490613636565b610140870151156119e3576119e386826001600160a01b0316637b83037b6040518163ffffffff1660e01b8152600401602060405180830381865afa158015611987573d6000803e3d6000fd5b505050506040513d601f19601f820116820180604052508101906119ab91906151a0565b6101408a01516001600160a01b037f000000000000000000000000000000000000000000000000000000000000000016929190613636565b61012087015115611a8c57611a8c86826001600160a01b031663536ebbfc6040518163ffffffff1660e01b8152600401602060405180830381865afa158015611a30573d6000803e3d6000fd5b505050506040513d601f19601f82011682018060405250810190611a5491906151a0565b6101208a01516001600160a01b037f000000000000000000000000000000000000000000000000000000000000000016929190613636565b61012d5460e0880151611ad1916001600160a01b037f00000000000000000000000000000000000000000000000000000000000000008116928a929190911690613636565b6000876101000151118015611b595750816001600160a01b031663521eb2736040518163ffffffff1660e01b8152600401602060405180830381865afa158015611b1f573d6000803e3d6000fd5b505050506040513d601f19601f82011682018060405250810190611b4391906151a0565b6001600160a01b0316866001600160a01b031614155b15611bfc57611bfc86836001600160a01b031663521eb2736040518163ffffffff1660e01b8152600401602060405180830381865afa158015611ba0573d6000803e3d6000fd5b505050506040513d601f19601f82011682018060405250810190611bc491906151a0565b6101008a01516001600160a01b037f000000000000000000000000000000000000000000000000000000000000000016929190613636565b611c1a85886000015160405180602001604052806000815250613820565b816001600160a01b03167f38f420e3792044ba61536a1f83956eefc878b3fb09a7d4a28790f05b6a3eaf3b88604051611c539190615288565b60405180910390a25050845190505b949350505050565b611c72613563565b42611c856101c083016101a08401615297565b64ffffffffff161115611cd35760405162461bcd60e51b8152602060048201526016602482015275141bdb1a58de481b9bdd08195e1c1a5c9959081e595d60521b604482015260640161092b565b610cbc611ce5368390038301836152b2565b60006001613853565b6000805160206155da8339815191526001600160a01b037f0000000000000000000000000000000000000000000000000000000000000000166312d9a6ad82336040516001600160e01b031960e085901b16815260048101929092526001600160a01b0316602482015260440160006040518083038186803b158015611d7357600080fd5b505afa158015611d87573d6000803e3d6000fd5b5050506001600160a01b038416600090815261012e602052604081209150815460ff166003811115611dbb57611dbb614c65565b14611e085760405162461bcd60e51b815260206004820152601d60248201527f436f6d706f6e656e7420616c726561647920696e2074686520706f6f6c000000604482015260640161092b565b306001600160a01b0316846001600160a01b0316634d15eb036040518163ffffffff1660e01b8152600401602060405180830381865afa158015611e50573d6000803e3d6000fd5b505050506040513d601f19601f82011682018060405250810190611e7491906151a0565b6001600160a01b031614611ed45760405162461bcd60e51b815260206004820152602160248201527f436f6d706f6e656e74206e6f74206c696e6b656420746f207468697320706f6f6044820152601b60fa1b606482015260840161092b565b6001836003811115611ee857611ee8614c65565b148015611f5f57506040516301ffc9a760e01b8152639077062160e01b60048201526001600160a01b038516906301ffc9a790602401602060405180830381865afa158015611f3b573d6000803e3d6000fd5b505050506040513d601f19601f82011682018060405250810190611f5f919061515d565b80611ff057506003836003811115611f7957611f79614c65565b148015611ff057506040516301ffc9a760e01b8152632dd9c4bb60e21b60048201526001600160a01b038516906301ffc9a790602401602060405180830381865afa158015611fcc573d6000803e3d6000fd5b505050506040513d601f19601f82011682018060405250810190611ff0919061515d565b806120815750600283600381111561200a5761200a614c65565b14801561208157506040516301ffc9a760e01b815263da40804f60e01b60048201526001600160a01b038516906301ffc9a790602401602060405180830381865afa15801561205d573d6000803e3d6000fd5b505050506040513d601f19601f82011682018060405250810190612081919061515d565b6120cd5760405162461bcd60e51b815260206004820152601e60248201527f506f6c696379506f6f6c3a204e6f7420746865207269676874206b696e640000604482015260640161092b565b8054600160ff198216811783558491839161ffff19909116176101008360038111156120fb576120fb614c65565b0217905550600383600381111561211457612114614c65565b036122c15760008490506000816001600160a01b031663536ebbfc6040518163ffffffff1660e01b8152600401602060405180830381865afa15801561215e573d6000803e3d6000fd5b505050506040513d601f19601f8201168201806040525081019061218291906151a0565b90506001600160a01b038116156121ef576040516338ea38a760e21b81526001600160a01b03838116600483015282169063e3a8e29c90602401600060405180830381600087803b1580156121d657600080fd5b505af11580156121ea573d6000803e3d6000fd5b505050505b816001600160a01b0316637b83037b6040518163ffffffff1660e01b8152600401602060405180830381865afa15801561222d573d6000803e3d6000fd5b505050506040513d601f19601f8201168201806040525081019061225191906151a0565b90506001600160a01b038116156122be576040516338ea38a760e21b81526001600160a01b03838116600483015282169063e3a8e29c90602401600060405180830381600087803b1580156122a557600080fd5b505af11580156122b9573d6000803e3d6000fd5b505050505b50505b836001600160a01b03167ffe4c6998a06520b63340a48710b374432cb395da90e4e5360e1ec7aeefebecef8460016040516122fd92919061517a565b60405180910390a250505050565b6000805160206155da8339815191526001600160a01b037f0000000000000000000000000000000000000000000000000000000000000000166312d9a6ad82336040516001600160e01b031960e085901b16815260048101929092526001600160a01b0316602482015260440160006040518083038186803b15801561239057600080fd5b505afa1580156123a4573d6000803e3d6000fd5b505050506001600160a01b038216600090815261012e602052604090206002815460ff1660038111156123d9576123d9614c65565b146124265760405162461bcd60e51b815260206004820152601860248201527f436f6d706f6e656e74206e6f7420646570726563617465640000000000000000604482015260640161092b565b60018154610100900460ff16600381111561244357612443614c65565b0361250b57826001600160a01b03166318160ddd6040518163ffffffff1660e01b8152600401602060405180830381865afa158015612486573d6000803e3d6000fd5b505050506040513d601f19601f820116820180604052508101906124aa919061511b565b156125065760405162461bcd60e51b815260206004820152602660248201527f45546f6b656e20686173206c69717569646974792c2063616e27742062652072604482015265195b5bdd995960d21b606482015260840161092b565b61287d565b60028154610100900460ff16600381111561252857612528614c65565b036125ef57826001600160a01b0316637ff8bf256040518163ffffffff1660e01b8152600401602060405180830381865afa15801561256b573d6000803e3d6000fd5b505050506040513d601f19601f8201168201806040525081019061258f919061511b565b156125065760405162461bcd60e51b815260206004820152602a60248201527f43616e27742072656d6f76652061206d6f64756c6520776974682061637469766044820152696520706f6c696369657360b01b606482015260840161092b565b60038154610100900460ff16600381111561260c5761260c614c65565b0361287d576000839050806001600160a01b03166326ccbd226040518163ffffffff1660e01b8152600401602060405180830381865afa158015612654573d6000803e3d6000fd5b505050506040513d601f19601f82011682018060405250810190612678919061511b565b156126da5760405162461bcd60e51b815260206004820152602c60248201527f43616e27742072656d6f76652061205072656d69756d734163636f756e74207760448201526b697468207072656d69756d7360a01b606482015260840161092b565b6000816001600160a01b031663536ebbfc6040518163ffffffff1660e01b8152600401602060405180830381865afa15801561271a573d6000803e3d6000fd5b505050506040513d601f19601f8201168201806040525081019061273e91906151a0565b90506001600160a01b038116156127ab576040516376c7fc5560e01b81526001600160a01b0383811660048301528216906376c7fc5590602401600060405180830381600087803b15801561279257600080fd5b505af11580156127a6573d6000803e3d6000fd5b505050505b816001600160a01b0316637b83037b6040518163ffffffff1660e01b8152600401602060405180830381865afa1580156127e9573d6000803e3d6000fd5b505050506040513d601f19601f8201168201806040525081019061280d91906151a0565b90506001600160a01b0381161561287a576040516376c7fc5560e01b81526001600160a01b0383811660048301528216906376c7fc5590602401600060405180830381600087803b15801561286157600080fd5b505af1158015612875573d6000803e3d6000fd5b505050505b50505b80546040516001600160a01b038516917ffe4c6998a06520b63340a48710b374432cb395da90e4e5360e1ec7aeefebecef916128c491610100900460ff169060009061517a565b60405180910390a250506001600160a01b0316600090815261012e60205260409020805461ffff19169055565b60006001600160a01b03821661295b5760405162461bcd60e51b815260206004820152602960248201527f4552433732313a2061646472657373207a65726f206973206e6f7420612076616044820152683634b21037bbb732b960b91b606482015260840161092b565b506001600160a01b0316600090815260fe602052604090205490565b61297f613563565b610d7c612991368490038401846152b2565b826000613853565b6000805160206156218339815191526001600160a01b037f0000000000000000000000000000000000000000000000000000000000000000166312d9a6ad82336040516001600160e01b031960e085901b16815260048101929092526001600160a01b0316602482015260440160006040518083038186803b158015612a1e57600080fd5b505afa158015612a32573d6000803e3d6000fd5b50505050610cbc613d13565b606060fc805461080f90615001565b610d7c338383613d50565b612a623383612f05565b612a7e5760405162461bcd60e51b815260040161092b90615035565b610a6d84848484613e1f565b6060612a9582612e38565b6000612aac60408051602081019091526000815290565b90506000815111612acc5760405180602001604052806000815250612af7565b80612ad684613e52565b604051602001612ae79291906152cf565b6040516020818303038152906040525b9392505050565b6001600160a01b0391821660009081526101006020908152604080832093909416825291909152205460ff1690565b6000805160206155da8339815191526001600160a01b037f0000000000000000000000000000000000000000000000000000000000000000166312d9a6ad82336040516001600160e01b031960e085901b16815260048101929092526001600160a01b0316602482015260440160006040518083038186803b158015612bb257600080fd5b505afa158015612bc6573d6000803e3d6000fd5b50505050610d7c82613f53565b6000612bdd613563565b6000612be8846135a9565b90506001816003811115612bfe57612bfe614c65565b1480612c1b57506002816003811115612c1957612c19614c65565b145b612c795760405162461bcd60e51b815260206004820152602960248201527f65546f6b656e206e6f7420666f756e64206f7220776974686472617773206e6f6044820152681d08185b1b1bddd95960ba1b606482015260840161092b565b60003360405163f3fef3a360e01b81526001600160a01b038083166004830152602482018790529192509086169063f3fef3a3906044016020604051808303816000875af1158015612ccf573d6000803e3d6000fd5b505050506040513d601f19601f82011682018060405250810190612cf3919061511b565b95945050505050565b612d04613563565b610d7c612d16368490038401846152b2565b82612d22576000612d28565b83602001355b6000613853565b60006001600160e01b031982166380ac58cd60e01b1480612d6057506001600160e01b03198216635b5e139f60e01b145b806107fa57506301ffc9a760e01b6001600160e01b03198316146107fa565b600054610100900460ff16612da65760405162461bcd60e51b815260040161092b906152fe565b565b600054610100900460ff16612dcf5760405162461bcd60e51b815260040161092b906152fe565b610d7c8282614023565b600054610100900460ff16612e005760405162461bcd60e51b815260040161092b906152fe565b612da6614063565b600054610100900460ff16612e2f5760405162461bcd60e51b815260040161092b906152fe565b610cbc81613f53565b600081815260fd60205260409020546001600160a01b0316610cbc5760405162461bcd60e51b8152602060048201526018602482015277115490cdcc8c4e881a5b9d985b1a59081d1bdad95b88125160421b604482015260640161092b565b600081815260ff6020526040902080546001600160a01b0319166001600160a01b0384169081179091558190612ecc826115d8565b6001600160a01b03167f8c5be1e5ebec7d5bd14f71427d1e84f3dd0314c0f7b2291e5b200ac8c7c3b92560405160405180910390a45050565b600080612f11836115d8565b9050806001600160a01b0316846001600160a01b03161480612f385750612f388185612afe565b80611c625750836001600160a01b0316612f5184610a73565b6001600160a01b031614949350505050565b826001600160a01b0316612f76826115d8565b6001600160a01b031614612fda5760405162461bcd60e51b815260206004820152602560248201527f4552433732313a207472616e736665722066726f6d20696e636f72726563742060448201526437bbb732b960d91b606482015260840161092b565b6001600160a01b03821661303c5760405162461bcd60e51b8152602060048201526024808201527f4552433732313a207472616e7366657220746f20746865207a65726f206164646044820152637265737360e01b606482015260840161092b565b613047838383614096565b613052600082612e97565b6001600160a01b038316600090815260fe6020526040812080546001929061307b90849061514a565b90915550506001600160a01b038216600090815260fe602052604081208054600192906130a99084906151bd565b9091555050600081815260fd602052604080822080546001600160a01b0319166001600160a01b0386811691821790925591518493918716917fddf252ad1be2c89b69c2b068fc378daa952ba7f163c4a11628f55a4df523b3ef91a4505050565b6000805160206156218339815191526000805160206155da8339815191526001600160a01b037f00000000000000000000000000000000000000000000000000000000000000001663c5b8f5cf8383336040516001600160e01b031960e086901b168152600481019390935260248301919091526001600160a01b0316604482015260640160006040518083038186803b1580156131a757600080fd5b505afa1580156131bb573d6000803e3d6000fd5b5050505060008390507f00000000000000000000000000000000000000000000000000000000000000006001600160a01b0316816001600160a01b03166371907f176040518163ffffffff1660e01b8152600401602060405180830381865afa15801561322c573d6000803e3d6000fd5b505050506040513d601f19601f8201168201806040525081019061325091906151a0565b6001600160a01b0316146132b85760405162461bcd60e51b815260206004820152602960248201527f43616e27742075706772616465206368616e67696e6720746865206163636573604482015268399036b0b730b3b2b960b91b606482015260840161092b565b7f00000000000000000000000000000000000000000000000000000000000000006001600160a01b0316816001600160a01b031663e5a6b10f6040518163ffffffff1660e01b8152600401602060405180830381865afa158015613320573d6000803e3d6000fd5b505050506040513d601f19601f8201168201806040525081019061334491906151a0565b6001600160a01b031614610a6d5760405162461bcd60e51b815260206004820152602360248201527f43616e27742075706772616465206368616e67696e67207468652063757272656044820152626e637960e81b606482015260840161092b565b7f4910fdfa16fed3260ed0e7147f7cc6da11a60208b5b9406d12a635614ffd91435460ff16156133d957610baa8361409e565b826001600160a01b03166352d1902d6040518163ffffffff1660e01b8152600401602060405180830381865afa925050508015613433575060408051601f3d908101601f191682019092526134309181019061511b565b60015b6134965760405162461bcd60e51b815260206004820152602e60248201527f45524331393637557067726164653a206e657720696d706c656d656e7461746960448201526d6f6e206973206e6f74205555505360901b606482015260840161092b565b6000805160206155ba83398151915281146135055760405162461bcd60e51b815260206004820152602960248201527f45524331393637557067726164653a20756e737570706f727465642070726f786044820152681a58589b195555525160ba1b606482015260840161092b565b50610baa83838361413a565b61351961415f565b6033805460ff191690557f5db9ee0a495bf2e6ff9c91a7834c1ba4fdd244a5e8aa4e537bd38aeae4b073aa335b6040516001600160a01b03909116815260200160405180910390a1565b60335460ff1615612da65760405162461bcd60e51b815260206004820152601060248201526f14185d5cd8589b194e881c185d5cd95960821b604482015260640161092b565b6001600160a01b038116600090815261012e6020526040812060018154610100900460ff1660038111156135df576135df614c65565b1461362c5760405162461bcd60e51b815260206004820152601a60248201527f436f6d706f6e656e74206973206e6f7420616e2065546f6b656e000000000000604482015260640161092b565b5460ff1692915050565b604080516001600160a01b0385811660248301528416604482015260648082018490528251808303909101815260849091019091526020810180516001600160e01b03166323b872dd60e01b179052610a6d9085906141a8565b6001600160a01b038116600090815261012e6020526040812060028154610100900460ff1660038111156136c6576136c6614c65565b1461362c5760405162461bcd60e51b815260206004820152601d60248201527f436f6d706f6e656e74206973206e6f742061205269736b4d6f64756c65000000604482015260640161092b565b6001600160a01b038116600090815261012e6020526040812060038154610100900460ff16600381111561374957613749614c65565b1461362c5760405162461bcd60e51b815260206004820152602260248201527f436f6d706f6e656e74206973206e6f742061205072656d69756d734163636f756044820152611b9d60f21b606482015260840161092b565b6000816040516020016137b49190615288565b60408051601f19818403018152919052805160209091012090508061381b5760405162461bcd60e51b815260206004820152601860248201527f506f6c6963793a20686173682063616e6e6f7420626520300000000000000000604482015260640161092b565b919050565b61382a838361427a565b61383760008484846143c8565b610baa5760405162461bcd60e51b815260040161092b90615349565b61385c836144c6565b610160830151818061387657506001600160a01b03811633145b6138c25760405162461bcd60e51b815260206004820181905260248201527f4f6e6c792074686520524d2063616e207265736f6c766520706f6c6963696573604482015260640161092b565b8215806138da575042846101a0015164ffffffffff16115b6139265760405162461bcd60e51b815260206004820152601860248201527f43616e277420706179206578706972656420706f6c6963790000000000000000604482015260640161092b565b600061393182613690565b9050600181600381111561394757613947614c65565b14806139645750600281600381111561396257613962614c65565b145b6139d65760405162461bcd60e51b815260206004820152603a60248201527f4d6f64756c65206d75737420626520616374697665206f72206465707265636160448201527f74656420746f2070726f63657373207265736f6c7574696f6e73000000000000606482015260840161092b565b8460200151841115613a235760405162461bcd60e51b81526020600482015260166024820152751c185e5bdd5d080f881c1bdb1a58de4b9c185e5bdd5d60521b604482015260640161092b565b600080851190506000836001600160a01b03166373a952e86040518163ffffffff1660e01b8152600401602060405180830381865afa158015613a6a573d6000803e3d6000fd5b505050506040513d601f19601f82011682018060405250810190613a8e91906151a0565b9050613a9981613713565b92506001836003811115613aaf57613aaf614c65565b1480613acc57506002836003811115613aca57613aca614c65565b145b613b4a5760405162461bcd60e51b815260206004820152604360248201527f5072656d69756d734163636f756e74206d75737420626520616374697665206f60448201527f72206465707265636174656420746f2070726f63657373207265736f6c7574696064820152626f6e7360e81b608482015260a40161092b565b8651600090815261012f60205260408120558115613bdc576000613b7188600001516115d8565b604051639d8c5ee760e01b81529091506001600160a01b03831690639d8c5ee790613ba49084908c908c9060040161539b565b600060405180830381600087803b158015613bbe57600080fd5b505af1158015613bd2573d6000803e3d6000fd5b5050505050613c3b565b60405163c7a9c70d60e01b81526001600160a01b0382169063c7a9c70d90613c08908a90600401615288565b600060405180830381600087803b158015613c2257600080fd5b505af1158015613c36573d6000803e3d6000fd5b505050505b6020870151604051636a448ef160e01b815260048101919091526001600160a01b03851690636a448ef190602401600060405180830381600087803b158015613c8357600080fd5b505af1158015613c97573d6000803e3d6000fd5b5050505086600001518761016001516001600160a01b03167f54f4a270ea08f88dc23b2520d6b063fecb24d956c4496f447926d736338f545e88604051613ce091815260200190565b60405180910390a38515613cff578651613cfa908761452d565b613d0a565b8651613d0a90614687565b50505050505050565b613d1b613563565b6033805460ff191660011790557f62e78cea01bee320cd4e420270b5ea74000d11b0c9f74754ebdbfc544b05a2586135463390565b816001600160a01b0316836001600160a01b031603613db15760405162461bcd60e51b815260206004820152601960248201527f4552433732313a20617070726f766520746f2063616c6c657200000000000000604482015260640161092b565b6001600160a01b0383811660008181526101006020908152604080832094871680845294825291829020805460ff191686151590811790915591519182527f17307eab39ab6107e8899845ad3d59bd9653f200f220920489ca2b5937696c31910160405180910390a3505050565b613e2a848484612f63565b613e36848484846143c8565b610a6d5760405162461bcd60e51b815260040161092b90615349565b606081600003613e795750506040805180820190915260018152600360fc1b602082015290565b8160005b8115613ea35780613e8d816153c8565b9150613e9c9050600a836153f7565b9150613e7d565b60008167ffffffffffffffff811115613ebe57613ebe614a68565b6040519080825280601f01601f191660200182016040528015613ee8576020820181803683370190505b5090505b8415611c6257613efd60018361514a565b9150613f0a600a8661540b565b613f159060306151bd565b60f81b818381518110613f2a57613f2a61541f565b60200101906001600160f81b031916908160001a905350613f4c600a866153f7565b9450613eec565b6001600160a01b038116613fc15760405162461bcd60e51b815260206004820152602f60248201527f506f6c696379506f6f6c3a2074726561737572792063616e6e6f74206265207460448201526e6865207a65726f206164647265737360881b606482015260840161092b565b61012d80546001600160a01b0319166001600160a01b038316179055600161012d546040516001600160a01b0390911681527fb6bdbd44472629fc24a00b6f4ee3348b72c9eff333d0e9c16d78c49da1323c8f9060200160405180910390a250565b600054610100900460ff1661404a5760405162461bcd60e51b815260040161092b906152fe565b60fb6140568382615483565b5060fc610baa8282615483565b600054610100900460ff1661408a5760405162461bcd60e51b815260040161092b906152fe565b6033805460ff19169055565b610baa613563565b6001600160a01b0381163b61410b5760405162461bcd60e51b815260206004820152602d60248201527f455243313936373a206e657720696d706c656d656e746174696f6e206973206e60448201526c1bdd08184818dbdb9d1c9858dd609a1b606482015260840161092b565b6000805160206155ba83398151915280546001600160a01b0319166001600160a01b0392909216919091179055565b6141438361472e565b6000825111806141505750805b15610baa57610a6d838361476e565b60335460ff16612da65760405162461bcd60e51b815260206004820152601460248201527314185d5cd8589b194e881b9bdd081c185d5cd95960621b604482015260640161092b565b60006141fd826040518060400160405280602081526020017f5361666545524332303a206c6f772d6c6576656c2063616c6c206661696c6564815250856001600160a01b03166148599092919063ffffffff16565b805190915015610baa578080602001905181019061421b919061515d565b610baa5760405162461bcd60e51b815260206004820152602a60248201527f5361666545524332303a204552433230206f7065726174696f6e20646964206e6044820152691bdd081cdd58d8d9595960b21b606482015260840161092b565b6001600160a01b0382166142d05760405162461bcd60e51b815260206004820181905260248201527f4552433732313a206d696e7420746f20746865207a65726f2061646472657373604482015260640161092b565b600081815260fd60205260409020546001600160a01b0316156143355760405162461bcd60e51b815260206004820152601c60248201527f4552433732313a20746f6b656e20616c7265616479206d696e74656400000000604482015260640161092b565b61434160008383614096565b6001600160a01b038216600090815260fe6020526040812080546001929061436a9084906151bd565b9091555050600081815260fd602052604080822080546001600160a01b0319166001600160a01b03861690811790915590518392907fddf252ad1be2c89b69c2b068fc378daa952ba7f163c4a11628f55a4df523b3ef908290a45050565b60006001600160a01b0384163b156144be57604051630a85bd0160e11b81526001600160a01b0385169063150b7a029061440c903390899088908890600401615543565b6020604051808303816000875af1925050508015614447575060408051601f3d908101601f1916820190925261444491810190615580565b60015b6144a4573d808015614475576040519150601f19603f3d011682016040523d82523d6000602084013e61447a565b606091505b50805160000361449c5760405162461bcd60e51b815260040161092b90615349565b805181602001fd5b6001600160e01b031916630a85bd0160e11b149050611c62565b506001611c62565b8051158015906144ee57508051600090815261012f60205260409020546144ec826137a1565b145b610cbc5760405162461bcd60e51b815260206004820152601060248201526f141bdb1a58de481b9bdd08199bdd5b9960821b604482015260640161092b565b6000614538836115d8565b90506001600160a01b0381163b61454e57505050565b6001600160a01b03811663d6281d3e336040516001600160e01b031960e084901b1681526001600160a01b03909116600482015230602482015260448101869052606481018590526084016020604051808303816000875af19250505080156145d4575060408051601f3d908101601f191682019092526145d191810190615580565b60015b614617573d808015614602576040519150601f19603f3d011682016040523d82523d6000602084013e614607565b606091505b50805160000361449c5750505050565b6001600160e01b03198116636b140e9f60e11b14610a6d5760405162461bcd60e51b815260206004820152602760248201527f496e76616c69642072657475726e2076616c75652066726f6d20506f6c696379604482015266102437b63232b960c91b606482015260840161092b565b6000614692826115d8565b90506001600160a01b0381163b6146a7575050565b6001600160a01b03811663e8e617b7336040516001600160e01b031960e084901b1681526001600160a01b039091166004820152306024820152604481018590526064016020604051808303816000875af1925050508015614726575060408051601f3d908101601f1916820190925261472391810190615580565b60015b610baa575050565b6147378161409e565b6040516001600160a01b038216907fbc7cd75a20ee27fd9adebab32041f755214dbc6bffa90cc0225b39da2e5c2d3b90600090a250565b60606001600160a01b0383163b6147d65760405162461bcd60e51b815260206004820152602660248201527f416464726573733a2064656c65676174652063616c6c20746f206e6f6e2d636f6044820152651b9d1c9858dd60d21b606482015260840161092b565b600080846001600160a01b0316846040516147f1919061559d565b600060405180830381855af49150503d806000811461482c576040519150601f19603f3d011682016040523d82523d6000602084013e614831565b606091505b5091509150612cf382826040518060600160405280602781526020016155fa60279139614868565b6060611c6284846000856148a1565b60608315614877575081612af7565b8251156148875782518084602001fd5b8160405162461bcd60e51b815260040161092b9190614a55565b6060824710156149025760405162461bcd60e51b815260206004820152602660248201527f416464726573733a20696e73756666696369656e742062616c616e636520666f6044820152651c8818d85b1b60d21b606482015260840161092b565b6001600160a01b0385163b6149595760405162461bcd60e51b815260206004820152601d60248201527f416464726573733a2063616c6c20746f206e6f6e2d636f6e7472616374000000604482015260640161092b565b600080866001600160a01b03168587604051614975919061559d565b60006040518083038185875af1925050503d80600081146149b2576040519150601f19603f3d011682016040523d82523d6000602084013e6149b7565b606091505b50915091506149c7828286614868565b979650505050505050565b6001600160e01b031981168114610cbc57600080fd5b6000602082840312156149fa57600080fd5b8135612af7816149d2565b60005b83811015614a20578181015183820152602001614a08565b50506000910152565b60008151808452614a41816020860160208601614a05565b601f01601f19169290920160200192915050565b602081526000612af76020830184614a29565b634e487b7160e01b600052604160045260246000fd5b6040516101c0810167ffffffffffffffff81118282101715614aa257614aa2614a68565b60405290565b600082601f830112614ab957600080fd5b813567ffffffffffffffff80821115614ad457614ad4614a68565b604051601f8301601f19908116603f01168101908282118183101715614afc57614afc614a68565b81604052838152866020858801011115614b1557600080fd5b836020870160208301376000602085830101528094505050505092915050565b6001600160a01b0381168114610cbc57600080fd5b600080600060608486031215614b5f57600080fd5b833567ffffffffffffffff80821115614b7757600080fd5b614b8387838801614aa8565b94506020860135915080821115614b9957600080fd5b50614ba686828701614aa8565b9250506040840135614bb781614b35565b809150509250925092565b600060208284031215614bd457600080fd5b5035919050565b60008060408385031215614bee57600080fd5b8235614bf981614b35565b946020939093013593505050565b600080600060608486031215614c1c57600080fd5b8335614c2781614b35565b92506020840135614c3781614b35565b929592945050506040919091013590565b600060208284031215614c5a57600080fd5b8135612af781614b35565b634e487b7160e01b600052602160045260246000fd5b60048110610cbc57634e487b7160e01b600052602160045260246000fd5b60208101614ca683614c7b565b91905290565b60008060408385031215614cbf57600080fd5b8235614cca81614b35565b9150602083013567ffffffffffffffff811115614ce657600080fd5b614cf285828601614aa8565b9150509250929050565b60048110610cbc57600080fd5b60008060408385031215614d1c57600080fd5b8235614d2781614b35565b91506020830135614d3781614cfc565b809150509250929050565b803561381b81614b35565b803564ffffffffff8116811461381b57600080fd5b60006101c08284031215614d7557600080fd5b614d7d614a7e565b9050813581526020820135602082015260408201356040820152606082013560608201526080820135608082015260a082013560a082015260c082013560c082015260e082013560e0820152610100808301358183015250610120808301358183015250610140808301358183015250610160614dfb818401614d42565b90820152610180614e0d838201614d4d565b908201526101a0614e1f838201614d4d565b9082015292915050565b6000806000806102208587031215614e4057600080fd5b614e4a8686614d62565b93506101c0850135614e5b81614b35565b92506101e0850135614e6c81614b35565b91506102008501356bffffffffffffffffffffffff81168114614e8e57600080fd5b939692955090935050565b60006101c08284031215614eac57600080fd5b50919050565b60006101c08284031215614ec557600080fd5b612af78383614e99565b6000806101e08385031215614ee357600080fd5b614eed8484614e99565b946101c0939093013593505050565b8015158114610cbc57600080fd5b60008060408385031215614f1d57600080fd5b8235614f2881614b35565b91506020830135614d3781614efc565b60008060008060808587031215614f4e57600080fd5b8435614f5981614b35565b93506020850135614f6981614b35565b925060408501359150606085013567ffffffffffffffff811115614f8c57600080fd5b614f9887828801614aa8565b91505092959194509250565b60008060408385031215614fb757600080fd5b8235614fc281614b35565b91506020830135614d3781614b35565b6000806101e08385031215614fe657600080fd5b614ff08484614e99565b91506101c0830135614d3781614efc565b600181811c9082168061501557607f821691505b602082108103614eac57634e487b7160e01b600052602260045260246000fd5b6020808252602e908201527f4552433732313a2063616c6c6572206973206e6f7420746f6b656e206f776e6560408201526d1c881b9bdc88185c1c1c9bdd995960921b606082015260800190565b6020808252602c908201527f46756e6374696f6e206d7573742062652063616c6c6564207468726f7567682060408201526b19195b1959d85d1958d85b1b60a21b606082015260800190565b6020808252602c908201527f46756e6374696f6e206d7573742062652063616c6c6564207468726f7567682060408201526b6163746976652070726f787960a01b606082015260800190565b60006020828403121561512d57600080fd5b5051919050565b634e487b7160e01b600052601160045260246000fd5b818103818111156107fa576107fa615134565b60006020828403121561516f57600080fd5b8151612af781614efc565b6040810161518784614c7b565b83825261519383614c7b565b8260208301529392505050565b6000602082840312156151b257600080fd5b8151612af781614b35565b808201808211156107fa576107fa615134565b805182526020810151602083015260408101516040830152606081015160608301526080810151608083015260a081015160a083015260c081015160c083015260e081015160e083015261010080820151818401525061012080820151818401525061014080820151818401525061016080820151615259828501826001600160a01b03169052565b50506101808181015164ffffffffff81168483015250506101a08181015164ffffffffff811684830152610a6d565b6101c081016107fa82846151d0565b6000602082840312156152a957600080fd5b612af782614d4d565b60006101c082840312156152c557600080fd5b612af78383614d62565b600083516152e1818460208801614a05565b8351908301906152f5818360208801614a05565b01949350505050565b6020808252602b908201527f496e697469616c697a61626c653a20636f6e7472616374206973206e6f74206960408201526a6e697469616c697a696e6760a81b606082015260800190565b60208082526032908201527f4552433732313a207472616e7366657220746f206e6f6e20455243373231526560408201527131b2b4bb32b91034b6b83632b6b2b73a32b960711b606082015260800190565b6001600160a01b038416815261020081016153b960208301856151d0565b826101e0830152949350505050565b6000600182016153da576153da615134565b5060010190565b634e487b7160e01b600052601260045260246000fd5b600082615406576154066153e1565b500490565b60008261541a5761541a6153e1565b500690565b634e487b7160e01b600052603260045260246000fd5b601f821115610baa57600081815260208120601f850160051c8101602086101561545c5750805b601f850160051c820191505b8181101561547b57828155600101615468565b505050505050565b815167ffffffffffffffff81111561549d5761549d614a68565b6154b1816154ab8454615001565b84615435565b602080601f8311600181146154e657600084156154ce5750858301515b600019600386901b1c1916600185901b17855561547b565b600085815260208120601f198616915b82811015615515578886015182559484019460019091019084016154f6565b50858210156155335787850151600019600388901b60f8161c191681555b5050505050600190811b01905550565b6001600160a01b038581168252841660208201526040810183905260806060820181905260009061557690830184614a29565b9695505050505050565b60006020828403121561559257600080fd5b8151612af7816149d2565b600082516155af818460208701614a05565b919091019291505056fe360894a13ba1a3210667c828492db98dca3e2076cc3735a920a3ca505d382bbcbf372ca3ebecfe59ac256f17697941bbe63302aced610e8b0e3646f743c7beb2416464726573733a206c6f772d6c6576656c2064656c65676174652063616c6c206661696c656455435dd261a4b9b3364963f7738a7a662ad9c84396d64be3365284bb7f0a5041a2646970667358221220c5ace0254604cec83f240fb46bc1f4d6a76e931fd1435ee5418496653266fd5c64736f6c63430008100033",
  "linkReferences": {},
  "deployedLinkReferences": {}
}