{
  "_format": "hh-sol-artifact-1",
  "contractName": "SignedQuoteRiskModule",
  "sourceName": "contracts/SignedQuoteRiskModule.sol",
  "abi": [
    {
      "inputs": [
        {
          "internalType": "contract IPolicyPool",
          "name": "policyPool_",
          "type": "address"
        },
        {
          "internalType": "contract IPremiumsAccount",
          "name": "premiumsAccount_",
          "type": "address"
        },
        {
          "internalType": "bool",
          "name": "creationIsOpen_",
          "type": "bool"
        }
      ],
      "stateMutability": "nonpayable",
      "type": "constructor"
    },
    {
      "anonymous": false,
      "inputs": [
        {
          "indexed": false,
          "internalType": "address",
          "name": "previousAdmin",
          "type": "address"
        },
        {
          "indexed": false,
          "internalType": "address",
          "name": "newAdmin",
          "type": "address"
        }
      ],
      "name": "AdminChanged",
      "type": "event"
    },
    {
      "anonymous": false,
      "inputs": [
        {
          "indexed": true,
          "internalType": "address",
          "name": "beacon",
          "type": "address"
        }
      ],
      "name": "BeaconUpgraded",
      "type": "event"
    },
    {
      "anonymous": false,
      "inputs": [
        {
          "indexed": true,
          "internalType": "enum IAccessManager.GovernanceActions",
          "name": "action",
          "type": "uint8"
        },
        {
          "indexed": false,
          "internalType": "address",
          "name": "value",
          "type": "address"
        }
      ],
      "name": "ComponentChanged",
      "type": "event"
    },
    {
      "anonymous": false,
      "inputs": [
        {
          "indexed": true,
          "internalType": "enum IAccessManager.GovernanceActions",
          "name": "action",
          "type": "uint8"
        },
        {
          "indexed": false,
          "internalType": "uint256",
          "name": "value",
          "type": "uint256"
        }
      ],
      "name": "GovernanceAction",
      "type": "event"
    },
    {
      "anonymous": false,
      "inputs": [
        {
          "indexed": false,
          "internalType": "uint8",
          "name": "version",
          "type": "uint8"
        }
      ],
      "name": "Initialized",
      "type": "event"
    },
    {
      "anonymous": false,
      "inputs": [
        {
          "indexed": true,
          "internalType": "uint256",
          "name": "policyId",
          "type": "uint256"
        },
        {
          "indexed": false,
          "internalType": "bytes32",
          "name": "policyData",
          "type": "bytes32"
        }
      ],
      "name": "NewSignedPolicy",
      "type": "event"
    },
    {
      "anonymous": false,
      "inputs": [
        {
          "indexed": false,
          "internalType": "address",
          "name": "account",
          "type": "address"
        }
      ],
      "name": "Paused",
      "type": "event"
    },
    {
      "anonymous": false,
      "inputs": [
        {
          "indexed": false,
          "internalType": "address",
          "name": "account",
          "type": "address"
        }
      ],
      "name": "Unpaused",
      "type": "event"
    },
    {
      "anonymous": false,
      "inputs": [
        {
          "indexed": true,
          "internalType": "address",
          "name": "implementation",
          "type": "address"
        }
      ],
      "name": "Upgraded",
      "type": "event"
    },
    {
      "inputs": [],
      "name": "GUARDIAN_ROLE",
      "outputs": [
        {
          "internalType": "bytes32",
          "name": "",
          "type": "bytes32"
        }
      ],
      "stateMutability": "view",
      "type": "function"
    },
    {
      "inputs": [],
      "name": "LEVEL1_ROLE",
      "outputs": [
        {
          "internalType": "bytes32",
          "name": "",
          "type": "bytes32"
        }
      ],
      "stateMutability": "view",
      "type": "function"
    },
    {
      "inputs": [],
      "name": "LEVEL2_ROLE",
      "outputs": [
        {
          "internalType": "bytes32",
          "name": "",
          "type": "bytes32"
        }
      ],
      "stateMutability": "view",
      "type": "function"
    },
    {
      "inputs": [],
      "name": "LEVEL3_ROLE",
      "outputs": [
        {
          "internalType": "bytes32",
          "name": "",
          "type": "bytes32"
        }
      ],
      "stateMutability": "view",
      "type": "function"
    },
    {
      "inputs": [],
      "name": "POLICY_CREATOR_ROLE",
      "outputs": [
        {
          "internalType": "bytes32",
          "name": "",
          "type": "bytes32"
        }
      ],
      "stateMutability": "view",
      "type": "function"
    },
    {
      "inputs": [],
      "name": "PRICER_ROLE",
      "outputs": [
        {
          "internalType": "bytes32",
          "name": "",
          "type": "bytes32"
        }
      ],
      "stateMutability": "view",
      "type": "function"
    },
    {
      "inputs": [],
      "name": "RESOLVER_ROLE",
      "outputs": [
        {
          "internalType": "bytes32",
          "name": "",
          "type": "bytes32"
        }
      ],
      "stateMutability": "view",
      "type": "function"
    },
    {
      "inputs": [],
      "name": "RM_PROVIDER_ROLE",
      "outputs": [
        {
          "internalType": "bytes32",
          "name": "",
          "type": "bytes32"
        }
      ],
      "stateMutability": "view",
      "type": "function"
    },
    {
      "inputs": [],
      "name": "TWEAK_EXPIRATION",
      "outputs": [
        {
          "internalType": "uint40",
          "name": "",
          "type": "uint40"
        }
      ],
      "stateMutability": "view",
      "type": "function"
    },
    {
      "inputs": [],
      "name": "activeExposure",
      "outputs": [
        {
          "internalType": "uint256",
          "name": "",
          "type": "uint256"
        }
      ],
      "stateMutability": "view",
      "type": "function"
    },
    {
      "inputs": [],
      "name": "currency",
      "outputs": [
        {
          "internalType": "contract IERC20Metadata",
          "name": "",
          "type": "address"
        }
      ],
      "stateMutability": "view",
      "type": "function"
    },
    {
      "inputs": [],
      "name": "exposureLimit",
      "outputs": [
        {
          "internalType": "uint256",
          "name": "",
          "type": "uint256"
        }
      ],
      "stateMutability": "view",
      "type": "function"
    },
    {
      "inputs": [
        {
          "internalType": "uint256",
          "name": "payout",
          "type": "uint256"
        },
        {
          "internalType": "uint256",
          "name": "lossProb",
          "type": "uint256"
        },
        {
          "internalType": "uint40",
          "name": "expiration",
          "type": "uint40"
        }
      ],
      "name": "getMinimumPremium",
      "outputs": [
        {
          "internalType": "uint256",
          "name": "",
          "type": "uint256"
        }
      ],
      "stateMutability": "view",
      "type": "function"
    },
    {
      "inputs": [
        {
          "internalType": "string",
          "name": "name_",
          "type": "string"
        },
        {
          "internalType": "uint256",
          "name": "collRatio_",
          "type": "uint256"
        },
        {
          "internalType": "uint256",
          "name": "ensuroPpFee_",
          "type": "uint256"
        },
        {
          "internalType": "uint256",
          "name": "srRoc_",
          "type": "uint256"
        },
        {
          "internalType": "uint256",
          "name": "maxPayoutPerPolicy_",
          "type": "uint256"
        },
        {
          "internalType": "uint256",
          "name": "exposureLimit_",
          "type": "uint256"
        },
        {
          "internalType": "address",
          "name": "wallet_",
          "type": "address"
        }
      ],
      "name": "initialize",
      "outputs": [],
      "stateMutability": "nonpayable",
      "type": "function"
    },
    {
      "inputs": [],
      "name": "lastTweak",
      "outputs": [
        {
          "internalType": "uint40",
          "name": "",
          "type": "uint40"
        },
        {
          "internalType": "uint56",
          "name": "",
          "type": "uint56"
        }
      ],
      "stateMutability": "view",
      "type": "function"
    },
    {
      "inputs": [],
      "name": "maxDuration",
      "outputs": [
        {
          "internalType": "uint256",
          "name": "",
          "type": "uint256"
        }
      ],
      "stateMutability": "view",
      "type": "function"
    },
    {
      "inputs": [],
      "name": "maxPayoutPerPolicy",
      "outputs": [
        {
          "internalType": "uint256",
          "name": "",
          "type": "uint256"
        }
      ],
      "stateMutability": "view",
      "type": "function"
    },
    {
      "inputs": [],
      "name": "name",
      "outputs": [
        {
          "internalType": "string",
          "name": "",
          "type": "string"
        }
      ],
      "stateMutability": "view",
      "type": "function"
    },
    {
      "inputs": [
        {
          "internalType": "uint256",
          "name": "payout",
          "type": "uint256"
        },
        {
          "internalType": "uint256",
          "name": "premium",
          "type": "uint256"
        },
        {
          "internalType": "uint256",
          "name": "lossProb",
          "type": "uint256"
        },
        {
          "internalType": "uint40",
          "name": "expiration",
          "type": "uint40"
        },
        {
          "internalType": "address",
          "name": "onBehalfOf",
          "type": "address"
        },
        {
          "internalType": "bytes32",
          "name": "policyData",
          "type": "bytes32"
        },
        {
          "internalType": "bytes32",
          "name": "quoteSignatureR",
          "type": "bytes32"
        },
        {
          "internalType": "bytes32",
          "name": "quoteSignatureVS",
          "type": "bytes32"
        },
        {
          "internalType": "uint40",
          "name": "quoteValidUntil",
          "type": "uint40"
        }
      ],
      "name": "newPolicy",
      "outputs": [
        {
          "internalType": "uint256",
          "name": "",
          "type": "uint256"
        }
      ],
      "stateMutability": "nonpayable",
      "type": "function"
    },
    {
      "inputs": [
        {
          "internalType": "uint256",
          "name": "payout",
          "type": "uint256"
        },
        {
          "internalType": "uint256",
          "name": "premium",
          "type": "uint256"
        },
        {
          "internalType": "uint256",
          "name": "lossProb",
          "type": "uint256"
        },
        {
          "internalType": "uint40",
          "name": "expiration",
          "type": "uint40"
        },
        {
          "internalType": "address",
          "name": "onBehalfOf",
          "type": "address"
        },
        {
          "internalType": "bytes32",
          "name": "policyData",
          "type": "bytes32"
        },
        {
          "internalType": "bytes32",
          "name": "quoteSignatureR",
          "type": "bytes32"
        },
        {
          "internalType": "bytes32",
          "name": "quoteSignatureVS",
          "type": "bytes32"
        },
        {
          "internalType": "uint40",
          "name": "quoteValidUntil",
          "type": "uint40"
        }
      ],
      "name": "newPolicyFull",
      "outputs": [
        {
          "components": [
            {
              "internalType": "uint256",
              "name": "id",
              "type": "uint256"
            },
            {
              "internalType": "uint256",
              "name": "payout",
              "type": "uint256"
            },
            {
              "internalType": "uint256",
              "name": "premium",
              "type": "uint256"
            },
            {
              "internalType": "uint256",
              "name": "jrScr",
              "type": "uint256"
            },
            {
              "internalType": "uint256",
              "name": "srScr",
              "type": "uint256"
            },
            {
              "internalType": "uint256",
              "name": "lossProb",
              "type": "uint256"
            },
            {
              "internalType": "uint256",
              "name": "purePremium",
              "type": "uint256"
            },
            {
              "internalType": "uint256",
              "name": "ensuroCommission",
              "type": "uint256"
            },
            {
              "internalType": "uint256",
              "name": "partnerCommission",
              "type": "uint256"
            },
            {
              "internalType": "uint256",
              "name": "jrCoc",
              "type": "uint256"
            },
            {
              "internalType": "uint256",
              "name": "srCoc",
              "type": "uint256"
            },
            {
              "internalType": "contract IRiskModule",
              "name": "riskModule",
              "type": "address"
            },
            {
              "internalType": "uint40",
              "name": "start",
              "type": "uint40"
            },
            {
              "internalType": "uint40",
              "name": "expiration",
              "type": "uint40"
            }
          ],
          "internalType": "struct Policy.PolicyData",
          "name": "createdPolicy",
          "type": "tuple"
        }
      ],
      "stateMutability": "nonpayable",
      "type": "function"
    },
    {
      "inputs": [
        {
          "internalType": "uint256",
          "name": "payout",
          "type": "uint256"
        },
        {
          "internalType": "uint256",
          "name": "premium",
          "type": "uint256"
        },
        {
          "internalType": "uint256",
          "name": "lossProb",
          "type": "uint256"
        },
        {
          "internalType": "uint40",
          "name": "expiration",
          "type": "uint40"
        },
        {
          "internalType": "address",
          "name": "onBehalfOf",
          "type": "address"
        },
        {
          "internalType": "bytes32",
          "name": "policyData",
          "type": "bytes32"
        },
        {
          "internalType": "bytes32",
          "name": "quoteSignatureR",
          "type": "bytes32"
        },
        {
          "internalType": "bytes32",
          "name": "quoteSignatureVS",
          "type": "bytes32"
        },
        {
          "internalType": "uint40",
          "name": "quoteValidUntil",
          "type": "uint40"
        }
      ],
      "name": "newPolicyPaidByHolder",
      "outputs": [
        {
          "internalType": "uint256",
          "name": "",
          "type": "uint256"
        }
      ],
      "stateMutability": "nonpayable",
      "type": "function"
    },
    {
      "inputs": [],
      "name": "params",
      "outputs": [
        {
          "components": [
            {
              "internalType": "uint256",
              "name": "moc",
              "type": "uint256"
            },
            {
              "internalType": "uint256",
              "name": "jrCollRatio",
              "type": "uint256"
            },
            {
              "internalType": "uint256",
              "name": "collRatio",
              "type": "uint256"
            },
            {
              "internalType": "uint256",
              "name": "ensuroPpFee",
              "type": "uint256"
            },
            {
              "internalType": "uint256",
              "name": "ensuroCocFee",
              "type": "uint256"
            },
            {
              "internalType": "uint256",
              "name": "jrRoc",
              "type": "uint256"
            },
            {
              "internalType": "uint256",
              "name": "srRoc",
              "type": "uint256"
            }
          ],
          "internalType": "struct IRiskModule.Params",
          "name": "ret",
          "type": "tuple"
        }
      ],
      "stateMutability": "view",
      "type": "function"
    },
    {
      "inputs": [],
      "name": "pause",
      "outputs": [],
      "stateMutability": "nonpayable",
      "type": "function"
    },
    {
      "inputs": [],
      "name": "paused",
      "outputs": [
        {
          "internalType": "bool",
          "name": "",
          "type": "bool"
        }
      ],
      "stateMutability": "view",
      "type": "function"
    },
    {
      "inputs": [],
      "name": "policyPool",
      "outputs": [
        {
          "internalType": "contract IPolicyPool",
          "name": "",
          "type": "address"
        }
      ],
      "stateMutability": "view",
      "type": "function"
    },
    {
      "inputs": [],
      "name": "premiumsAccount",
      "outputs": [
        {
          "internalType": "contract IPremiumsAccount",
          "name": "",
          "type": "address"
        }
      ],
      "stateMutability": "view",
      "type": "function"
    },
    {
      "inputs": [],
      "name": "proxiableUUID",
      "outputs": [
        {
          "internalType": "bytes32",
          "name": "",
          "type": "bytes32"
        }
      ],
      "stateMutability": "view",
      "type": "function"
    },
    {
      "inputs": [
        {
          "internalType": "uint256",
          "name": "payout",
          "type": "uint256"
        }
      ],
      "name": "releaseExposure",
      "outputs": [],
      "stateMutability": "nonpayable",
      "type": "function"
    },
    {
      "inputs": [
        {
          "components": [
            {
              "internalType": "uint256",
              "name": "id",
              "type": "uint256"
            },
            {
              "internalType": "uint256",
              "name": "payout",
              "type": "uint256"
            },
            {
              "internalType": "uint256",
              "name": "premium",
              "type": "uint256"
            },
            {
              "internalType": "uint256",
              "name": "jrScr",
              "type": "uint256"
            },
            {
              "internalType": "uint256",
              "name": "srScr",
              "type": "uint256"
            },
            {
              "internalType": "uint256",
              "name": "lossProb",
              "type": "uint256"
            },
            {
              "internalType": "uint256",
              "name": "purePremium",
              "type": "uint256"
            },
            {
              "internalType": "uint256",
              "name": "ensuroCommission",
              "type": "uint256"
            },
            {
              "internalType": "uint256",
              "name": "partnerCommission",
              "type": "uint256"
            },
            {
              "internalType": "uint256",
              "name": "jrCoc",
              "type": "uint256"
            },
            {
              "internalType": "uint256",
              "name": "srCoc",
              "type": "uint256"
            },
            {
              "internalType": "contract IRiskModule",
              "name": "riskModule",
              "type": "address"
            },
            {
              "internalType": "uint40",
              "name": "start",
              "type": "uint40"
            },
            {
              "internalType": "uint40",
              "name": "expiration",
              "type": "uint40"
            }
          ],
          "internalType": "struct Policy.PolicyData",
          "name": "policy",
          "type": "tuple"
        },
        {
          "internalType": "uint256",
          "name": "payout",
          "type": "uint256"
        }
      ],
      "name": "resolvePolicy",
      "outputs": [],
      "stateMutability": "nonpayable",
      "type": "function"
    },
    {
      "inputs": [
        {
          "components": [
            {
              "internalType": "uint256",
              "name": "id",
              "type": "uint256"
            },
            {
              "internalType": "uint256",
              "name": "payout",
              "type": "uint256"
            },
            {
              "internalType": "uint256",
              "name": "premium",
              "type": "uint256"
            },
            {
              "internalType": "uint256",
              "name": "jrScr",
              "type": "uint256"
            },
            {
              "internalType": "uint256",
              "name": "srScr",
              "type": "uint256"
            },
            {
              "internalType": "uint256",
              "name": "lossProb",
              "type": "uint256"
            },
            {
              "internalType": "uint256",
              "name": "purePremium",
              "type": "uint256"
            },
            {
              "internalType": "uint256",
              "name": "ensuroCommission",
              "type": "uint256"
            },
            {
              "internalType": "uint256",
              "name": "partnerCommission",
              "type": "uint256"
            },
            {
              "internalType": "uint256",
              "name": "jrCoc",
              "type": "uint256"
            },
            {
              "internalType": "uint256",
              "name": "srCoc",
              "type": "uint256"
            },
            {
              "internalType": "contract IRiskModule",
              "name": "riskModule",
              "type": "address"
            },
            {
              "internalType": "uint40",
              "name": "start",
              "type": "uint40"
            },
            {
              "internalType": "uint40",
              "name": "expiration",
              "type": "uint40"
            }
          ],
          "internalType": "struct Policy.PolicyData",
          "name": "policy",
          "type": "tuple"
        },
        {
          "internalType": "bool",
          "name": "customerWon",
          "type": "bool"
        }
      ],
      "name": "resolvePolicyFullPayout",
      "outputs": [],
      "stateMutability": "nonpayable",
      "type": "function"
    },
    {
      "inputs": [
        {
          "internalType": "enum IRiskModule.Parameter",
          "name": "param",
          "type": "uint8"
        },
        {
          "internalType": "uint256",
          "name": "newValue",
          "type": "uint256"
        }
      ],
      "name": "setParam",
      "outputs": [],
      "stateMutability": "nonpayable",
      "type": "function"
    },
    {
      "inputs": [
        {
          "internalType": "address",
          "name": "wallet_",
          "type": "address"
        }
      ],
      "name": "setWallet",
      "outputs": [],
      "stateMutability": "nonpayable",
      "type": "function"
    },
    {
      "inputs": [
        {
          "internalType": "bytes4",
          "name": "interfaceId",
          "type": "bytes4"
        }
      ],
      "name": "supportsInterface",
      "outputs": [
        {
          "internalType": "bool",
          "name": "",
          "type": "bool"
        }
      ],
      "stateMutability": "view",
      "type": "function"
    },
    {
      "inputs": [],
      "name": "unpause",
      "outputs": [],
      "stateMutability": "nonpayable",
      "type": "function"
    },
    {
      "inputs": [
        {
          "internalType": "address",
          "name": "newImplementation",
          "type": "address"
        }
      ],
      "name": "upgradeTo",
      "outputs": [],
      "stateMutability": "nonpayable",
      "type": "function"
    },
    {
      "inputs": [
        {
          "internalType": "address",
          "name": "newImplementation",
          "type": "address"
        },
        {
          "internalType": "bytes",
          "name": "data",
          "type": "bytes"
        }
      ],
      "name": "upgradeToAndCall",
      "outputs": [],
      "stateMutability": "payable",
      "type": "function"
    },
    {
      "inputs": [],
      "name": "wallet",
      "outputs": [
        {
          "internalType": "address",
          "name": "",
          "type": "address"
        }
      ],
      "stateMutability": "view",
      "type": "function"
    }
  ],
  "bytecode": "0x610100604052306080523480156200001657600080fd5b50604051620058c4380380620058c48339810160408190526200003991620002b2565b8282816001600160a01b038116620000be5760405162461bcd60e51b815260206004820152603660248201527f506f6c696379506f6f6c436f6d706f6e656e743a20706f6c696379506f6f6c2060448201527f63616e6e6f74206265207a65726f20616464726573730000000000000000000060648201526084015b60405180910390fd5b620000c8620001da565b806001600160a01b031660a0816001600160a01b03168152505050816001600160a01b0316816001600160a01b0316634d15eb036040518163ffffffff1660e01b8152600401602060405180830381865afa1580156200012c573d6000803e3d6000fd5b505050506040513d601f19601f820116820180604052508101906200015291906200030a565b6001600160a01b031614620001bf5760405162461bcd60e51b815260206004820152602c60248201527f546865205072656d69756d734163636f756e74206d757374206265207061727460448201526b081bd9881d1a1948141bdbdb60a21b6064820152608401620000b5565b6001600160a01b031660c05250151560e05250620003319050565b600054610100900460ff1615620002445760405162461bcd60e51b815260206004820152602760248201527f496e697469616c697a61626c653a20636f6e747261637420697320696e697469604482015266616c697a696e6760c81b6064820152608401620000b5565b60005460ff908116101562000297576000805460ff191660ff9081179091556040519081527f7f26b83ff96e1f2b6a682f133852f6798a09c465da95921460cefb38474024989060200160405180910390a15b565b6001600160a01b0381168114620002af57600080fd5b50565b600080600060608486031215620002c857600080fd5b8351620002d58162000299565b6020850151909350620002e88162000299565b60408501519092508015158114620002ff57600080fd5b809150509250925092565b6000602082840312156200031d57600080fd5b81516200032a8162000299565b9392505050565b60805160a05160c05160e0516154aa6200041a600039600061211201526000818161053401526132c70152600081816103db015281816109c801528181610d5601528181610f3101528181611032015281816110b1015281816113a8015281816114a501528181611d7501528181611ef401528181611f970152818161209b0152818161213701528181612302015281816124920152818161290801528181612e1001528181612eaf01528181612f9d0152818161322901526143d60152600081816108a3015281816108ec01528181610ac201528181610b020152610b9101526154aa6000f3fe60806040526004361061021a5760003560e01c80636db5c8fd116101235780638bac3a24116100ab578063deaa59df1161006f578063deaa59df1461070c578063e5a6b10f1461072c578063f67b2bad14610741578063fbb8127914610763578063ffa600e31461079757600080fd5b80638bac3a2414610618578063a9a24f2714610638578063c1cca2b31461066c578063cfd4c6061461068c578063cff0ab96146106a157600080fd5b80637a702b3c116100f25780637a702b3c1461058c5780637ed5acfa146105ac5780637ff8bf25146105d95780638456cb59146105ee57806385272a6e1461060357600080fd5b80636db5c8fd146104e55780636f0dbe6f1461050557806373a952e81461052557806378fab2601461055857600080fd5b80634a47a3e0116101a657806352d1902d1161017557806352d1902d146104445780635b494dd5146104595780635c975abb1461048d57806365533024146104a55780636a448ef1146104c557600080fd5b80634a47a3e0146103985780634d15eb03146103cc5780634f1ef28614610413578063521eb2731461042657600080fd5b80633659cfe6116101ed5780633659cfe6146102c65780633711bbf5146102e85780633f4ba83a1461031557806345f739ff1461032a578063468a8c9f1461035e57600080fd5b806301ffc9a71461021f57806305918a791461025457806306fdde031461028257806324ea54f4146102a4575b600080fd5b34801561022b57600080fd5b5061023f61023a36600461482e565b6107b7565b60405190151581526020015b60405180910390f35b34801561026057600080fd5b5061027461026f366004614887565b6107e3565b60405190815260200161024b565b34801561028e57600080fd5b50610297610807565b60405161024b919061492b565b3480156102b057600080fd5b5061027460008051602061545583398151915281565b3480156102d257600080fd5b506102e66102e136600461495e565b610899565b005b3480156102f457600080fd5b50610308610303366004614887565b610981565b60405161024b9190614a33565b34801561032157600080fd5b506102e66109a8565b34801561033657600080fd5b506102747f90fe2ba5da14f172ed5a0a0fec391dbf8f191c9a2f3557d79ede5d6b1c1c9ffb81565b34801561036a57600080fd5b5060c9546040805164ffffffffff83168152600160281b90920466ffffffffffffff1660208301520161024b565b3480156103a457600080fd5b506102747fa82e22387fca439f316d78ca566f383218ab8ae1b3e830178c9c82cbd16749c081565b3480156103d857600080fd5b507f00000000000000000000000000000000000000000000000000000000000000005b6040516001600160a01b03909116815260200161024b565b6102e6610421366004614ace565b610ab8565b34801561043257600080fd5b5060fe546001600160a01b03166103fb565b34801561045057600080fd5b50610274610b84565b34801561046557600080fd5b506102747f5ec196419322369c6bac572d883f4d990ae5ec82f7d93cdf89b85dbb05b63c2781565b34801561049957600080fd5b5060975460ff1661023f565b3480156104b157600080fd5b506102746104c0366004614887565b610c37565b3480156104d157600080fd5b506102e66104e0366004614b32565b610d53565b3480156104f157600080fd5b5060fc54600160b01b900461ffff16610274565b34801561051157600080fd5b506102e6610520366004614b4b565b610def565b34801561053157600080fd5b507f00000000000000000000000000000000000000000000000000000000000000006103fb565b34801561056457600080fd5b506102747f92a19c77d2ea87c7f81d50c74403cb2f401780f3ad919571121efe2bdb427eb181565b34801561059857600080fd5b506102e66105a7366004614bfa565b610f0e565b3480156105b857600080fd5b506105c36201518081565b60405164ffffffffff909116815260200161024b565b3480156105e557600080fd5b5060fd54610274565b3480156105fa57600080fd5b506102e66110a0565b34801561060f57600080fd5b5061027461119b565b34801561062457600080fd5b50610274610633366004614c27565b6111be565b34801561064457600080fd5b506102747f0df0a8869cf58168a14cd7ac426ff1b8c6ff5d5c800c6f44803f3431dcb3bad181565b34801561067857600080fd5b506102e6610687366004614c5c565b611353565b34801561069857600080fd5b50610274611c16565b3480156106ad57600080fd5b506106b6611c35565b60405161024b9190600060e082019050825182526020830151602083015260408301516040830152606083015160608301526080830151608083015260a083015160a083015260c083015160c083015292915050565b34801561071857600080fd5b506102e661072736600461495e565b611d52565b34801561073857600080fd5b506103fb611ef0565b34801561074d57600080fd5b5061027460008051602061540e83398151915281565b34801561076f57600080fd5b506102747fc6823861ee2bb2198ce6b1fd6faf4c8f44f745bc804aca4a762f67e0d507fd8a81565b3480156107a357600080fd5b506102e66107b2366004614c9a565b611f74565b60006107c2826120d2565b806107dd57506001600160e01b0319821663da40804f60e01b145b92915050565b60006107f88a8a8a8a89898989335b8f612108565b519a9950505050505050505050565b606060fb805461081690614cd4565b80601f016020809104026020016040519081016040528092919081815260200182805461084290614cd4565b801561088f5780601f106108645761010080835404028352916020019161088f565b820191906000526020600020905b81548152906001019060200180831161087257829003601f168201915b5050505050905090565b6001600160a01b037f00000000000000000000000000000000000000000000000000000000000000001630036108ea5760405162461bcd60e51b81526004016108e190614d08565b60405180910390fd5b7f00000000000000000000000000000000000000000000000000000000000000006001600160a01b03166109336000805160206153ee833981519152546001600160a01b031690565b6001600160a01b0316146109595760405162461bcd60e51b81526004016108e190614d54565b61096281612472565b6040805160008082526020820190925261097e91839190612584565b50565b6109896147a8565b61099a8a8a8a8a89898989336107f2565b9a9950505050505050505050565b60008051602061545583398151915260008051602061540e8339815191527f00000000000000000000000000000000000000000000000000000000000000006001600160a01b03166371907f176040518163ffffffff1660e01b8152600401602060405180830381865afa158015610a24573d6000803e3d6000fd5b505050506040513d601f19601f82011682018060405250810190610a489190614da0565b6001600160a01b0316632b1cff1f3084843360016040518663ffffffff1660e01b8152600401610a7c959493929190614dbd565b60006040518083038186803b158015610a9457600080fd5b505afa158015610aa8573d6000803e3d6000fd5b50505050610ab46126ef565b5050565b6001600160a01b037f0000000000000000000000000000000000000000000000000000000000000000163003610b005760405162461bcd60e51b81526004016108e190614d08565b7f00000000000000000000000000000000000000000000000000000000000000006001600160a01b0316610b496000805160206153ee833981519152546001600160a01b031690565b6001600160a01b031614610b6f5760405162461bcd60e51b81526004016108e190614d54565b610b7882612472565b610ab482826001612584565b6000306001600160a01b037f00000000000000000000000000000000000000000000000000000000000000001614610c245760405162461bcd60e51b815260206004820152603860248201527f555550535570677261646561626c653a206d757374206e6f742062652063616c60448201527f6c6564207468726f7567682064656c656761746563616c6c000000000000000060648201526084016108e1565b506000805160206153ee83398151915290565b60006001600160a01b038616331480610cd657506000610c55611ef0565b6001600160a01b031663dd62ed3e88336040516001600160e01b031960e085901b1681526001600160a01b03928316600482015291166024820152604401602060405180830381865afa158015610cb0573d6000803e3d6000fd5b505050506040513d601f19601f82011682018060405250810190610cd49190614df0565b115b610d415760405162461bcd60e51b815260206004820152603660248201527f53656e646572206973206e6f7420617574686f72697a656420746f20637265616044820152753a32903837b634b1b4b2b99037b72132b430b63327b360511b60648201526084016108e1565b6107f88a8a8a8a898989898e8f612108565b337f00000000000000000000000000000000000000000000000000000000000000006001600160a01b031614610dd55760405162461bcd60e51b815260206004820152602160248201527f5468652063616c6c6572206d7573742062652074686520506f6c696379506f6f6044820152601b60fa1b60648201526084016108e1565b8060fd6000828254610de79190614e1f565b909155505050565b600054610100900460ff1615808015610e0f5750600054600160ff909116105b80610e295750303b158015610e29575060005460ff166001145b610e8c5760405162461bcd60e51b815260206004820152602e60248201527f496e697469616c697a61626c653a20636f6e747261637420697320616c72656160448201526d191e481a5b9a5d1a585b1a5e995960921b60648201526084016108e1565b6000805460ff191660011790558015610eaf576000805461ff0019166101001790555b610ebe88888888888888612741565b8015610f04576000805461ff0019169055604051600181527f7f26b83ff96e1f2b6a682f133852f6798a09c465da95921460cefb38474024989060200160405180910390a15b5050505050505050565b7f92a19c77d2ea87c7f81d50c74403cb2f401780f3ad919571121efe2bdb427eb17f00000000000000000000000000000000000000000000000000000000000000006001600160a01b03166371907f176040518163ffffffff1660e01b8152600401602060405180830381865afa158015610f8d573d6000803e3d6000fd5b505050506040513d601f19601f82011682018060405250810190610fb19190614da0565b6001600160a01b0316635ff57d2030833360006040518563ffffffff1660e01b8152600401610fe39493929190614e32565b60006040518083038186803b158015610ffb57600080fd5b505afa15801561100f573d6000803e3d6000fd5b5050505061101b61277f565b604051631e9c0acf60e21b81526001600160a01b037f00000000000000000000000000000000000000000000000000000000000000001690637a702b3c906110699086908690600401614f28565b600060405180830381600087803b15801561108357600080fd5b505af1158015611097573d6000803e3d6000fd5b50505050505050565b6000805160206154558339815191527f00000000000000000000000000000000000000000000000000000000000000006001600160a01b03166371907f176040518163ffffffff1660e01b8152600401602060405180830381865afa15801561110d573d6000803e3d6000fd5b505050506040513d601f19601f820116820180604052508101906111319190614da0565b6001600160a01b0316635ff57d2030833360016040518563ffffffff1660e01b81526004016111639493929190614e32565b60006040518083038186803b15801561117b57600080fd5b505afa15801561118f573d6000803e3d6000fd5b5050505061097e6127c7565b60fc546000906111b9908290600160901b900463ffffffff16612804565b905090565b6000806111c9611c35565b905060006111ee6111e783600001518761289590919063ffffffff16565b8790612895565b9050600061120983602001518861289590919063ffffffff16565b9050818111156112245761121d8282614e1f565b9050611228565b5060005b600061124184604001518961289590919063ffffffff16565b905061124d8284614f45565b81111561126f5761125e8284614f45565b6112689082614e1f565b9050611273565b5060005b60006112b46112ad6a1a1601fc4ea7109e0000006112984264ffffffffff8c16614e1f565b8860a001516112a79190614f58565b906128cd565b8490612895565b905060006112ea6112ad6a1a1601fc4ea7109e0000006112db4264ffffffffff8d16614e1f565b8960c001516112a79190614f58565b90506000611308876080015183856113029190614f45565b90612895565b6060880151611318908890612895565b6113229190614f45565b905061132e8284614f45565b6113388288614f45565b6113429190614f45565b9750505050505050505b9392505050565b60008051602061540e8339815191527fa82e22387fca439f316d78ca566f383218ab8ae1b3e830178c9c82cbd16749c07f5ec196419322369c6bac572d883f4d990ae5ec82f7d93cdf89b85dbb05b63c2760007f00000000000000000000000000000000000000000000000000000000000000006001600160a01b03166371907f176040518163ffffffff1660e01b8152600401602060405180830381865afa158015611404573d6000803e3d6000fd5b505050506040513d601f19601f820116820180604052508101906114289190614da0565b6040516359f7e5e960e11b81529091506001600160a01b0382169063b3efcbd29061145e90309088903390600190600401614e32565b602060405180830381865afa15801561147b573d6000803e3d6000fd5b505050506040513d601f19601f8201168201806040525081019061149f9190614f77565b61158a577f00000000000000000000000000000000000000000000000000000000000000006001600160a01b03166371907f176040518163ffffffff1660e01b8152600401602060405180830381865afa158015611501573d6000803e3d6000fd5b505050506040513d601f19601f820116820180604052508101906115259190614da0565b6001600160a01b0316632b1cff1f3085853360016040518663ffffffff1660e01b8152600401611559959493929190614dbd565b60006040518083038186803b15801561157157600080fd5b505afa158015611585573d6000803e3d6000fd5b505050505b60006115b57fa82e22387fca439f316d78ca566f383218ab8ae1b3e830178c9c82cbd16749c0612904565b1580156115d657506115d460008051602061540e833981519152612904565b155b905060008760098111156115ec576115ec614f94565b0361165c5780158061161c575060fc5461161c9061160d9061ffff166129fb565b8767016345785d8a0000612a11565b6116385760405162461bcd60e51b81526004016108e190614faa565b61164186612a98565b60fc805461ffff191661ffff92909216919091179055611bde565b600187600981111561167057611670614f94565b036116e057801580611697575060fc546116979061160d9062010000900461ffff166129fb565b6116b35760405162461bcd60e51b81526004016108e190614faa565b6116bc86612a98565b60fc805461ffff92909216620100000263ffff000019909216919091179055611bde565b60028760098111156116f4576116f4614f94565b036117685780158061171c575060fc5461171c9061160d90600160201b900461ffff166129fb565b6117385760405162461bcd60e51b81526004016108e190614faa565b61174186612a98565b60fc805461ffff92909216600160201b0265ffff0000000019909216919091179055611bde565b600387600981111561177c5761177c614f94565b036117f2578015806117a4575060fc546117a49061160d90600160301b900461ffff166129fb565b6117c05760405162461bcd60e51b81526004016108e190614faa565b6117c986612a98565b60fc805461ffff92909216600160301b0267ffff00000000000019909216919091179055611bde565b600487600981111561180657611806614f94565b0361187e5780158061182e575060fc5461182e9061160d90600160401b900461ffff166129fb565b61184a5760405162461bcd60e51b81526004016108e190614faa565b61185386612a98565b60fc805461ffff92909216600160401b0269ffff000000000000000019909216919091179055611bde565b600587600981111561189257611892614f94565b03611905578015806118ba575060fc546118ba9061160d90600160501b900461ffff166129fb565b6118d65760405162461bcd60e51b81526004016108e190614faa565b6118df86612a98565b60fc805461ffff92909216600160501b0261ffff60501b19909216919091179055611bde565b600687600981111561191957611919614f94565b0361198c57801580611941575060fc546119419061160d90600160601b900461ffff166129fb565b61195d5760405162461bcd60e51b81526004016108e190614faa565b61196686612a98565b60fc805461ffff92909216600160601b0261ffff60601b19909216919091179055611bde565b60078760098111156119a0576119a0614f94565b03611a09578015806119b857506119b861160d611c16565b6119d45760405162461bcd60e51b81526004016108e190614faa565b6119df600287612ab2565b60fc805463ffffffff92909216600160701b0263ffffffff60701b19909216919091179055611bde565b6008876009811115611a1d57611a1d614f94565b03611b7c5760fd54861015611a8e5760405162461bcd60e51b815260206004820152603160248201527f43616e277420736574206578706f737572654c696d6974206c657373207468616044820152706e20616374697665206578706f7375726560781b60648201526084016108e1565b801580611aa15750611aa161160d61119b565b611abd5760405162461bcd60e51b81526004016108e190614faa565b611ac561119b565b86111580611ae55750611ae560008051602061540e833981519152612904565b611b475760405162461bcd60e51b815260206004820152602d60248201527f547765616b2065786365656465643a20496e637265617365207265717569726560448201526c73204c4556454c315f524f4c4560981b60648201526084016108e1565b611b52600087612ab2565b60fc805463ffffffff92909216600160901b0263ffffffff60901b19909216919091179055611bde565b6009876009811115611b9057611b90614f94565b03611bde578015611bb35760405162461bcd60e51b81526004016108e190614faa565b611bbc86612b45565b60fc805461ffff92909216600160b01b0261ffff60b01b199092169190911790555b611097876009811115611bf357611bf3614f94565b611bfe906008614f45565b602d811115611c0f57611c0f614f94565b8783612bac565b60fc546000906111b990600290600160701b900463ffffffff16612804565b611c756040518060e00160405280600081526020016000815260200160008152602001600081526020016000815260200160008152602001600081525090565b6040805160e0810190915260fc548190611c929061ffff166129fb565b815260fc54602090910190611cb09062010000900461ffff166129fb565b815260fc54602090910190611ccf90600160201b900461ffff166129fb565b815260fc54602090910190611cee90600160301b900461ffff166129fb565b815260fc54602090910190611d0d90600160401b900461ffff166129fb565b815260fc54602090910190611d2c90600160501b900461ffff166129fb565b815260fc54602090910190611d4b90600160601b900461ffff166129fb565b9052919050565b7f0df0a8869cf58168a14cd7ac426ff1b8c6ff5d5c800c6f44803f3431dcb3bad17f00000000000000000000000000000000000000000000000000000000000000006001600160a01b03166371907f176040518163ffffffff1660e01b8152600401602060405180830381865afa158015611dd1573d6000803e3d6000fd5b505050506040513d601f19601f82011682018060405250810190611df59190614da0565b6001600160a01b0316635ff57d2030833360006040518563ffffffff1660e01b8152600401611e279493929190614e32565b60006040518083038186803b158015611e3f57600080fd5b505afa158015611e53573d6000803e3d6000fd5b5050506001600160a01b0383169050611ec45760405162461bcd60e51b815260206004820152602d60248201527f5269736b4d6f64756c653a2077616c6c65742063616e6e6f742062652074686560448201526c207a65726f206164647265737360981b60648201526084016108e1565b60fe80546001600160a01b0319166001600160a01b038416908117909155610ab4906012906000612bac565b60007f00000000000000000000000000000000000000000000000000000000000000006001600160a01b031663e5a6b10f6040518163ffffffff1660e01b8152600401602060405180830381865afa158015611f50573d6000803e3d6000fd5b505050506040513d601f19601f820116820180604052508101906111b99190614da0565b7f92a19c77d2ea87c7f81d50c74403cb2f401780f3ad919571121efe2bdb427eb17f00000000000000000000000000000000000000000000000000000000000000006001600160a01b03166371907f176040518163ffffffff1660e01b8152600401602060405180830381865afa158015611ff3573d6000803e3d6000fd5b505050506040513d601f19601f820116820180604052508101906120179190614da0565b6001600160a01b0316635ff57d2030833360006040518563ffffffff1660e01b81526004016120499493929190614e32565b60006040518083038186803b15801561206157600080fd5b505afa158015612075573d6000803e3d6000fd5b5050505061208161277f565b60405160016259ff1d60e01b031981526001600160a01b037f0000000000000000000000000000000000000000000000000000000000000000169063ffa600e3906110699086908690600401614fd2565b60006001600160e01b031982166301ffc9a760e01b14806107dd57506001600160e01b03198216634d15eb0360e01b1492915050565b6121106147a8565b7f000000000000000000000000000000000000000000000000000000000000000061223a577f00000000000000000000000000000000000000000000000000000000000000006001600160a01b03166371907f176040518163ffffffff1660e01b8152600401602060405180830381865afa158015612193573d6000803e3d6000fd5b505050506040513d601f19601f820116820180604052508101906121b79190614da0565b6001600160a01b0316635ff57d20307f90fe2ba5da14f172ed5a0a0fec391dbf8f191c9a2f3557d79ede5d6b1c1c9ffb3360006040518563ffffffff1660e01b81526004016122099493929190614e32565b60006040518083038186803b15801561222157600080fd5b505afa158015612235573d6000803e3d6000fd5b505050505b428464ffffffffff1610156122815760405162461bcd60e51b815260206004820152600d60248201526c145d5bdd1948195e1c1a5c9959609a1b60448201526064016108e1565b6040516001600160601b03193060601b166020820152603481018c9052605481018b9052607481018a90526001600160d81b031960d88a811b82166094840152609983018a905286901b1660b98201526000906122ef9060be01604051602081830303815290604052612c0d565b905060006122fe828989612c48565b90507f00000000000000000000000000000000000000000000000000000000000000006001600160a01b03166371907f176040518163ffffffff1660e01b8152600401602060405180830381865afa15801561235e573d6000803e3d6000fd5b505050506040513d601f19601f820116820180604052508101906123829190614da0565b6001600160a01b0316635ff57d20307fc6823861ee2bb2198ce6b1fd6faf4c8f44f745bc804aca4a762f67e0d507fd8a8460006040518563ffffffff1660e01b81526004016123d49493929190614e32565b60006040518083038186803b1580156123ec57600080fd5b505afa158015612400573d6000803e3d6000fd5b50600092506124179150600160601b90508b615007565b90506124288e8e8e8e8a8a87612c6e565b80516040518c8152919550907f3e4224c37ba48f27f735eecea98c4d71568b9825d0006b6e128aa73695e35f709060200160405180910390a25050509a9950505050505050505050565b60008051602061545583398151915260008051602061540e8339815191527f00000000000000000000000000000000000000000000000000000000000000006001600160a01b03166371907f176040518163ffffffff1660e01b8152600401602060405180830381865afa1580156124ee573d6000803e3d6000fd5b505050506040513d601f19601f820116820180604052508101906125129190614da0565b6001600160a01b0316632b1cff1f3084843360016040518663ffffffff1660e01b8152600401612546959493929190614dbd565b60006040518083038186803b15801561255e57600080fd5b505afa158015612572573d6000803e3d6000fd5b5050505061257f836132b7565b505050565b7f4910fdfa16fed3260ed0e7147f7cc6da11a60208b5b9406d12a635614ffd91435460ff16156125b75761257f836133ba565b826001600160a01b03166352d1902d6040518163ffffffff1660e01b8152600401602060405180830381865afa925050508015612611575060408051601f3d908101601f1916820190925261260e91810190614df0565b60015b6126745760405162461bcd60e51b815260206004820152602e60248201527f45524331393637557067726164653a206e657720696d706c656d656e7461746960448201526d6f6e206973206e6f74205555505360901b60648201526084016108e1565b6000805160206153ee83398151915281146126e35760405162461bcd60e51b815260206004820152602960248201527f45524331393637557067726164653a20756e737570706f727465642070726f786044820152681a58589b195555525160ba1b60648201526084016108e1565b5061257f838383613456565b6126f7613481565b6097805460ff191690557f5db9ee0a495bf2e6ff9c91a7834c1ba4fdd244a5e8aa4e537bd38aeae4b073aa335b6040516001600160a01b03909116815260200160405180910390a1565b600054610100900460ff166127685760405162461bcd60e51b81526004016108e19061501b565b6127706134ca565b61109787878787878787613501565b60975460ff16156127c55760405162461bcd60e51b815260206004820152601060248201526f14185d5cd8589b194e881c185d5cd95960821b60448201526064016108e1565b565b6127cf61277f565b6097805460ff191660011790557f62e78cea01bee320cd4e420270b5ea74000d11b0c9f74754ebdbfc544b05a2586127243390565b60008261280f611ef0565b6001600160a01b031663313ce5676040518163ffffffff1660e01b8152600401602060405180830381865afa15801561284c573d6000803e3d6000fd5b505050506040513d601f19601f820116820180604052508101906128709190615066565b61287a9190615089565b61288590600a615186565b61134c9063ffffffff8416614f58565b600081156706f05b59d3b2000019839004841115176128b357600080fd5b50670de0b6b3a764000091026706f05b59d3b20000010490565b60008115670de0b6b3a7640000600284041904841117156128ed57600080fd5b50670de0b6b3a76400009190910260028204010490565b60007f00000000000000000000000000000000000000000000000000000000000000006001600160a01b03166371907f176040518163ffffffff1660e01b8152600401602060405180830381865afa158015612964573d6000803e3d6000fd5b505050506040513d601f19601f820116820180604052508101906129889190614da0565b6001600160a01b031663b3efcbd230843360016040518563ffffffff1660e01b81526004016129ba9493929190614e32565b602060405180830381865afa1580156129d7573d6000803e3d6000fd5b505050506040513d601f19601f820116820180604052508101906107dd9190614f77565b60006107dd655af3107a400061ffff8416614f58565b6000828403612a225750600161134c565b83600003612a3c5750670de0b6b3a764000081101561134c565b82600003612a4c5750600061134c565b82841015612a7b5781670de0b6b3a7640000612a6885876128cd565b612a729190614e1f565b1115905061134c565b81612a8684866128cd565b612a7290670de0b6b3a7640000614e1f565b60006107dd612aad655af3107a400084615195565b612b45565b600061134c83612ac0611ef0565b6001600160a01b031663313ce5676040518163ffffffff1660e01b8152600401602060405180830381865afa158015612afd573d6000803e3d6000fd5b505050506040513d601f19601f82011682018060405250810190612b219190615066565b612b2b9190615089565b612b3690600a615186565b612b409084615195565b61370f565b600061ffff821115612ba85760405162461bcd60e51b815260206004820152602660248201527f53616665436173743a2076616c756520646f65736e27742066697420696e203160448201526536206269747360d01b60648201526084016108e1565b5090565b612bb4613774565b8015612bc357612bc383613c6d565b82602d811115612bd557612bd5614f94565b6040518381527f7bc647fe5043209e2019aa3503b79c1b0dd83eb61c56013d373a7584ff6bfb139060200160405180910390a2505050565b6000612c198251613dcf565b82604051602001612c2b9291906151a9565b604051602081830303815290604052805190602001209050919050565b6000806000612c58868686613ed8565b91509150612c6581613f11565b50949350505050565b612c766147a8565b612c7e61277f565b6000198703612c9557612c928887876111be565b96505b878710612ce45760405162461bcd60e51b815260206004820181905260248201527f5072656d69756d206d757374206265206c657373207468616e207061796f757460448201526064016108e1565b4264ffffffffff80821690871611612d3e5760405162461bcd60e51b815260206004820181905260248201527f45787069726174696f6e206d75737420626520696e207468652066757475726560448201526064016108e1565b60fc54600160b01b900461ffff16610e10612d598389615204565b612d639190615229565b64ffffffffff1610612db75760405162461bcd60e51b815260206004820152601b60248201527f506f6c6963792065786365656473206d6178206475726174696f6e000000000060448201526064016108e1565b6001600160a01b038416612e0d5760405162461bcd60e51b815260206004820152601e60248201527f437573746f6d65722063616e2774206265207a65726f2061646472657373000060448201526064016108e1565b877f00000000000000000000000000000000000000000000000000000000000000006001600160a01b031663e5a6b10f6040518163ffffffff1660e01b8152600401602060405180830381865afa158015612e6c573d6000803e3d6000fd5b505050506040513d601f19601f82011682018060405250810190612e909190614da0565b604051636eb1769f60e11b81526001600160a01b0388811660048301527f000000000000000000000000000000000000000000000000000000000000000081166024830152919091169063dd62ed3e90604401602060405180830381865afa158015612f00573d6000803e3d6000fd5b505050506040513d601f19601f82011682018060405250810190612f249190614df0565b1015612f885760405162461bcd60e51b815260206004820152602d60248201527f596f75206d75737420616c6c6f7720454e5355524f20746f207472616e73666560448201526c7220746865207072656d69756d60981b60648201526084016108e1565b6001600160a01b03851633148061309f5750877f00000000000000000000000000000000000000000000000000000000000000006001600160a01b031663e5a6b10f6040518163ffffffff1660e01b8152600401602060405180830381865afa158015612ff9573d6000803e3d6000fd5b505050506040513d601f19601f8201168201806040525081019061301d9190614da0565b6001600160a01b031663dd62ed3e87336040516001600160e01b031960e085901b1681526001600160a01b03928316600482015291166024820152604401602060405180830381865afa158015613078573d6000803e3d6000fd5b505050506040513d601f19601f8201168201806040525081019061309c9190614df0565b10155b6131035760405162461bcd60e51b815260206004820152602f60248201527f5061796572206d75737420616c6c6f772063616c6c657220746f207472616e7360448201526e66657220746865207072656d69756d60881b60648201526084016108e1565b61310b611c16565b8911156131755760405162461bcd60e51b815260206004820152603260248201527f5269736b4d6f64756c653a205061796f7574206973206d6f7265207468616e206044820152716d6178696d756d2070657220706f6c69637960701b60648201526084016108e1565b600061318c30613183611c35565b8b8d8c8c6140c7565b9050806020015160fd60008282546131a49190614f45565b909155506131b2905061119b565b60fd54111561320f5760405162461bcd60e51b815260206004820152602360248201527f5269736b4d6f64756c653a204578706f73757265206c696d697420657863656560448201526219195960ea1b60648201526084016108e1565b604051636769a76f60e01b81526000906001600160a01b037f00000000000000000000000000000000000000000000000000000000000000001690636769a76f906132649085908b908b908b9060040161524d565b6020604051808303816000875af1158015613283573d6000803e3d6000fd5b505050506040513d601f19601f820116820180604052508101906132a79190614df0565b8252509998505050505050505050565b6132c0816143d4565b60008190507f00000000000000000000000000000000000000000000000000000000000000006001600160a01b0316816001600160a01b03166373a952e86040518163ffffffff1660e01b8152600401602060405180830381865afa15801561332d573d6000803e3d6000fd5b505050506040513d601f19601f820116820180604052508101906133519190614da0565b6001600160a01b031614610ab45760405162461bcd60e51b815260206004820152602a60248201527f43616e27742075706772616465206368616e67696e6720746865205072656d696044820152691d5b5cd058d8dbdd5b9d60b21b60648201526084016108e1565b6001600160a01b0381163b6134275760405162461bcd60e51b815260206004820152602d60248201527f455243313936373a206e657720696d706c656d656e746174696f6e206973206e60448201526c1bdd08184818dbdb9d1c9858dd609a1b60648201526084016108e1565b6000805160206153ee83398151915280546001600160a01b0319166001600160a01b0392909216919091179055565b61345f836144c5565b60008251118061346c5750805b1561257f5761347b8383614505565b50505050565b60975460ff166127c55760405162461bcd60e51b815260206004820152601460248201527314185d5cd8589b194e881b9bdd081c185d5cd95960621b60448201526064016108e1565b600054610100900460ff166134f15760405162461bcd60e51b81526004016108e19061501b565b6134f96145f9565b6127c5614620565b600054610100900460ff166135285760405162461bcd60e51b81526004016108e19061501b565b60fb61353488826152e2565b50604080516101408101825261271081526000602082015290810161355888612a98565b61ffff16815260200161356a87612a98565b61ffff168152600060208201819052604082015260600161358a86612a98565b61ffff16815260200161359e600286612ab2565b63ffffffff1681526020016135b4600085612ab2565b63ffffffff9081168252612238602092830152825160fc80549385015160408601516060870151608088015160a089015160c08a015160e08b01516101008c0151610120909c015161ffff998a1663ffffffff19909c169b909b1762010000978a16979097029690961767ffffffff000000001916600160201b9589169590950267ffff000000000000191694909417600160301b93881693909302929092176bffffffff00000000000000001916600160401b9187169190910261ffff60501b191617600160501b918616919091021765ffffffffffff60601b1916600160601b9185169190910263ffffffff60701b191617600160701b918516919091021765ffffffffffff60901b1916600160901b959093169490940261ffff60b01b191691909117600160b01b9190921602179055600060fd5560fe80546001600160a01b0319166001600160a01b038316179055611097613774565b600063ffffffff821115612ba85760405162461bcd60e51b815260206004820152602660248201527f53616665436173743a2076616c756520646f65736e27742066697420696e203360448201526532206269747360d01b60648201526084016108e1565b60fc546127106201000090910461ffff1611156137df5760405162461bcd60e51b815260206004820152602360248201527f56616c69646174696f6e3a206a72436f6c6c526174696f206d757374206265206044820152623c3d3160e81b60648201526084016108e1565b60fc54612710600160201b90910461ffff161180159061380b575060fc54600160201b900461ffff1615155b6138615760405162461bcd60e51b815260206004820152602160248201527f56616c69646174696f6e3a20636f6c6c526174696f206d757374206265203c3d6044820152603160f81b60648201526084016108e1565b60fc5461ffff6201000082048116600160201b9092041610156138d25760405162461bcd60e51b8152602060048201526024808201527f56616c69646174696f6e3a20636f6c6c526174696f203e3d206a72436f6c6c526044820152636174696f60e01b60648201526084016108e1565b60fc54619c4061ffff909116118015906138f6575060fc5461138861ffff90911610155b6139425760405162461bcd60e51b815260206004820181905260248201527f56616c69646174696f6e3a206d6f63206d757374206265205b302e352c20345d60448201526064016108e1565b60fc54612710600160301b90910461ffff1611156139ae5760405162461bcd60e51b8152602060048201526024808201527f56616c69646174696f6e3a20656e7375726f5070466565206d757374206265206044820152633c3d203160e01b60648201526084016108e1565b60fc54612710600160401b90910461ffff161115613a1c5760405162461bcd60e51b815260206004820152602560248201527f56616c69646174696f6e3a20656e7375726f436f63466565206d757374206265604482015264203c3d203160d81b60648201526084016108e1565b60fc54612710600160601b90910461ffff161115613a8a5760405162461bcd60e51b815260206004820152602560248201527f56616c69646174696f6e3a207372526f63206d757374206265203c3d20312028604482015264313030252960d81b60648201526084016108e1565b60fc54612710600160501b90910461ffff161115613af85760405162461bcd60e51b815260206004820152602560248201527f56616c69646174696f6e3a206a72526f63206d757374206265203c3d20312028604482015264313030252960d81b60648201526084016108e1565b60fd54613b0361119b565b1015613b825760405162461bcd60e51b815260206004820152604260248201527f56616c69646174696f6e3a206578706f737572654c696d69742063616e27742060448201527f6265206c657373207468616e2061637475616c206163746976654578706f7375606482015261726560f01b608482015260a4016108e1565b60fc54600160901b900463ffffffff1615801590613bae575060fc54600160701b900463ffffffff1615155b613c045760405162461bcd60e51b815260206004820152602160248201527f4578706f7375726520616e64204d61785061796f7574206d757374206265203e6044820152600360fc1b60648201526084016108e1565b60fe546001600160a01b03166127c55760405162461bcd60e51b815260206004820152602860248201527f56616c69646174696f6e3a2057616c6c65742063616e2774206265207a65726f604482015267206164647265737360c01b60648201526084016108e1565b6000600182602d811115613c8357613c83614f94565b613c8d9190615089565b60c954600160ff929092169190911b91506201518090613cb49064ffffffffff1642615204565b64ffffffffff161115613cf15760c9805466ffffffffffffff8316600160281b026001600160601b031990911664ffffffffff4216171790555050565b60c954600160281b9004811666ffffffffffffff16600003613d515760c9805464ffffffffff421664ffffffffff1966ffffffffffffff808616600160281b808604929092161702166001600160601b0319909216919091171790555050565b60405162461bcd60e51b815260206004820152604760248201527f596f7520616c726561647920747765616b6564207468697320706172616d657460448201527f657220726563656e746c792e2057616974206265666f726520747765616b696e606482015266339030b3b0b4b760c91b608482015260a4016108e1565b606081600003613df65750506040805180820190915260018152600360fc1b602082015290565b8160005b8115613e205780613e0a816153a2565b9150613e199050600a83615195565b9150613dfa565b60008167ffffffffffffffff811115613e3b57613e3b614a42565b6040519080825280601f01601f191660200182016040528015613e65576020820181803683370190505b5090505b8415613ed057613e7a600183614e1f565b9150613e87600a86615007565b613e92906030614f45565b60f81b818381518110613ea757613ea76153bb565b60200101906001600160f81b031916908160001a905350613ec9600a86615195565b9450613e69565b949350505050565b6000806001600160ff1b03831681613ef560ff86901c601b614f45565b9050613f038782888561464f565b935093505050935093915050565b6000816004811115613f2557613f25614f94565b03613f2d5750565b6001816004811115613f4157613f41614f94565b03613f8e5760405162461bcd60e51b815260206004820152601860248201527f45434453413a20696e76616c6964207369676e6174757265000000000000000060448201526064016108e1565b6002816004811115613fa257613fa2614f94565b03613fef5760405162461bcd60e51b815260206004820152601f60248201527f45434453413a20696e76616c6964207369676e6174757265206c656e6774680060448201526064016108e1565b600381600481111561400357614003614f94565b0361405b5760405162461bcd60e51b815260206004820152602260248201527f45434453413a20696e76616c6964207369676e6174757265202773272076616c604482015261756560f01b60648201526084016108e1565b600481600481111561406f5761406f614f94565b0361097e5760405162461bcd60e51b815260206004820152602260248201527f45434453413a20696e76616c6964207369676e6174757265202776272076616c604482015261756560f01b60648201526084016108e1565b6140cf6147a8565b8385111561412a5760405162461bcd60e51b815260206004820152602260248201527f5072656d69756d2063616e6e6f74206265206d6f7265207468616e207061796f6044820152611d5d60f21b60648201526084016108e1565b6141326147a8565b6001600160a01b038816610160820152604081018690526020810185905260a0810184905264ffffffffff42811661018083015283166101a082015286516141869061417f908690612895565b8690612895565b60c0820152602087015161419b908690612895565b6060820181905260c082015110156141cb578060c00151816060018181516141c39190614e1f565b9052506141d3565b600060608201525b60408701516141e3908690612895565b6080820152606081015160c08201516141fc9190614f45565b816080015111156142345780606001518160c0015161421b9190614f45565b8160800181815161422c9190614e1f565b90525061423c565b600060808201525b6142856301e13380826101800151836101a0015161425a9190615204565b64ffffffffff168960a001516142709190614f58565b61427a9190615195565b606083015190612895565b6101208201526101808101516101a08201516142d6916301e13380916142ab9190615204565b64ffffffffff168960c001516142c19190614f58565b6142cb9190615195565b608083015190612895565b61014082018190526101208201516000916142f091614f45565b905061430988608001518261289590919063ffffffff16565b606089015160c084015161431c91612895565b6143269190614f45565b60e0830181905260c0830151889183916143409190614f45565b61434a9190614f45565b11156143985760405162461bcd60e51b815260206004820152601960248201527f5072656d69756d206c657373207468616e206d696e696d756d0000000000000060448201526064016108e1565b8160e00151818360c00151896143ae9190614e1f565b6143b89190614e1f565b6143c29190614e1f565b61010083015250979650505050505050565b7f00000000000000000000000000000000000000000000000000000000000000006001600160a01b0316816001600160a01b0316634d15eb036040518163ffffffff1660e01b8152600401602060405180830381865afa15801561443c573d6000803e3d6000fd5b505050506040513d601f19601f820116820180604052508101906144609190614da0565b6001600160a01b03161461097e5760405162461bcd60e51b815260206004820152602660248201527f43616e27742075706772616465206368616e67696e672074686520506f6c696360448201526579506f6f6c2160d01b60648201526084016108e1565b6144ce816133ba565b6040516001600160a01b038216907fbc7cd75a20ee27fd9adebab32041f755214dbc6bffa90cc0225b39da2e5c2d3b90600090a250565b60606001600160a01b0383163b61456d5760405162461bcd60e51b815260206004820152602660248201527f416464726573733a2064656c65676174652063616c6c20746f206e6f6e2d636f6044820152651b9d1c9858dd60d21b60648201526084016108e1565b600080846001600160a01b03168460405161458891906153d1565b600060405180830381855af49150503d80600081146145c3576040519150601f19603f3d011682016040523d82523d6000602084013e6145c8565b606091505b50915091506145f0828260405180606001604052806027815260200161542e6027913961473c565b95945050505050565b600054610100900460ff166127c55760405162461bcd60e51b81526004016108e19061501b565b600054610100900460ff166146475760405162461bcd60e51b81526004016108e19061501b565b6127c5614775565b6000807f7fffffffffffffffffffffffffffffff5d576e7357a4501ddfe92f46681b20a08311156146865750600090506003614733565b8460ff16601b1415801561469e57508460ff16601c14155b156146af5750600090506004614733565b6040805160008082526020820180845289905260ff881692820192909252606081018690526080810185905260019060a0016020604051602081039080840390855afa158015614703573d6000803e3d6000fd5b5050604051601f1901519150506001600160a01b03811661472c57600060019250925050614733565b9150600090505b94509492505050565b6060831561474b57508161134c565b82511561475b5782518084602001fd5b8160405162461bcd60e51b81526004016108e1919061492b565b600054610100900460ff1661479c5760405162461bcd60e51b81526004016108e19061501b565b6097805460ff19169055565b604051806101c00160405280600081526020016000815260200160008152602001600081526020016000815260200160008152602001600081526020016000815260200160008152602001600081526020016000815260200160006001600160a01b03168152602001600064ffffffffff168152602001600064ffffffffff1681525090565b60006020828403121561484057600080fd5b81356001600160e01b03198116811461134c57600080fd5b803564ffffffffff8116811461486d57600080fd5b919050565b6001600160a01b038116811461097e57600080fd5b60008060008060008060008060006101208a8c0312156148a657600080fd5b8935985060208a0135975060408a013596506148c460608b01614858565b955060808a01356148d481614872565b945060a08a0135935060c08a0135925060e08a013591506148f86101008b01614858565b90509295985092959850929598565b60005b8381101561492257818101518382015260200161490a565b50506000910152565b602081526000825180602084015261494a816040850160208701614907565b601f01601f19169190910160400192915050565b60006020828403121561497057600080fd5b813561134c81614872565b805182526020810151602083015260408101516040830152606081015160608301526080810151608083015260a081015160a083015260c081015160c083015260e081015160e083015261010080820151818401525061012080820151818401525061014080820151818401525061016080820151614a04828501826001600160a01b03169052565b50506101808181015164ffffffffff81168483015250506101a08181015164ffffffffff81168483015261347b565b6101c081016107dd828461497b565b634e487b7160e01b600052604160045260246000fd5b600067ffffffffffffffff80841115614a7357614a73614a42565b604051601f8501601f19908116603f01168101908282118183101715614a9b57614a9b614a42565b81604052809350858152868686011115614ab457600080fd5b858560208301376000602087830101525050509392505050565b60008060408385031215614ae157600080fd5b8235614aec81614872565b9150602083013567ffffffffffffffff811115614b0857600080fd5b8301601f81018513614b1957600080fd5b614b2885823560208401614a58565b9150509250929050565b600060208284031215614b4457600080fd5b5035919050565b600080600080600080600060e0888a031215614b6657600080fd5b873567ffffffffffffffff811115614b7d57600080fd5b8801601f81018a13614b8e57600080fd5b614b9d8a823560208401614a58565b9750506020880135955060408801359450606088013593506080880135925060a0880135915060c0880135614bd181614872565b8091505092959891949750929550565b60006101c08284031215614bf457600080fd5b50919050565b6000806101e08385031215614c0e57600080fd5b614c188484614be1565b946101c0939093013593505050565b600080600060608486031215614c3c57600080fd5b8335925060208401359150614c5360408501614858565b90509250925092565b60008060408385031215614c6f57600080fd5b8235600a8110614c7e57600080fd5b946020939093013593505050565b801515811461097e57600080fd5b6000806101e08385031215614cae57600080fd5b614cb88484614be1565b91506101c0830135614cc981614c8c565b809150509250929050565b600181811c90821680614ce857607f821691505b602082108103614bf457634e487b7160e01b600052602260045260246000fd5b6020808252602c908201527f46756e6374696f6e206d7573742062652063616c6c6564207468726f7567682060408201526b19195b1959d85d1958d85b1b60a21b606082015260800190565b6020808252602c908201527f46756e6374696f6e206d7573742062652063616c6c6564207468726f7567682060408201526b6163746976652070726f787960a01b606082015260800190565b600060208284031215614db257600080fd5b815161134c81614872565b6001600160a01b039586168152602081019490945260408401929092529092166060820152901515608082015260a00190565b600060208284031215614e0257600080fd5b5051919050565b634e487b7160e01b600052601160045260246000fd5b818103818111156107dd576107dd614e09565b6001600160a01b039485168152602081019390935292166040820152901515606082015260800190565b803561486d81614872565b803582526020810135602083015260408101356040830152606081013560608301526080810135608083015260a081013560a083015260c081013560c083015260e081013560e0830152610100808201358184015250610120808201358184015250610140808201358184015250610160614ee3818301614e5c565b6001600160a01b031690830152610180614efe828201614858565b64ffffffffff16908301526101a0614f17828201614858565b64ffffffffff81168483015261347b565b6101e08101614f378285614e67565b826101c08301529392505050565b808201808211156107dd576107dd614e09565b6000816000190483118215151615614f7257614f72614e09565b500290565b600060208284031215614f8957600080fd5b815161134c81614c8c565b634e487b7160e01b600052602160045260246000fd5b6020808252600e908201526d151dd9585ac8195e18d95959195960921b604082015260600190565b6101e08101614fe18285614e67565b8215156101c08301529392505050565b634e487b7160e01b600052601260045260246000fd5b60008261501657615016614ff1565b500690565b6020808252602b908201527f496e697469616c697a61626c653a20636f6e7472616374206973206e6f74206960408201526a6e697469616c697a696e6760a81b606082015260800190565b60006020828403121561507857600080fd5b815160ff8116811461134c57600080fd5b60ff82811682821603908111156107dd576107dd614e09565b600181815b808511156150dd5781600019048211156150c3576150c3614e09565b808516156150d057918102915b93841c93908002906150a7565b509250929050565b6000826150f4575060016107dd565b81615101575060006107dd565b816001811461511757600281146151215761513d565b60019150506107dd565b60ff84111561513257615132614e09565b50506001821b6107dd565b5060208310610133831016604e8410600b8410161715615160575081810a6107dd565b61516a83836150a2565b806000190482111561517e5761517e614e09565b029392505050565b600061134c60ff8416836150e5565b6000826151a4576151a4614ff1565b500490565b7f19457468657265756d205369676e6564204d6573736167653a0a0000000000008152600083516151e181601a850160208801614907565b8351908301906151f881601a840160208801614907565b01601a01949350505050565b64ffffffffff82811682821603908082111561522257615222614e09565b5092915050565b600064ffffffffff8084168061524157615241614ff1565b92169190910492915050565b610220810161525c828761497b565b6001600160a01b039485166101c0830152929093166101e08401526bffffffffffffffffffffffff1661020090920191909152919050565b601f82111561257f57600081815260208120601f850160051c810160208610156152bb5750805b601f850160051c820191505b818110156152da578281556001016152c7565b505050505050565b815167ffffffffffffffff8111156152fc576152fc614a42565b6153108161530a8454614cd4565b84615294565b602080601f831160018114615345576000841561532d5750858301515b600019600386901b1c1916600185901b1785556152da565b600085815260208120601f198616915b8281101561537457888601518255948401946001909101908401615355565b50858210156153925787850151600019600388901b60f8161c191681555b5050505050600190811b01905550565b6000600182016153b4576153b4614e09565b5060010190565b634e487b7160e01b600052603260045260246000fd5b600082516153e3818460208701614907565b919091019291505056fe360894a13ba1a3210667c828492db98dca3e2076cc3735a920a3ca505d382bbcbf372ca3ebecfe59ac256f17697941bbe63302aced610e8b0e3646f743c7beb2416464726573733a206c6f772d6c6576656c2064656c65676174652063616c6c206661696c656455435dd261a4b9b3364963f7738a7a662ad9c84396d64be3365284bb7f0a5041a2646970667358221220e834f47a5aef5622b235fd6599193faad9b0dcf54ea76a70296e573fc3ebbac064736f6c63430008100033",
  "linkReferences": {},
  "deployedLinkReferences": {}
}